{
  "address": "0x7F5a4Dc5aab42a95Ef425E1ECb6F3F52F07C6c77",
  "abi": [
    {
      "inputs": [
        {
          "internalType": "contract IVotes",
          "name": "_token",
          "type": "address"
        },
        {
          "internalType": "contract TimelockController",
          "name": "_timelock",
          "type": "address"
        },
        {
          "internalType": "uint256",
          "name": "_quorumPercentage",
          "type": "uint256"
        },
        {
          "internalType": "uint256",
          "name": "_votingPeriod",
          "type": "uint256"
        },
        {
          "internalType": "uint256",
          "name": "_votingDelay",
          "type": "uint256"
        },
        {
          "internalType": "address",
          "name": "_admin",
          "type": "address"
        }
      ],
      "stateMutability": "nonpayable",
      "type": "constructor"
    },
    {
      "inputs": [],
      "name": "Empty",
      "type": "error"
    },
    {
      "inputs": [],
      "name": "InvalidShortString",
      "type": "error"
    },
    {
      "inputs": [
        {
          "internalType": "string",
          "name": "str",
          "type": "string"
        }
      ],
      "name": "StringTooLong",
      "type": "error"
    },
    {
      "anonymous": false,
      "inputs": [],
      "name": "EIP712DomainChanged",
      "type": "event"
    },
    {
      "anonymous": false,
      "inputs": [
        {
          "indexed": false,
          "internalType": "uint256",
          "name": "proposalId",
          "type": "uint256"
        }
      ],
      "name": "ProposalCanceled",
      "type": "event"
    },
    {
      "anonymous": false,
      "inputs": [
        {
          "indexed": false,
          "internalType": "uint256",
          "name": "proposalId",
          "type": "uint256"
        },
        {
          "indexed": false,
          "internalType": "address",
          "name": "proposer",
          "type": "address"
        },
        {
          "indexed": false,
          "internalType": "address[]",
          "name": "targets",
          "type": "address[]"
        },
        {
          "indexed": false,
          "internalType": "uint256[]",
          "name": "values",
          "type": "uint256[]"
        },
        {
          "indexed": false,
          "internalType": "string[]",
          "name": "signatures",
          "type": "string[]"
        },
        {
          "indexed": false,
          "internalType": "bytes[]",
          "name": "calldatas",
          "type": "bytes[]"
        },
        {
          "indexed": false,
          "internalType": "uint256",
          "name": "voteStart",
          "type": "uint256"
        },
        {
          "indexed": false,
          "internalType": "uint256",
          "name": "voteEnd",
          "type": "uint256"
        },
        {
          "indexed": false,
          "internalType": "string",
          "name": "description",
          "type": "string"
        }
      ],
      "name": "ProposalCreated",
      "type": "event"
    },
    {
      "anonymous": false,
      "inputs": [
        {
          "indexed": false,
          "internalType": "uint256",
          "name": "proposalId",
          "type": "uint256"
        }
      ],
      "name": "ProposalExecuted",
      "type": "event"
    },
    {
      "anonymous": false,
      "inputs": [
        {
          "indexed": false,
          "internalType": "uint256",
          "name": "proposalId",
          "type": "uint256"
        },
        {
          "indexed": false,
          "internalType": "uint256",
          "name": "eta",
          "type": "uint256"
        }
      ],
      "name": "ProposalQueued",
      "type": "event"
    },
    {
      "anonymous": false,
      "inputs": [
        {
          "indexed": false,
          "internalType": "uint256",
          "name": "oldProposalThreshold",
          "type": "uint256"
        },
        {
          "indexed": false,
          "internalType": "uint256",
          "name": "newProposalThreshold",
          "type": "uint256"
        }
      ],
      "name": "ProposalThresholdSet",
      "type": "event"
    },
    {
      "anonymous": false,
      "inputs": [
        {
          "indexed": false,
          "internalType": "uint256",
          "name": "oldQuorumNumerator",
          "type": "uint256"
        },
        {
          "indexed": false,
          "internalType": "uint256",
          "name": "newQuorumNumerator",
          "type": "uint256"
        }
      ],
      "name": "QuorumNumeratorUpdated",
      "type": "event"
    },
    {
      "anonymous": false,
      "inputs": [
        {
          "indexed": false,
          "internalType": "address",
          "name": "oldTimelock",
          "type": "address"
        },
        {
          "indexed": false,
          "internalType": "address",
          "name": "newTimelock",
          "type": "address"
        }
      ],
      "name": "TimelockChange",
      "type": "event"
    },
    {
      "anonymous": false,
      "inputs": [
        {
          "indexed": true,
          "internalType": "address",
          "name": "voter",
          "type": "address"
        },
        {
          "indexed": false,
          "internalType": "uint256",
          "name": "proposalId",
          "type": "uint256"
        },
        {
          "indexed": false,
          "internalType": "uint8",
          "name": "support",
          "type": "uint8"
        },
        {
          "indexed": false,
          "internalType": "uint256",
          "name": "weight",
          "type": "uint256"
        },
        {
          "indexed": false,
          "internalType": "string",
          "name": "reason",
          "type": "string"
        }
      ],
      "name": "VoteCast",
      "type": "event"
    },
    {
      "anonymous": false,
      "inputs": [
        {
          "indexed": true,
          "internalType": "address",
          "name": "voter",
          "type": "address"
        },
        {
          "indexed": false,
          "internalType": "uint256",
          "name": "proposalId",
          "type": "uint256"
        },
        {
          "indexed": false,
          "internalType": "uint8",
          "name": "support",
          "type": "uint8"
        },
        {
          "indexed": false,
          "internalType": "uint256",
          "name": "weight",
          "type": "uint256"
        },
        {
          "indexed": false,
          "internalType": "string",
          "name": "reason",
          "type": "string"
        },
        {
          "indexed": false,
          "internalType": "bytes",
          "name": "params",
          "type": "bytes"
        }
      ],
      "name": "VoteCastWithParams",
      "type": "event"
    },
    {
      "anonymous": false,
      "inputs": [
        {
          "indexed": false,
          "internalType": "uint256",
          "name": "oldVotingDelay",
          "type": "uint256"
        },
        {
          "indexed": false,
          "internalType": "uint256",
          "name": "newVotingDelay",
          "type": "uint256"
        }
      ],
      "name": "VotingDelaySet",
      "type": "event"
    },
    {
      "anonymous": false,
      "inputs": [
        {
          "indexed": false,
          "internalType": "uint256",
          "name": "oldVotingPeriod",
          "type": "uint256"
        },
        {
          "indexed": false,
          "internalType": "uint256",
          "name": "newVotingPeriod",
          "type": "uint256"
        }
      ],
      "name": "VotingPeriodSet",
      "type": "event"
    },
    {
      "anonymous": false,
      "inputs": [
        {
          "indexed": true,
          "internalType": "address",
          "name": "prevAdmin",
          "type": "address"
        },
        {
          "indexed": true,
          "internalType": "address",
          "name": "newAdmin",
          "type": "address"
        },
        {
          "indexed": true,
          "internalType": "uint256",
          "name": "time",
          "type": "uint256"
        }
      ],
      "name": "adminChanged",
      "type": "event"
    },
    {
      "inputs": [],
      "name": "BALLOT_TYPEHASH",
      "outputs": [
        {
          "internalType": "bytes32",
          "name": "",
          "type": "bytes32"
        }
      ],
      "stateMutability": "view",
      "type": "function"
    },
    {
      "inputs": [],
      "name": "CLOCK_MODE",
      "outputs": [
        {
          "internalType": "string",
          "name": "",
          "type": "string"
        }
      ],
      "stateMutability": "view",
      "type": "function"
    },
    {
      "inputs": [],
      "name": "COUNTING_MODE",
      "outputs": [
        {
          "internalType": "string",
          "name": "",
          "type": "string"
        }
      ],
      "stateMutability": "pure",
      "type": "function"
    },
    {
      "inputs": [],
      "name": "EXTENDED_BALLOT_TYPEHASH",
      "outputs": [
        {
          "internalType": "bytes32",
          "name": "",
          "type": "bytes32"
        }
      ],
      "stateMutability": "view",
      "type": "function"
    },
    {
      "inputs": [
        {
          "internalType": "address[]",
          "name": "targets",
          "type": "address[]"
        },
        {
          "internalType": "uint256[]",
          "name": "values",
          "type": "uint256[]"
        },
        {
          "internalType": "bytes[]",
          "name": "calldatas",
          "type": "bytes[]"
        },
        {
          "internalType": "bytes32",
          "name": "descriptionHash",
          "type": "bytes32"
        }
      ],
      "name": "cancel",
      "outputs": [
        {
          "internalType": "uint256",
          "name": "",
          "type": "uint256"
        }
      ],
      "stateMutability": "nonpayable",
      "type": "function"
    },
    {
      "inputs": [
        {
          "internalType": "uint256",
          "name": "proposalId",
          "type": "uint256"
        },
        {
          "internalType": "uint8",
          "name": "support",
          "type": "uint8"
        }
      ],
      "name": "castVote",
      "outputs": [
        {
          "internalType": "uint256",
          "name": "",
          "type": "uint256"
        }
      ],
      "stateMutability": "nonpayable",
      "type": "function"
    },
    {
      "inputs": [
        {
          "internalType": "uint256",
          "name": "proposalId",
          "type": "uint256"
        },
        {
          "internalType": "uint8",
          "name": "support",
          "type": "uint8"
        },
        {
          "internalType": "uint8",
          "name": "v",
          "type": "uint8"
        },
        {
          "internalType": "bytes32",
          "name": "r",
          "type": "bytes32"
        },
        {
          "internalType": "bytes32",
          "name": "s",
          "type": "bytes32"
        }
      ],
      "name": "castVoteBySig",
      "outputs": [
        {
          "internalType": "uint256",
          "name": "",
          "type": "uint256"
        }
      ],
      "stateMutability": "nonpayable",
      "type": "function"
    },
    {
      "inputs": [
        {
          "internalType": "uint256",
          "name": "proposalId",
          "type": "uint256"
        },
        {
          "internalType": "uint8",
          "name": "support",
          "type": "uint8"
        },
        {
          "internalType": "string",
          "name": "reason",
          "type": "string"
        }
      ],
      "name": "castVoteWithReason",
      "outputs": [
        {
          "internalType": "uint256",
          "name": "",
          "type": "uint256"
        }
      ],
      "stateMutability": "nonpayable",
      "type": "function"
    },
    {
      "inputs": [
        {
          "internalType": "uint256",
          "name": "proposalId",
          "type": "uint256"
        },
        {
          "internalType": "uint8",
          "name": "support",
          "type": "uint8"
        },
        {
          "internalType": "string",
          "name": "reason",
          "type": "string"
        },
        {
          "internalType": "bytes",
          "name": "params",
          "type": "bytes"
        }
      ],
      "name": "castVoteWithReasonAndParams",
      "outputs": [
        {
          "internalType": "uint256",
          "name": "",
          "type": "uint256"
        }
      ],
      "stateMutability": "nonpayable",
      "type": "function"
    },
    {
      "inputs": [
        {
          "internalType": "uint256",
          "name": "proposalId",
          "type": "uint256"
        },
        {
          "internalType": "uint8",
          "name": "support",
          "type": "uint8"
        },
        {
          "internalType": "string",
          "name": "reason",
          "type": "string"
        },
        {
          "internalType": "bytes",
          "name": "params",
          "type": "bytes"
        },
        {
          "internalType": "uint8",
          "name": "v",
          "type": "uint8"
        },
        {
          "internalType": "bytes32",
          "name": "r",
          "type": "bytes32"
        },
        {
          "internalType": "bytes32",
          "name": "s",
          "type": "bytes32"
        }
      ],
      "name": "castVoteWithReasonAndParamsBySig",
      "outputs": [
        {
          "internalType": "uint256",
          "name": "",
          "type": "uint256"
        }
      ],
      "stateMutability": "nonpayable",
      "type": "function"
    },
    {
      "inputs": [
        {
          "internalType": "address",
          "name": "_newAdmin",
          "type": "address"
        }
      ],
      "name": "changeAdmin",
      "outputs": [],
      "stateMutability": "nonpayable",
      "type": "function"
    },
    {
      "inputs": [],
      "name": "clock",
      "outputs": [
        {
          "internalType": "uint48",
          "name": "",
          "type": "uint48"
        }
      ],
      "stateMutability": "view",
      "type": "function"
    },
    {
      "inputs": [],
      "name": "eip712Domain",
      "outputs": [
        {
          "internalType": "bytes1",
          "name": "fields",
          "type": "bytes1"
        },
        {
          "internalType": "string",
          "name": "name",
          "type": "string"
        },
        {
          "internalType": "string",
          "name": "version",
          "type": "string"
        },
        {
          "internalType": "uint256",
          "name": "chainId",
          "type": "uint256"
        },
        {
          "internalType": "address",
          "name": "verifyingContract",
          "type": "address"
        },
        {
          "internalType": "bytes32",
          "name": "salt",
          "type": "bytes32"
        },
        {
          "internalType": "uint256[]",
          "name": "extensions",
          "type": "uint256[]"
        }
      ],
      "stateMutability": "view",
      "type": "function"
    },
    {
      "inputs": [
        {
          "internalType": "address[]",
          "name": "targets",
          "type": "address[]"
        },
        {
          "internalType": "uint256[]",
          "name": "values",
          "type": "uint256[]"
        },
        {
          "internalType": "bytes[]",
          "name": "calldatas",
          "type": "bytes[]"
        },
        {
          "internalType": "bytes32",
          "name": "descriptionHash",
          "type": "bytes32"
        }
      ],
      "name": "execute",
      "outputs": [
        {
          "internalType": "uint256",
          "name": "",
          "type": "uint256"
        }
      ],
      "stateMutability": "payable",
      "type": "function"
    },
    {
      "inputs": [
        {
          "internalType": "address",
          "name": "account",
          "type": "address"
        },
        {
          "internalType": "uint256",
          "name": "blockNumber",
          "type": "uint256"
        }
      ],
      "name": "getVotes",
      "outputs": [
        {
          "internalType": "uint256",
          "name": "",
          "type": "uint256"
        }
      ],
      "stateMutability": "view",
      "type": "function"
    },
    {
      "inputs": [
        {
          "internalType": "address",
          "name": "account",
          "type": "address"
        },
        {
          "internalType": "uint256",
          "name": "timepoint",
          "type": "uint256"
        },
        {
          "internalType": "bytes",
          "name": "params",
          "type": "bytes"
        }
      ],
      "name": "getVotesWithParams",
      "outputs": [
        {
          "internalType": "uint256",
          "name": "",
          "type": "uint256"
        }
      ],
      "stateMutability": "view",
      "type": "function"
    },
    {
      "inputs": [
        {
          "internalType": "uint256",
          "name": "proposalId",
          "type": "uint256"
        },
        {
          "internalType": "address",
          "name": "account",
          "type": "address"
        }
      ],
      "name": "hasVoted",
      "outputs": [
        {
          "internalType": "bool",
          "name": "",
          "type": "bool"
        }
      ],
      "stateMutability": "view",
      "type": "function"
    },
    {
      "inputs": [
        {
          "internalType": "address[]",
          "name": "targets",
          "type": "address[]"
        },
        {
          "internalType": "uint256[]",
          "name": "values",
          "type": "uint256[]"
        },
        {
          "internalType": "bytes[]",
          "name": "calldatas",
          "type": "bytes[]"
        },
        {
          "internalType": "bytes32",
          "name": "descriptionHash",
          "type": "bytes32"
        }
      ],
      "name": "hashProposal",
      "outputs": [
        {
          "internalType": "uint256",
          "name": "",
          "type": "uint256"
        }
      ],
      "stateMutability": "pure",
      "type": "function"
    },
    {
      "inputs": [
        {
          "internalType": "address",
          "name": "user",
          "type": "address"
        },
        {
          "internalType": "uint256",
          "name": "votes",
          "type": "uint256"
        }
      ],
      "name": "malPractice",
      "outputs": [
        {
          "internalType": "uint256",
          "name": "",
          "type": "uint256"
        }
      ],
      "stateMutability": "nonpayable",
      "type": "function"
    },
    {
      "inputs": [],
      "name": "name",
      "outputs": [
        {
          "internalType": "string",
          "name": "",
          "type": "string"
        }
      ],
      "stateMutability": "view",
      "type": "function"
    },
    {
      "inputs": [
        {
          "internalType": "address",
          "name": "",
          "type": "address"
        },
        {
          "internalType": "address",
          "name": "",
          "type": "address"
        },
        {
          "internalType": "uint256[]",
          "name": "",
          "type": "uint256[]"
        },
        {
          "internalType": "uint256[]",
          "name": "",
          "type": "uint256[]"
        },
        {
          "internalType": "bytes",
          "name": "",
          "type": "bytes"
        }
      ],
      "name": "onERC1155BatchReceived",
      "outputs": [
        {
          "internalType": "bytes4",
          "name": "",
          "type": "bytes4"
        }
      ],
      "stateMutability": "nonpayable",
      "type": "function"
    },
    {
      "inputs": [
        {
          "internalType": "address",
          "name": "",
          "type": "address"
        },
        {
          "internalType": "address",
          "name": "",
          "type": "address"
        },
        {
          "internalType": "uint256",
          "name": "",
          "type": "uint256"
        },
        {
          "internalType": "uint256",
          "name": "",
          "type": "uint256"
        },
        {
          "internalType": "bytes",
          "name": "",
          "type": "bytes"
        }
      ],
      "name": "onERC1155Received",
      "outputs": [
        {
          "internalType": "bytes4",
          "name": "",
          "type": "bytes4"
        }
      ],
      "stateMutability": "nonpayable",
      "type": "function"
    },
    {
      "inputs": [
        {
          "internalType": "address",
          "name": "",
          "type": "address"
        },
        {
          "internalType": "address",
          "name": "",
          "type": "address"
        },
        {
          "internalType": "uint256",
          "name": "",
          "type": "uint256"
        },
        {
          "internalType": "bytes",
          "name": "",
          "type": "bytes"
        }
      ],
      "name": "onERC721Received",
      "outputs": [
        {
          "internalType": "bytes4",
          "name": "",
          "type": "bytes4"
        }
      ],
      "stateMutability": "nonpayable",
      "type": "function"
    },
    {
      "inputs": [
        {
          "internalType": "uint256",
          "name": "proposalId",
          "type": "uint256"
        }
      ],
      "name": "proposalDeadline",
      "outputs": [
        {
          "internalType": "uint256",
          "name": "",
          "type": "uint256"
        }
      ],
      "stateMutability": "view",
      "type": "function"
    },
    {
      "inputs": [
        {
          "internalType": "uint256",
          "name": "proposalId",
          "type": "uint256"
        }
      ],
      "name": "proposalEta",
      "outputs": [
        {
          "internalType": "uint256",
          "name": "",
          "type": "uint256"
        }
      ],
      "stateMutability": "view",
      "type": "function"
    },
    {
      "inputs": [
        {
          "internalType": "uint256",
          "name": "proposalId",
          "type": "uint256"
        }
      ],
      "name": "proposalProposer",
      "outputs": [
        {
          "internalType": "address",
          "name": "",
          "type": "address"
        }
      ],
      "stateMutability": "view",
      "type": "function"
    },
    {
      "inputs": [
        {
          "internalType": "uint256",
          "name": "proposalId",
          "type": "uint256"
        }
      ],
      "name": "proposalSnapshot",
      "outputs": [
        {
          "internalType": "uint256",
          "name": "",
          "type": "uint256"
        }
      ],
      "stateMutability": "view",
      "type": "function"
    },
    {
      "inputs": [],
      "name": "proposalThreshold",
      "outputs": [
        {
          "internalType": "uint256",
          "name": "",
          "type": "uint256"
        }
      ],
      "stateMutability": "view",
      "type": "function"
    },
    {
      "inputs": [
        {
          "internalType": "uint256",
          "name": "proposalId",
          "type": "uint256"
        }
      ],
      "name": "proposalVotes",
      "outputs": [
        {
          "internalType": "uint256",
          "name": "againstVotes",
          "type": "uint256"
        },
        {
          "internalType": "uint256",
          "name": "forVotes",
          "type": "uint256"
        },
        {
          "internalType": "uint256",
          "name": "abstainVotes",
          "type": "uint256"
        }
      ],
      "stateMutability": "view",
      "type": "function"
    },
    {
      "inputs": [
        {
          "internalType": "address[]",
          "name": "targets",
          "type": "address[]"
        },
        {
          "internalType": "uint256[]",
          "name": "values",
          "type": "uint256[]"
        },
        {
          "internalType": "bytes[]",
          "name": "calldatas",
          "type": "bytes[]"
        },
        {
          "internalType": "string",
          "name": "description",
          "type": "string"
        }
      ],
      "name": "propose",
      "outputs": [
        {
          "internalType": "uint256",
          "name": "",
          "type": "uint256"
        }
      ],
      "stateMutability": "nonpayable",
      "type": "function"
    },
    {
      "inputs": [
        {
          "internalType": "address[]",
          "name": "targets",
          "type": "address[]"
        },
        {
          "internalType": "uint256[]",
          "name": "values",
          "type": "uint256[]"
        },
        {
          "internalType": "bytes[]",
          "name": "calldatas",
          "type": "bytes[]"
        },
        {
          "internalType": "bytes32",
          "name": "descriptionHash",
          "type": "bytes32"
        }
      ],
      "name": "queue",
      "outputs": [
        {
          "internalType": "uint256",
          "name": "",
          "type": "uint256"
        }
      ],
      "stateMutability": "nonpayable",
      "type": "function"
    },
    {
      "inputs": [
        {
          "internalType": "uint256",
          "name": "blockNumber",
          "type": "uint256"
        }
      ],
      "name": "quorum",
      "outputs": [
        {
          "internalType": "uint256",
          "name": "",
          "type": "uint256"
        }
      ],
      "stateMutability": "view",
      "type": "function"
    },
    {
      "inputs": [],
      "name": "quorumDenominator",
      "outputs": [
        {
          "internalType": "uint256",
          "name": "",
          "type": "uint256"
        }
      ],
      "stateMutability": "view",
      "type": "function"
    },
    {
      "inputs": [
        {
          "internalType": "uint256",
          "name": "timepoint",
          "type": "uint256"
        }
      ],
      "name": "quorumNumerator",
      "outputs": [
        {
          "internalType": "uint256",
          "name": "",
          "type": "uint256"
        }
      ],
      "stateMutability": "view",
      "type": "function"
    },
    {
      "inputs": [],
      "name": "quorumNumerator",
      "outputs": [
        {
          "internalType": "uint256",
          "name": "",
          "type": "uint256"
        }
      ],
      "stateMutability": "view",
      "type": "function"
    },
    {
      "inputs": [
        {
          "internalType": "address",
          "name": "target",
          "type": "address"
        },
        {
          "internalType": "uint256",
          "name": "value",
          "type": "uint256"
        },
        {
          "internalType": "bytes",
          "name": "data",
          "type": "bytes"
        }
      ],
      "name": "relay",
      "outputs": [],
      "stateMutability": "payable",
      "type": "function"
    },
    {
      "inputs": [],
      "name": "s_admin",
      "outputs": [
        {
          "internalType": "address",
          "name": "",
          "type": "address"
        }
      ],
      "stateMutability": "view",
      "type": "function"
    },
    {
      "inputs": [],
      "name": "s_lastProposal",
      "outputs": [
        {
          "internalType": "uint256",
          "name": "",
          "type": "uint256"
        }
      ],
      "stateMutability": "view",
      "type": "function"
    },
    {
      "inputs": [
        {
          "internalType": "uint256",
          "name": "newProposalThreshold",
          "type": "uint256"
        }
      ],
      "name": "setProposalThreshold",
      "outputs": [],
      "stateMutability": "nonpayable",
      "type": "function"
    },
    {
      "inputs": [
        {
          "internalType": "uint256",
          "name": "newVotingDelay",
          "type": "uint256"
        }
      ],
      "name": "setVotingDelay",
      "outputs": [],
      "stateMutability": "nonpayable",
      "type": "function"
    },
    {
      "inputs": [
        {
          "internalType": "uint256",
          "name": "newVotingPeriod",
          "type": "uint256"
        }
      ],
      "name": "setVotingPeriod",
      "outputs": [],
      "stateMutability": "nonpayable",
      "type": "function"
    },
    {
      "inputs": [
        {
          "internalType": "uint256",
          "name": "proposalId",
          "type": "uint256"
        }
      ],
      "name": "state",
      "outputs": [
        {
          "internalType": "enum IGovernor.ProposalState",
          "name": "",
          "type": "uint8"
        }
      ],
      "stateMutability": "view",
      "type": "function"
    },
    {
      "inputs": [
        {
          "internalType": "bytes4",
          "name": "interfaceId",
          "type": "bytes4"
        }
      ],
      "name": "supportsInterface",
      "outputs": [
        {
          "internalType": "bool",
          "name": "",
          "type": "bool"
        }
      ],
      "stateMutability": "view",
      "type": "function"
    },
    {
      "inputs": [],
      "name": "timelock",
      "outputs": [
        {
          "internalType": "address",
          "name": "",
          "type": "address"
        }
      ],
      "stateMutability": "view",
      "type": "function"
    },
    {
      "inputs": [],
      "name": "token",
      "outputs": [
        {
          "internalType": "contract IERC5805",
          "name": "",
          "type": "address"
        }
      ],
      "stateMutability": "view",
      "type": "function"
    },
    {
      "inputs": [
        {
          "internalType": "uint256",
          "name": "newQuorumNumerator",
          "type": "uint256"
        }
      ],
      "name": "updateQuorumNumerator",
      "outputs": [],
      "stateMutability": "nonpayable",
      "type": "function"
    },
    {
      "inputs": [
        {
          "internalType": "contract TimelockController",
          "name": "newTimelock",
          "type": "address"
        }
      ],
      "name": "updateTimelock",
      "outputs": [],
      "stateMutability": "nonpayable",
      "type": "function"
    },
    {
      "inputs": [
        {
          "internalType": "address",
          "name": "",
          "type": "address"
        }
      ],
      "name": "userVotes",
      "outputs": [
        {
          "internalType": "uint256",
          "name": "",
          "type": "uint256"
        }
      ],
      "stateMutability": "view",
      "type": "function"
    },
    {
      "inputs": [],
      "name": "version",
      "outputs": [
        {
          "internalType": "string",
          "name": "",
          "type": "string"
        }
      ],
      "stateMutability": "view",
      "type": "function"
    },
    {
      "inputs": [],
      "name": "votingDelay",
      "outputs": [
        {
          "internalType": "uint256",
          "name": "",
          "type": "uint256"
        }
      ],
      "stateMutability": "view",
      "type": "function"
    },
    {
      "inputs": [],
      "name": "votingPeriod",
      "outputs": [
        {
          "internalType": "uint256",
          "name": "",
          "type": "uint256"
        }
      ],
      "stateMutability": "view",
      "type": "function"
    },
    {
      "stateMutability": "payable",
      "type": "receive"
    }
  ],
  "transactionHash": "0x7c0e4bc68900ab940574c969165c3cf6140fd0180a9775187eb8a8cc3281b424",
  "args": [
    "0xA4cB4498F14Eb7350739ea5c769F442fDD7EF0e2",
    "0xe99FbfdF2F16cA028ca5eF1B2B1A5c4459046EfE",
    4,
    300,
    60,
    "0x0aBCaDe3C4cB5f2F1e6b192A2bf2DB2b4E442205"
  ],
  "numDeployments": 4,
  "solcInputHash": "960714e234e42eb9bbc371a56ef5f95a",
  "bytecode": "0x6101806040523480156200001257600080fd5b5060405162006ad338038062006ad3833981016040819052620000359162000ab0565b848487848660006040518060400160405280601081526020016f11dbdd995c9b9bdc90dbdb9d1c9858dd60821b8152508062000076620001d260201b60201c565b62000091600083620001ed60201b620020781790919060201c565b61012052620000ae816001620001ed602090811b6200207817901c565b61014052815160208084019190912060e052815190820120610100524660a0526200013c60e05161010051604080517f8b73c3c69bb8fe3d512ecc4cf759cc79239f7b179b0ffacaa9a75d522b39400f60208201529081019290925260608201524660808201523060a082015260009060c00160405160208183030381529060405280519060200120905090565b60805250503060c05280516200015a906002906020840190620009fb565b506200016890508362000241565b620001738262000282565b6200017e8162000329565b5050506001600160a01b03166101605262000199816200036a565b50620001a5816200051f565b50600e80546001600160a01b0319166001600160a01b03929092169190911790555062000c289350505050565b6040805180820190915260018152603160f81b602082015290565b60006020835110156200020d57620002058362000588565b90506200023b565b826200022483620005cb60201b620020af1760201c565b8151620002359260200190620009fb565b5060ff90505b92915050565b60065460408051918252602082018390527fc565b045403dc03c2eea82b81a0465edad9e2e7fc4d97e11421c209da93d7a93910160405180910390a1600655565b60008111620002e85760405162461bcd60e51b815260206004820152602760248201527f476f7665726e6f7253657474696e67733a20766f74696e6720706572696f6420604482015266746f6f206c6f7760c81b60648201526084015b60405180910390fd5b60075460408051918252602082018390527f7e3f7f0708a84de9203036abaa450dccc85ad5ff52f78c170f3edb55cf5e8828910160405180910390a1600755565b60085460408051918252602082018390527fccb45da8d5717e6c4544694297c4ba5cf151d455c9bb0ed4fc7a38411bc05461910160405180910390a1600855565b6064811115620003ef5760405162461bcd60e51b815260206004820152604360248201527f476f7665726e6f72566f74657351756f72756d4672616374696f6e3a2071756f60448201527f72756d4e756d657261746f72206f7665722071756f72756d44656e6f6d696e616064820152623a37b960e91b608482015260a401620002df565b6000620003fb620005ce565b905080158015906200040d5750600b54155b156200048857600b6000016040518060400160405280600063ffffffff16815260200162000446846200060860201b620020b21760201c565b6001600160e01b0390811690915282546001810184556000938452602093849020835194909301519091166401000000000263ffffffff909316929092179101555b620004e0620004b36200049a62000677565b65ffffffffffff166200070960201b6200214a1760201c565b620004c9846200060860201b620020b21760201c565b600b6200077060201b620021c6179092919060201c565b505060408051828152602081018490527f0553476bf02ef2726e8ce5ced78d63e26e602e4a2257b1f559418e24b4633997910160405180910390a15050565b600c54604080516001600160a01b03928316815291831660208301527f08f74ea46ef7894f65eabfb5e6e695de773a000b47c529ab559178069b226401910160405180910390a1600c80546001600160a01b0319166001600160a01b0392909216919091179055565b600080829050601f81511115620005b6578260405163305a27a960e01b8152600401620002df919062000b21565b8051620005c38262000b79565b179392505050565b90565b600b5460009015620005ff57620005f1600b6200078d60201b620021e11760201c565b6001600160e01b0316905090565b600a545b905090565b60006001600160e01b03821115620006735760405162461bcd60e51b815260206004820152602760248201527f53616665436173743a2076616c756520646f65736e27742066697420696e20326044820152663234206269747360c81b6064820152608401620002df565b5090565b6000610160516001600160a01b03166391ddadf46040518163ffffffff1660e01b815260040160206040518083038186803b158015620006b657600080fd5b505afa925050508015620006e9575060408051601f3d908101601f19168201909252620006e69181019062000ba1565b60015b62000704576200060343620007db60201b620022351760201c565b919050565b600063ffffffff821115620006735760405162461bcd60e51b815260206004820152602660248201527f53616665436173743a2076616c756520646f65736e27742066697420696e203360448201526532206269747360d01b6064820152608401620002df565b6000806200078085858562000844565b915091505b935093915050565b80546000908015620007d157620007b983620007ab60018462000bcb565b600091825260209091200190565b5464010000000090046001600160e01b0316620007d4565b60005b9392505050565b600065ffffffffffff821115620006735760405162461bcd60e51b815260206004820152602660248201527f53616665436173743a2076616c756520646f65736e27742066697420696e203460448201526538206269747360d01b6064820152608401620002df565b825460009081908015620009a05760006200086687620007ab60018562000bcb565b60408051808201909152905463ffffffff8082168084526401000000009092046001600160e01b031660208401529192509087161015620008ea5760405162461bcd60e51b815260206004820152601b60248201527f436865636b706f696e743a2064656372656173696e67206b65797300000000006044820152606401620002df565b8563ffffffff16816000015163ffffffff1614156200093f57846200091688620007ab60018662000bcb565b80546001600160e01b03929092166401000000000263ffffffff9092169190911790556200098f565b6040805180820190915263ffffffff80881682526001600160e01b0380881660208085019182528b54600181018d5560008d81529190912094519151909216640100000000029216919091179101555b602001519250839150620007859050565b50506040805180820190915263ffffffff80851682526001600160e01b0380851660208085019182528854600181018a5560008a81529182209551925190931664010000000002919093161792019190915590508162000785565b82805462000a099062000bf1565b90600052602060002090601f01602090048101928262000a2d576000855562000a78565b82601f1062000a4857805160ff191683800117855562000a78565b8280016001018555821562000a78579182015b8281111562000a7857825182559160200191906001019062000a5b565b50620006739291505b8082111562000673576000815560010162000a81565b6001600160a01b038116811462000aad57600080fd5b50565b60008060008060008060c0878903121562000aca57600080fd5b865162000ad78162000a97565b602088015190965062000aea8162000a97565b8095505060408701519350606087015192506080870151915060a087015162000b138162000a97565b809150509295509295509295565b600060208083528351808285015260005b8181101562000b505785810183015185820160400152820162000b32565b8181111562000b63576000604083870101525b50601f01601f1916929092016040019392505050565b8051602080830151919081101562000b9b576000198160200360031b1b821691505b50919050565b60006020828403121562000bb457600080fd5b815165ffffffffffff81168114620007d457600080fd5b60008282101562000bec57634e487b7160e01b600052601160045260246000fd5b500390565b600181811c9082168062000c0657607f821691505b6020821081141562000b9b57634e487b7160e01b600052602260045260246000fd5b60805160a05160c05160e05161010051610120516101405161016051615e2962000caa60003960008181610c0f015281816112a30152818161187f0152818161344e01526136d30152600061170a015260006116e001526000613c5c01526000613c3401526000613b8f01526000613bb901526000613be30152615e296000f3fe6080604052600436106103385760003560e01c80637b3c71d3116101b0578063c28bc2fa116100ec578063ea0217cf11610095578063f23a6e611161006f578063f23a6e6114610b78578063f4424ecb14610bbd578063f8ce560a14610bdd578063fc0c546a14610bfd57600080fd5b8063ea0217cf14610b18578063eb9019d414610b38578063ece40cc114610b5857600080fd5b8063d33219b4116100c6578063d33219b414610a73578063dd4e2ba514610a9e578063deaaa7cc14610ae457600080fd5b8063c28bc2fa14610a2a578063c59057e414610a3d578063d098e34814610a5d57600080fd5b80639a802a6d11610159578063ab58fb8e11610133578063ab58fb8e14610976578063b58131b014610996578063bc197c81146109ab578063c01f9e37146109f057600080fd5b80639a802a6d14610921578063a7713a7014610941578063a890c9101461095657600080fd5b80638f2839701161018a5780638f283970146108c157806391ddadf4146108e157806397c3d3341461090d57600080fd5b80637b3c71d3146108595780637d5e81e21461087957806384b0196e1461089957600080fd5b80633932abb11161027f578063544ffc9c116102285780635f398a14116102025780635f398a14146107cc57806360c4247f146107ec578063621901501461080c57806370b0f6601461083957600080fd5b8063544ffc9c1461071157806354fd4d501461076657806356781388146107ac57600080fd5b806343859632116102595780634385963214610685578063452115d6146106dc5780634bf5d7e9146106fc57600080fd5b80633932abb1146106235780633bccf4fd146106385780633e4f49e61461065857600080fd5b8063143489d0116102e15780632656227d116102bb5780632656227d146105a55780632d63f693146105b85780632fe3e261146105ef57600080fd5b8063143489d0146104c1578063150b7a0214610510578063160cbed71461058557600080fd5b806306f3f9e61161031257806306f3f9e61461042d57806306fdde031461044d578063132788cf1461046f57600080fd5b806301ffc9a7146103b557806302a251a3146103ea578063034201811461040d57600080fd5b366103b05730610346610c31565b73ffffffffffffffffffffffffffffffffffffffff16146103ae5760405162461bcd60e51b815260206004820152601f60248201527f476f7665726e6f723a206d7573742073656e6420746f206578656375746f720060448201526064015b60405180910390fd5b005b600080fd5b3480156103c157600080fd5b506103d56103d0366004614cff565b610c57565b60405190151581526020015b60405180910390f35b3480156103f657600080fd5b506103ff610c68565b6040519081526020016103e1565b34801561041957600080fd5b506103ff610428366004614ebd565b610c73565b34801561043957600080fd5b506103ae610448366004614f64565b610d6b565b34801561045957600080fd5b50610462610e51565b6040516103e19190614ff7565b34801561047b57600080fd5b50600e5461049c9073ffffffffffffffffffffffffffffffffffffffff1681565b60405173ffffffffffffffffffffffffffffffffffffffff90911681526020016103e1565b3480156104cd57600080fd5b5061049c6104dc366004614f64565b60009081526003602052604090205468010000000000000000900473ffffffffffffffffffffffffffffffffffffffff1690565b34801561051c57600080fd5b5061055461052b36600461502c565b7f150b7a0200000000000000000000000000000000000000000000000000000000949350505050565b6040517fffffffff0000000000000000000000000000000000000000000000000000000090911681526020016103e1565b34801561059157600080fd5b506103ff6105a0366004615206565b610ee3565b6103ff6105b3366004615206565b610f62565b3480156105c457600080fd5b506103ff6105d3366004614f64565b60009081526003602052604090205467ffffffffffffffff1690565b3480156105fb57600080fd5b506103ff7fb3b3f3b703cd84ce352197dcff232b1b5d3cfb2025ce47cf04742d0651f1af8881565b34801561062f57600080fd5b506103ff6110c8565b34801561064457600080fd5b506103ff610653366004615296565b6110d3565b34801561066457600080fd5b50610678610673366004614f64565b611149565b6040516103e19190615313565b34801561069157600080fd5b506103d56106a0366004615354565b600082815260096020908152604080832073ffffffffffffffffffffffffffffffffffffffff8516845260030190915290205460ff1692915050565b3480156106e857600080fd5b506103ff6106f7366004615206565b611154565b34801561070857600080fd5b5061046261129f565b34801561071d57600080fd5b5061074b61072c366004614f64565b6000908152600960205260409020805460018201546002909201549092565b604080519384526020840192909252908201526060016103e1565b34801561077257600080fd5b5060408051808201909152600181527f31000000000000000000000000000000000000000000000000000000000000006020820152610462565b3480156107b857600080fd5b506103ff6107c7366004615384565b61139b565b3480156107d857600080fd5b506103ff6107e73660046153b0565b6113c4565b3480156107f857600080fd5b506103ff610807366004614f64565b61140e565b34801561081857600080fd5b506103ff610827366004615434565b60106020526000908152604090205481565b34801561084557600080fd5b506103ae610854366004614f64565b6114fd565b34801561086557600080fd5b506103ff610874366004615451565b6115e0565b34801561088557600080fd5b506103ff6108943660046154ab565b611628565b3480156108a557600080fd5b506108ae6116d2565b6040516103e1979695949392919061559b565b3480156108cd57600080fd5b506103ae6108dc366004615434565b611776565b3480156108ed57600080fd5b506108f661187b565b60405165ffffffffffff90911681526020016103e1565b34801561091957600080fd5b5060646103ff565b34801561092d57600080fd5b506103ff61093c366004615624565b61193e565b34801561094d57600080fd5b506103ff611955565b34801561096257600080fd5b506103ae610971366004615434565b611994565b34801561098257600080fd5b506103ff610991366004614f64565b611a77565b3480156109a257600080fd5b506103ff611b46565b3480156109b757600080fd5b506105546109c636600461567d565b7fbc197c810000000000000000000000000000000000000000000000000000000095945050505050565b3480156109fc57600080fd5b506103ff610a0b366004614f64565b60009081526003602052604090206001015467ffffffffffffffff1690565b6103ae610a38366004615711565b611b51565b348015610a4957600080fd5b506103ff610a58366004615206565b611cc9565b348015610a6957600080fd5b506103ff600f5481565b348015610a7f57600080fd5b50600c5473ffffffffffffffffffffffffffffffffffffffff1661049c565b348015610aaa57600080fd5b506040805180820190915260208082527f737570706f72743d627261766f2671756f72756d3d666f722c6162737461696e90820152610462565b348015610af057600080fd5b506103ff7f150214d74d59b7d1e90c73fc22ef3d991dd0a76b046543d4d80ab92d2a50328f81565b348015610b2457600080fd5b506103ae610b33366004614f64565b611d21565b348015610b4457600080fd5b506103ff610b53366004615755565b611e04565b348015610b6457600080fd5b506103ae610b73366004614f64565b611e10565b348015610b8457600080fd5b50610554610b93366004615781565b7ff23a6e610000000000000000000000000000000000000000000000000000000095945050505050565b348015610bc957600080fd5b506103ff610bd8366004615755565b611ef3565b348015610be957600080fd5b506103ff610bf8366004614f64565b61206d565b348015610c0957600080fd5b5061049c7f000000000000000000000000000000000000000000000000000000000000000081565b6000610c52600c5473ffffffffffffffffffffffffffffffffffffffff1690565b905090565b6000610c62826122b3565b92915050565b6000610c5260075490565b600080610d17610d0f7fb3b3f3b703cd84ce352197dcff232b1b5d3cfb2025ce47cf04742d0651f1af888c8c8c8c604051610caf9291906157ea565b60405180910390208b80519060200120604051602001610cf4959493929190948552602085019390935260ff9190911660408401526060830152608082015260a00190565b60405160208183030381529060405280519060200120612309565b868686612351565b9050610d5d8a828b8b8b8080601f0160208091040260200160405190810160405280939291908181526020018383808284376000920191909152508d925061236f915050565b9a9950505050505050505050565b610d73610c31565b73ffffffffffffffffffffffffffffffffffffffff163373ffffffffffffffffffffffffffffffffffffffff1614610ded5760405162461bcd60e51b815260206004820152601860248201527f476f7665726e6f723a206f6e6c79476f7665726e616e6365000000000000000060448201526064016103a5565b30610df6610c31565b73ffffffffffffffffffffffffffffffffffffffff1614610e455760008036604051610e239291906157ea565b604051809103902090505b80610e3960046123a4565b14610e4357610e2e565b505b610e4e81612461565b50565b606060028054610e60906157fa565b80601f0160208091040260200160405190810160405280929190818152602001828054610e8c906157fa565b8015610ed95780601f10610eae57610100808354040283529160200191610ed9565b820191906000526020600020905b815481529060010190602001808311610ebc57829003601f168201915b5050505050905090565b600e5460009073ffffffffffffffffffffffffffffffffffffffff163314610f4d5760405162461bcd60e51b815260206004820152601860248201527f4f6e6c79207468652061646d696e2063616e207175657565000000000000000060448201526064016103a5565b610f59858585856125ff565b95945050505050565b600080610f7186868686611cc9565b90506000610f7e82611149565b90506004816007811115610f9457610f946152e4565b1480610fb157506005816007811115610faf57610faf6152e4565b145b6110235760405162461bcd60e51b815260206004820152602160248201527f476f7665726e6f723a2070726f706f73616c206e6f742073756363657373667560448201527f6c0000000000000000000000000000000000000000000000000000000000000060648201526084016103a5565b6000828152600360205260409081902060020180547fffffffffffffffffffffffffffffffffffffffffffffffffffffffffffffff00166001179055517f712ae1383f79ac853f8d882153778e0260ef8f03b504e2866e0593e04d2b291f9061108f9084815260200190565b60405180910390a16110a482888888886128e6565b6110b182888888886129b0565b6110be8288888888612a4a565b5095945050505050565b6000610c5260065490565b604080517f150214d74d59b7d1e90c73fc22ef3d991dd0a76b046543d4d80ab92d2a50328f602082015290810186905260ff85166060820152600090819061112190610d0f90608001610cf4565b905061113e87828860405180602001604052806000815250612a9d565b979650505050505050565b6000610c6282612ac0565b60008061116386868686611cc9565b9050600061117082611149565b6007811115611181576111816152e4565b146111ce5760405162461bcd60e51b815260206004820152601c60248201527f476f7665726e6f723a20746f6f206c61746520746f2063616e63656c0000000060448201526064016103a5565b60008181526003602052604090205468010000000000000000900473ffffffffffffffffffffffffffffffffffffffff163373ffffffffffffffffffffffffffffffffffffffff16146112895760405162461bcd60e51b815260206004820152602260248201527f476f7665726e6f723a206f6e6c792070726f706f7365722063616e2063616e6360448201527f656c00000000000000000000000000000000000000000000000000000000000060648201526084016103a5565b61129586868686612c74565b9695505050505050565b60607f000000000000000000000000000000000000000000000000000000000000000073ffffffffffffffffffffffffffffffffffffffff16634bf5d7e96040518163ffffffff1660e01b815260040160006040518083038186803b15801561130757600080fd5b505afa92505050801561135a57506040513d6000823e601f3d9081017fffffffffffffffffffffffffffffffffffffffffffffffffffffffffffffffe0168201604052611357919081019061584e565b60015b611396575060408051808201909152601d81527f6d6f64653d626c6f636b6e756d6265722666726f6d3d64656661756c74000000602082015290565b919050565b6000803390506113bc84828560405180602001604052806000815250612a9d565b949350505050565b60008033905061113e87828888888080601f0160208091040260200160405190810160405280939291908181526020018383808284376000920191909152508a925061236f915050565b600b5460009080611423575050600a54919050565b6000600b6114326001846158eb565b8154811061144257611442615902565b60009182526020918290206040805180820190915291015463ffffffff81168083526401000000009091047bffffffffffffffffffffffffffffffffffffffffffffffffffffffff1692820192909252915084106114c357602001517bffffffffffffffffffffffffffffffffffffffffffffffffffffffff169392505050565b6114d76114cf8561214a565b600b90612d10565b7bffffffffffffffffffffffffffffffffffffffffffffffffffffffff16949350505050565b611505610c31565b73ffffffffffffffffffffffffffffffffffffffff163373ffffffffffffffffffffffffffffffffffffffff161461157f5760405162461bcd60e51b815260206004820152601860248201527f476f7665726e6f723a206f6e6c79476f7665726e616e6365000000000000000060448201526064016103a5565b30611588610c31565b73ffffffffffffffffffffffffffffffffffffffff16146115d757600080366040516115b59291906157ea565b604051809103902090505b806115cb60046123a4565b146115d5576115c0565b505b610e4e81612dcb565b60008033905061129586828787878080601f016020809104026020016040519081016040528093929190818152602001838380828437600092019190915250612a9d92505050565b600e5460009073ffffffffffffffffffffffffffffffffffffffff1633146116b85760405162461bcd60e51b815260206004820152602560248201527f4f6e6c79207468652061646d696e2063616e2063616c6c20746869732066756e60448201527f6374696f6e00000000000000000000000000000000000000000000000000000060648201526084016103a5565b6116c485858585612e0c565b600f81905595945050505050565b6000606080828080836117057f00000000000000000000000000000000000000000000000000000000000000008361335b565b6117307f0000000000000000000000000000000000000000000000000000000000000000600161335b565b604080516000808252602082019092527f0f000000000000000000000000000000000000000000000000000000000000009b939a50919850469750309650945092509050565b600e5473ffffffffffffffffffffffffffffffffffffffff1633146118035760405162461bcd60e51b815260206004820152602560248201527f4f6e6c79207468652061646d696e2063616e2063616c6c20746869732066756e60448201527f6374696f6e00000000000000000000000000000000000000000000000000000060648201526084016103a5565b600e805473ffffffffffffffffffffffffffffffffffffffff8381167fffffffffffffffffffffffff000000000000000000000000000000000000000083168117909355604051911691429183907f298b127acf65f3114716d859988c50114b6d094f1b9a649cf30a7af4a0fcb4ff90600090a45050565b60007f000000000000000000000000000000000000000000000000000000000000000073ffffffffffffffffffffffffffffffffffffffff166391ddadf46040518163ffffffff1660e01b815260040160206040518083038186803b1580156118e357600080fd5b505afa925050508015611931575060408051601f3d9081017fffffffffffffffffffffffffffffffffffffffffffffffffffffffffffffffe016820190925261192e91810190615931565b60015b61139657610c5243612235565b600061194b8484846133ff565b90505b9392505050565b600b546000901561198d5761196a600b6121e1565b7bffffffffffffffffffffffffffffffffffffffffffffffffffffffff16905090565b50600a5490565b61199c610c31565b73ffffffffffffffffffffffffffffffffffffffff163373ffffffffffffffffffffffffffffffffffffffff1614611a165760405162461bcd60e51b815260206004820152601860248201527f476f7665726e6f723a206f6e6c79476f7665726e616e6365000000000000000060448201526064016103a5565b30611a1f610c31565b73ffffffffffffffffffffffffffffffffffffffff1614611a6e5760008036604051611a4c9291906157ea565b604051809103902090505b80611a6260046123a4565b14611a6c57611a57565b505b610e4e816134ca565b600c546000828152600d60205260408082205490517fd45c443500000000000000000000000000000000000000000000000000000000815260048101919091529091829173ffffffffffffffffffffffffffffffffffffffff9091169063d45c44359060240160206040518083038186803b158015611af557600080fd5b505afa158015611b09573d6000803e3d6000fd5b505050506040513d601f19601f82011682018060405250810190611b2d9190615959565b905080600114611b3d578061194e565b60009392505050565b6000610c5260085490565b611b59610c31565b73ffffffffffffffffffffffffffffffffffffffff163373ffffffffffffffffffffffffffffffffffffffff1614611bd35760405162461bcd60e51b815260206004820152601860248201527f476f7665726e6f723a206f6e6c79476f7665726e616e6365000000000000000060448201526064016103a5565b30611bdc610c31565b73ffffffffffffffffffffffffffffffffffffffff1614611c2b5760008036604051611c099291906157ea565b604051809103902090505b80611c1f60046123a4565b14611c2957611c14565b505b6000808573ffffffffffffffffffffffffffffffffffffffff16858585604051611c569291906157ea565b60006040518083038185875af1925050503d8060008114611c93576040519150601f19603f3d011682016040523d82523d6000602084013e611c98565b606091505b5091509150611cc08282604051806060016040528060288152602001615dcc60289139613565565b50505050505050565b600084848484604051602001611ce29493929190615a0d565b604080517fffffffffffffffffffffffffffffffffffffffffffffffffffffffffffffffe0818403018152919052805160209091012095945050505050565b611d29610c31565b73ffffffffffffffffffffffffffffffffffffffff163373ffffffffffffffffffffffffffffffffffffffff1614611da35760405162461bcd60e51b815260206004820152601860248201527f476f7665726e6f723a206f6e6c79476f7665726e616e6365000000000000000060448201526064016103a5565b30611dac610c31565b73ffffffffffffffffffffffffffffffffffffffff1614611dfb5760008036604051611dd99291906157ea565b604051809103902090505b80611def60046123a4565b14611df957611de4565b505b610e4e8161357e565b600061194e8383613635565b611e18610c31565b73ffffffffffffffffffffffffffffffffffffffff163373ffffffffffffffffffffffffffffffffffffffff1614611e925760405162461bcd60e51b815260206004820152601860248201527f476f7665726e6f723a206f6e6c79476f7665726e616e6365000000000000000060448201526064016103a5565b30611e9b610c31565b73ffffffffffffffffffffffffffffffffffffffff1614611eea5760008036604051611ec89291906157ea565b604051809103902090505b80611ede60046123a4565b14611ee857611ed3565b505b610e4e81613656565b600e5460009073ffffffffffffffffffffffffffffffffffffffff163314611f835760405162461bcd60e51b815260206004820152602560248201527f4f6e6c79207468652061646d696e2063616e2063616c6c20746869732066756e60448201527f6374696f6e00000000000000000000000000000000000000000000000000000060648201526084016103a5565b73ffffffffffffffffffffffffffffffffffffffff83166000908152601060205260409020548211611fef5773ffffffffffffffffffffffffffffffffffffffff831660009081526010602052604081208054849290611fe49084906158eb565b909155506120439050565b73ffffffffffffffffffffffffffffffffffffffff83166000908152601060205260409020548211156120435773ffffffffffffffffffffffffffffffffffffffff83166000908152601060205260408120555b505073ffffffffffffffffffffffffffffffffffffffff1660009081526010602052604090205490565b6000610c6282613697565b60006020835110156120945761208d83613776565b9050610c62565b828281516120a59260200190614c6f565b5060ff9050610c62565b90565b60007bffffffffffffffffffffffffffffffffffffffffffffffffffffffff8211156121465760405162461bcd60e51b815260206004820152602760248201527f53616665436173743a2076616c756520646f65736e27742066697420696e203260448201527f323420626974730000000000000000000000000000000000000000000000000060648201526084016103a5565b5090565b600063ffffffff8211156121465760405162461bcd60e51b815260206004820152602660248201527f53616665436173743a2076616c756520646f65736e27742066697420696e203360448201527f322062697473000000000000000000000000000000000000000000000000000060648201526084016103a5565b6000806121d48585856137cd565b915091505b935093915050565b80546000908015611b3d57612209836121fb6001846158eb565b600091825260209091200190565b5464010000000090047bffffffffffffffffffffffffffffffffffffffffffffffffffffffff1661194e565b600065ffffffffffff8211156121465760405162461bcd60e51b815260206004820152602660248201527f53616665436173743a2076616c756520646f65736e27742066697420696e203460448201527f382062697473000000000000000000000000000000000000000000000000000060648201526084016103a5565b60007fffffffff0000000000000000000000000000000000000000000000000000000082167f6e665ced000000000000000000000000000000000000000000000000000000001480610c625750610c62826139cb565b6000610c62612316613b75565b836040517f19010000000000000000000000000000000000000000000000000000000000008152600281019290925260228201526042902090565b600080600061236287878787613cad565b915091506110be81613d9c565b3360009081526010602052604081208054600191908390612391908490615a58565b9091555061129590508686868686613f05565b60006123cc8254600f81810b700100000000000000000000000000000000909204900b131590565b15612403576040517f3db2a12a00000000000000000000000000000000000000000000000000000000815260040160405180910390fd5b508054600f0b6000818152600180840160205260408220805492905583547fffffffffffffffffffffffffffffffff000000000000000000000000000000001692016fffffffffffffffffffffffffffffffff169190911790915590565b60648111156124fe5760405162461bcd60e51b815260206004820152604360248201527f476f7665726e6f72566f74657351756f72756d4672616374696f6e3a2071756f60448201527f72756d4e756d657261746f72206f7665722071756f72756d44656e6f6d696e6160648201527f746f720000000000000000000000000000000000000000000000000000000000608482015260a4016103a5565b6000612508611955565b905080158015906125195750600b54155b15612593576040805180820190915260008152600b906020810161253c846120b2565b7bffffffffffffffffffffffffffffffffffffffffffffffffffffffff90811690915282546001810184556000938452602093849020835194909301519091166401000000000263ffffffff909316929092179101555b6125c06125ae6125a161187b565b65ffffffffffff1661214a565b6125b7846120b2565b600b91906121c6565b505060408051828152602081018490527f0553476bf02ef2726e8ce5ced78d63e26e602e4a2257b1f559418e24b4633997910160405180910390a15050565b60008061260e86868686611cc9565b9050600461261b82611149565b600781111561262c5761262c6152e4565b1461269f5760405162461bcd60e51b815260206004820152602160248201527f476f7665726e6f723a2070726f706f73616c206e6f742073756363657373667560448201527f6c0000000000000000000000000000000000000000000000000000000000000060648201526084016103a5565b600c54604080517ff27a0c92000000000000000000000000000000000000000000000000000000008152905160009273ffffffffffffffffffffffffffffffffffffffff169163f27a0c92916004808301926020929190829003018186803b15801561270a57600080fd5b505afa15801561271e573d6000803e3d6000fd5b505050506040513d601f19601f820116820180604052508101906127429190615959565b600c546040517fb1c5f42700000000000000000000000000000000000000000000000000000000815291925073ffffffffffffffffffffffffffffffffffffffff169063b1c5f427906127a2908a908a908a906000908b90600401615a70565b60206040518083038186803b1580156127ba57600080fd5b505afa1580156127ce573d6000803e3d6000fd5b505050506040513d601f19601f820116820180604052508101906127f29190615959565b6000838152600d602052604080822092909255600c5491517f8f2a0bb000000000000000000000000000000000000000000000000000000000815273ffffffffffffffffffffffffffffffffffffffff90921691638f2a0bb091612863918b918b918b91908b908990600401615abe565b600060405180830381600087803b15801561287d57600080fd5b505af1158015612891573d6000803e3d6000fd5b505050507f9a2e42fd6722813d69113e7d0079d3d940171428df7373df9c7f7617cfda28928282426128c39190615a58565b604080519283526020830191909152015b60405180910390a15095945050505050565b306128ef610c31565b73ffffffffffffffffffffffffffffffffffffffff16146129a95760005b84518110156129a7573073ffffffffffffffffffffffffffffffffffffffff1685828151811061293f5761293f615902565b602002602001015173ffffffffffffffffffffffffffffffffffffffff1614156129975761299783828151811061297857612978615902565b602002602001015180519060200120600461408c90919063ffffffff16565b6129a081615b16565b905061290d565b505b5050505050565b600e5473ffffffffffffffffffffffffffffffffffffffff163314612a3d5760405162461bcd60e51b815260206004820152602560248201527f4f6e6c79207468652061646d696e2063616e2063616c6c20746869732066756e60448201527f6374696f6e00000000000000000000000000000000000000000000000000000060648201526084016103a5565b6129a985858585856140de565b30612a53610c31565b73ffffffffffffffffffffffffffffffffffffffff16146129a957600454600f81810b700100000000000000000000000000000000909204900b13156129a95760006004556129a9565b6000610f5985858585612abb60408051602081019091526000815290565b61236f565b600080612acc83614178565b90506004816007811115612ae257612ae26152e4565b14612aed5792915050565b6000838152600d602052604090205480612b08575092915050565b600c546040517f2ab0f5290000000000000000000000000000000000000000000000000000000081526004810183905273ffffffffffffffffffffffffffffffffffffffff90911690632ab0f5299060240160206040518083038186803b158015612b7257600080fd5b505afa158015612b86573d6000803e3d6000fd5b505050506040513d601f19601f82011682018060405250810190612baa9190615b4f565b15612bb9575060079392505050565b600c546040517f584b153e0000000000000000000000000000000000000000000000000000000081526004810183905273ffffffffffffffffffffffffffffffffffffffff9091169063584b153e9060240160206040518083038186803b158015612c2357600080fd5b505afa158015612c37573d6000803e3d6000fd5b505050506040513d601f19601f82011682018060405250810190612c5b9190615b4f565b15612c6a575060059392505050565b5060029392505050565b600e5460009073ffffffffffffffffffffffffffffffffffffffff163314612d045760405162461bcd60e51b815260206004820152602560248201527f4f6e6c79207468652061646d696e2063616e2063616c6c20746869732066756e60448201527f6374696f6e00000000000000000000000000000000000000000000000000000060648201526084016103a5565b610f59858585856142b7565b815460009081816005811115612d6d576000612d2b8461438f565b612d3590856158eb565b60008881526020902090915081015463ffffffff9081169087161015612d5d57809150612d6b565b612d68816001615a58565b92505b505b6000612d7b87878585614474565b90508015612dbe57612d92876121fb6001846158eb565b5464010000000090047bffffffffffffffffffffffffffffffffffffffffffffffffffffffff1661113e565b6000979650505050505050565b60065460408051918252602082018390527fc565b045403dc03c2eea82b81a0465edad9e2e7fc4d97e11421c209da93d7a93910160405180910390a1600655565b600033612e1981846144d2565b612e655760405162461bcd60e51b815260206004820152601d60248201527f476f7665726e6f723a2070726f706f736572207265737472696374656400000060448201526064016103a5565b6000612e6f61187b565b65ffffffffffff169050612e81611b46565b612e9083610b536001856158eb565b1015612f045760405162461bcd60e51b815260206004820152603160248201527f476f7665726e6f723a2070726f706f73657220766f7465732062656c6f77207060448201527f726f706f73616c207468726573686f6c6400000000000000000000000000000060648201526084016103a5565b6000612f198888888880519060200120611cc9565b90508651885114612f925760405162461bcd60e51b815260206004820152602160248201527f476f7665726e6f723a20696e76616c69642070726f706f73616c206c656e677460448201527f680000000000000000000000000000000000000000000000000000000000000060648201526084016103a5565b85518851146130095760405162461bcd60e51b815260206004820152602160248201527f476f7665726e6f723a20696e76616c69642070726f706f73616c206c656e677460448201527f680000000000000000000000000000000000000000000000000000000000000060648201526084016103a5565b600088511161305a5760405162461bcd60e51b815260206004820152601860248201527f476f7665726e6f723a20656d7074792070726f706f73616c000000000000000060448201526064016103a5565b60008181526003602052604090205467ffffffffffffffff16156130e65760405162461bcd60e51b815260206004820152602160248201527f476f7665726e6f723a2070726f706f73616c20616c726561647920657869737460448201527f730000000000000000000000000000000000000000000000000000000000000060648201526084016103a5565b60006130f06110c8565b6130fa9084615a58565b90506000613106610c68565b6131109083615a58565b90506040518060e0016040528061312684614649565b67ffffffffffffffff16815273ffffffffffffffffffffffffffffffffffffffff871660208201526000604082015260600161316183614649565b67ffffffffffffffff9081168252600060208084018290526040808501839052606094850183905288835260038252918290208551815492870151878501519186167fffffffff00000000000000000000000000000000000000000000000000000000909416939093176801000000000000000073ffffffffffffffffffffffffffffffffffffffff9094168402177bffffffffffffffffffffffffffffffffffffffffffffffffffffffff167c010000000000000000000000000000000000000000000000000000000060e09290921c91909102178155938501516080860151908416921c0217600183015560a08301516002909201805460c0909401517fffffffffffffffffffffffffffffffffffffffffffffffffffffffffffff00009094169215157fffffffffffffffffffffffffffffffffffffffffffffffffffffffffffff00ff1692909217610100931515939093029290921790558a517f7d84a6263ae0d98d3329bd7b46bb4e8d6f98cd35a7adb45c274c8b7fd5ebd5e091859188918e918e918111156132f8576132f8614d9b565b60405190808252806020026020018201604052801561332b57816020015b60608152602001906001900390816133165790505b508d88888f60405161334599989796959493929190615b71565b60405180910390a1509098975050505050505050565b606060ff831461336e5761208d836146c9565b81805461337a906157fa565b80601f01602080910402602001604051908101604052809291908181526020018280546133a6906157fa565b80156133f35780601f106133c8576101008083540402835291602001916133f3565b820191906000526020600020905b8154815290600101906020018083116133d657829003601f168201915b50505050509050610c62565b6040517f3a46b1a800000000000000000000000000000000000000000000000000000000815273ffffffffffffffffffffffffffffffffffffffff8481166004830152602482018490526000917f000000000000000000000000000000000000000000000000000000000000000090911690633a46b1a89060440160206040518083038186803b15801561349257600080fd5b505afa1580156134a6573d6000803e3d6000fd5b505050506040513d601f19601f8201168201806040525081019061194b9190615959565b600c546040805173ffffffffffffffffffffffffffffffffffffffff928316815291831660208301527f08f74ea46ef7894f65eabfb5e6e695de773a000b47c529ab559178069b226401910160405180910390a1600c80547fffffffffffffffffffffffff00000000000000000000000000000000000000001673ffffffffffffffffffffffffffffffffffffffff92909216919091179055565b6060831561357457508161194e565b61194e8383614708565b600081116135f45760405162461bcd60e51b815260206004820152602760248201527f476f7665726e6f7253657474696e67733a20766f74696e6720706572696f642060448201527f746f6f206c6f770000000000000000000000000000000000000000000000000060648201526084016103a5565b60075460408051918252602082018390527f7e3f7f0708a84de9203036abaa450dccc85ad5ff52f78c170f3edb55cf5e8828910160405180910390a1600755565b600061194e838361365160408051602081019091526000815290565b6133ff565b60085460408051918252602082018390527fccb45da8d5717e6c4544694297c4ba5cf151d455c9bb0ed4fc7a38411bc05461910160405180910390a1600855565b600060646136a48361140e565b6040517f8e539e8c000000000000000000000000000000000000000000000000000000008152600481018590527f000000000000000000000000000000000000000000000000000000000000000073ffffffffffffffffffffffffffffffffffffffff1690638e539e8c9060240160206040518083038186803b15801561372a57600080fd5b505afa15801561373e573d6000803e3d6000fd5b505050506040513d601f19601f820116820180604052508101906137629190615959565b61376c9190615c74565b610c629190615ce0565b600080829050601f815111156137ba57826040517f305a27a90000000000000000000000000000000000000000000000000000000081526004016103a59190614ff7565b80516137c582615d1b565b179392505050565b82546000908190801561395c5760006137eb876121fb6001856158eb565b60408051808201909152905463ffffffff8082168084526401000000009092047bffffffffffffffffffffffffffffffffffffffffffffffffffffffff16602084015291925090871610156138825760405162461bcd60e51b815260206004820152601b60248201527f436865636b706f696e743a2064656372656173696e67206b657973000000000060448201526064016103a5565b8563ffffffff16816000015163ffffffff1614156138e757846138aa886121fb6001866158eb565b80547bffffffffffffffffffffffffffffffffffffffffffffffffffffffff929092166401000000000263ffffffff90921691909117905561394c565b6040805180820190915263ffffffff80881682527bffffffffffffffffffffffffffffffffffffffffffffffffffffffff80881660208085019182528b54600181018d5560008d81529190912094519151909216640100000000029216919091179101555b6020015192508391506121d99050565b50506040805180820190915263ffffffff80851682527bffffffffffffffffffffffffffffffffffffffffffffffffffffffff80851660208085019182528854600181018a5560008a8152918220955192519093166401000000000291909316179201919091559050816121d9565b60007f51159c06000000000000000000000000000000000000000000000000000000007fc6fba1f8000000000000000000000000000000000000000000000000000000007fbf26d897000000000000000000000000000000000000000000000000000000007f79dd796f000000000000000000000000000000000000000000000000000000007fffffffff000000000000000000000000000000000000000000000000000000008616821480613aa557507fffffffff00000000000000000000000000000000000000000000000000000000868116908216145b80613ad457507fffffffff00000000000000000000000000000000000000000000000000000000868116908516145b80613b2057507fffffffff0000000000000000000000000000000000000000000000000000000086167f4e2312e000000000000000000000000000000000000000000000000000000000145b8061129557507f01ffc9a7000000000000000000000000000000000000000000000000000000007fffffffff000000000000000000000000000000000000000000000000000000008716149695505050505050565b60003073ffffffffffffffffffffffffffffffffffffffff7f000000000000000000000000000000000000000000000000000000000000000016148015613bdb57507f000000000000000000000000000000000000000000000000000000000000000046145b15613c0557507f000000000000000000000000000000000000000000000000000000000000000090565b610c52604080517f8b73c3c69bb8fe3d512ecc4cf759cc79239f7b179b0ffacaa9a75d522b39400f60208201527f0000000000000000000000000000000000000000000000000000000000000000918101919091527f000000000000000000000000000000000000000000000000000000000000000060608201524660808201523060a082015260009060c00160405160208183030381529060405280519060200120905090565b6000807f7fffffffffffffffffffffffffffffff5d576e7357a4501ddfe92f46681b20a0831115613ce45750600090506003613d93565b6040805160008082526020820180845289905260ff881692820192909252606081018690526080810185905260019060a0016020604051602081039080840390855afa158015613d38573d6000803e3d6000fd5b50506040517fffffffffffffffffffffffffffffffffffffffffffffffffffffffffffffffe0015191505073ffffffffffffffffffffffffffffffffffffffff8116613d8c57600060019250925050613d93565b9150600090505b94509492505050565b6000816004811115613db057613db06152e4565b1415613db95750565b6001816004811115613dcd57613dcd6152e4565b1415613e1b5760405162461bcd60e51b815260206004820152601860248201527f45434453413a20696e76616c6964207369676e6174757265000000000000000060448201526064016103a5565b6002816004811115613e2f57613e2f6152e4565b1415613e7d5760405162461bcd60e51b815260206004820152601f60248201527f45434453413a20696e76616c6964207369676e6174757265206c656e6774680060448201526064016103a5565b6003816004811115613e9157613e916152e4565b1415610e4e5760405162461bcd60e51b815260206004820152602260248201527f45434453413a20696e76616c6964207369676e6174757265202773272076616c60448201527f756500000000000000000000000000000000000000000000000000000000000060648201526084016103a5565b60008581526003602052604081206001613f1e88611149565b6007811115613f2f57613f2f6152e4565b14613fa25760405162461bcd60e51b815260206004820152602360248201527f476f7665726e6f723a20766f7465206e6f742063757272656e746c792061637460448201527f697665000000000000000000000000000000000000000000000000000000000060648201526084016103a5565b8054600090613fbd90889067ffffffffffffffff16866133ff565b9050613fcc8888888488614732565b835161402b578673ffffffffffffffffffffffffffffffffffffffff167fb8e138887d0aa13bab447e82de9d5c1777041ecd21ca36ba824ff1e6c07ddda48988848960405161401e9493929190615d5d565b60405180910390a261113e565b8673ffffffffffffffffffffffffffffffffffffffff167fe2babfbac5889a709b63bb7f598b324e08bc5a4fb9ec647fb3cbc9ec07eb87128988848989604051614079959493929190615d85565b60405180910390a2979650505050505050565b815470010000000000000000000000000000000090819004600f0b6000818152600180860160205260409091209390935583546fffffffffffffffffffffffffffffffff908116939091011602179055565b600c546040517fe38335e500000000000000000000000000000000000000000000000000000000815273ffffffffffffffffffffffffffffffffffffffff9091169063e38335e590349061413f908890889088906000908990600401615a70565b6000604051808303818588803b15801561415857600080fd5b505af115801561416c573d6000803e3d6000fd5b50505050505050505050565b6000818152600360205260408120600281015460ff161561419c5750600792915050565b6002810154610100900460ff16156141b75750600292915050565b60008381526003602052604090205467ffffffffffffffff168061421d5760405162461bcd60e51b815260206004820152601d60248201527f476f7665726e6f723a20756e6b6e6f776e2070726f706f73616c20696400000060448201526064016103a5565b600061422761187b565b65ffffffffffff16905080821061424357506000949350505050565b60008581526003602052604090206001015467ffffffffffffffff168181106142725750600195945050505050565b61427b86614907565b801561429a575060008681526009602052604090208054600190910154115b156142ab5750600495945050505050565b50600395945050505050565b6000806142c686868686614954565b6000818152600d602052604090205490915015610f5957600c546000828152600d6020526040908190205490517fc4d252f500000000000000000000000000000000000000000000000000000000815273ffffffffffffffffffffffffffffffffffffffff9092169163c4d252f5916143459160040190815260200190565b600060405180830381600087803b15801561435f57600080fd5b505af1158015614373573d6000803e3d6000fd5b5050506000828152600d60205260408120555095945050505050565b60008161439e57506000919050565b600060016143ab84614a7d565b901c6001901b905060018184816143c4576143c4615cb1565b048201901c905060018184816143dc576143dc615cb1565b048201901c905060018184816143f4576143f4615cb1565b048201901c9050600181848161440c5761440c615cb1565b048201901c9050600181848161442457614424615cb1565b048201901c9050600181848161443c5761443c615cb1565b048201901c9050600181848161445457614454615cb1565b048201901c905061194e8182858161446e5761446e615cb1565b04614b11565b60005b818310156144ca57600061448b8484614b27565b60008781526020902090915063ffffffff86169082015463ffffffff1611156144b6578092506144c4565b6144c1816001615a58565b93505b50614477565b509392505050565b805160009060348110156144ea576001915050610c62565b8281017fffffffffffffffffffffffffffffffffffffffffffffffffffffffffffffffec01517fffffffffffffffffffffffff000000000000000000000000000000000000000081167f2370726f706f7365723d307800000000000000000000000000000000000000001461456457600192505050610c62565b6000806145726028856158eb565b90505b8381101561460e576000806145c188848151811061459557614595615902565b01602001517fff0000000000000000000000000000000000000000000000000000000000000016614b42565b91509150816145d95760019650505050505050610c62565b8060ff1660048573ffffffffffffffffffffffffffffffffffffffff16901b17935050508061460790615b16565b9050614575565b508573ffffffffffffffffffffffffffffffffffffffff168173ffffffffffffffffffffffffffffffffffffffff1614935050505092915050565b600067ffffffffffffffff8211156121465760405162461bcd60e51b815260206004820152602660248201527f53616665436173743a2076616c756520646f65736e27742066697420696e203660448201527f342062697473000000000000000000000000000000000000000000000000000060648201526084016103a5565b606060006146d683614c2e565b604080516020808252818301909252919250600091906020820181803683375050509182525060208101929092525090565b8151156147185781518083602001fd5b8060405162461bcd60e51b81526004016103a59190614ff7565b600085815260096020908152604080832073ffffffffffffffffffffffffffffffffffffffff88168452600381019092529091205460ff16156147dd5760405162461bcd60e51b815260206004820152602760248201527f476f7665726e6f72566f74696e6753696d706c653a20766f746520616c72656160448201527f647920636173740000000000000000000000000000000000000000000000000060648201526084016103a5565b73ffffffffffffffffffffffffffffffffffffffff85166000908152600382016020526040812080547fffffffffffffffffffffffffffffffffffffffffffffffffffffffffffffff0016600117905560ff168460ff161415614859578281600001600082825461484e9190615a58565b909155506129a79050565b60ff841660011415614879578281600101600082825461484e9190615a58565b60ff841660021415614899578281600201600082825461484e9190615a58565b60405162461bcd60e51b815260206004820152603560248201527f476f7665726e6f72566f74696e6753696d706c653a20696e76616c696420766160448201527f6c756520666f7220656e756d20566f746554797065000000000000000000000060648201526084016103a5565b6000818152600960205260408120600281015460018201546149299190615a58565b60008481526003602052604090205461494b9067ffffffffffffffff1661206d565b11159392505050565b60008061496386868686611cc9565b9050600061497082611149565b90506002816007811115614986576149866152e4565b141580156149a6575060068160078111156149a3576149a36152e4565b14155b80156149c4575060078160078111156149c1576149c16152e4565b14155b614a105760405162461bcd60e51b815260206004820152601d60248201527f476f7665726e6f723a2070726f706f73616c206e6f742061637469766500000060448201526064016103a5565b6000828152600360205260409081902060020180547fffffffffffffffffffffffffffffffffffffffffffffffffffffffffffff00ff16610100179055517f789cf55be980739dad1d0699b93b58e806b51c9d96619bfa8fe0a28abaa7b30c906128d49084815260200190565b600080608083901c15614a9257608092831c92015b604083901c15614aa457604092831c92015b602083901c15614ab657602092831c92015b601083901c15614ac857601092831c92015b600883901c15614ada57600892831c92015b600483901c15614aec57600492831c92015b600283901c15614afe57600292831c92015b600183901c15610c625760010192915050565b6000818310614b20578161194e565b5090919050565b6000614b366002848418615ce0565b61194e90848416615a58565b60008060f883901c602f81118015614b5d5750603a8160ff16105b15614b90576001947fffffffffffffffffffffffffffffffffffffffffffffffffffffffffffffffd09091019350915050565b8060ff166040108015614ba6575060478160ff16105b15614bd9576001947fffffffffffffffffffffffffffffffffffffffffffffffffffffffffffffffc99091019350915050565b8060ff166060108015614bef575060678160ff16105b15614c22576001947fffffffffffffffffffffffffffffffffffffffffffffffffffffffffffffffa99091019350915050565b50600093849350915050565b600060ff8216601f811115610c62576040517fb3512b0c00000000000000000000000000000000000000000000000000000000815260040160405180910390fd5b828054614c7b906157fa565b90600052602060002090601f016020900481019282614c9d5760008555614ce3565b82601f10614cb657805160ff1916838001178555614ce3565b82800160010185558215614ce3579182015b82811115614ce3578251825591602001919060010190614cc8565b506121469291505b808211156121465760008155600101614ceb565b600060208284031215614d1157600080fd5b81357fffffffff000000000000000000000000000000000000000000000000000000008116811461194e57600080fd5b803560ff8116811461139657600080fd5b60008083601f840112614d6457600080fd5b50813567ffffffffffffffff811115614d7c57600080fd5b602083019150836020828501011115614d9457600080fd5b9250929050565b7f4e487b7100000000000000000000000000000000000000000000000000000000600052604160045260246000fd5b604051601f82017fffffffffffffffffffffffffffffffffffffffffffffffffffffffffffffffe016810167ffffffffffffffff81118282101715614e1157614e11614d9b565b604052919050565b600067ffffffffffffffff821115614e3357614e33614d9b565b50601f017fffffffffffffffffffffffffffffffffffffffffffffffffffffffffffffffe01660200190565b6000614e72614e6d84614e19565b614dca565b9050828152838383011115614e8657600080fd5b828260208301376000602084830101529392505050565b600082601f830112614eae57600080fd5b61194e83833560208501614e5f565b60008060008060008060008060e0898b031215614ed957600080fd5b88359750614ee960208a01614d41565b9650604089013567ffffffffffffffff80821115614f0657600080fd5b614f128c838d01614d52565b909850965060608b0135915080821115614f2b57600080fd5b50614f388b828c01614e9d565b945050614f4760808a01614d41565b925060a0890135915060c089013590509295985092959890939650565b600060208284031215614f7657600080fd5b5035919050565b60005b83811015614f98578181015183820152602001614f80565b83811115614fa7576000848401525b50505050565b60008151808452614fc5816020860160208601614f7d565b601f017fffffffffffffffffffffffffffffffffffffffffffffffffffffffffffffffe0169290920160200192915050565b60208152600061194e6020830184614fad565b73ffffffffffffffffffffffffffffffffffffffff81168114610e4e57600080fd5b6000806000806080858703121561504257600080fd5b843561504d8161500a565b9350602085013561505d8161500a565b925060408501359150606085013567ffffffffffffffff81111561508057600080fd5b61508c87828801614e9d565b91505092959194509250565b600067ffffffffffffffff8211156150b2576150b2614d9b565b5060051b60200190565b600082601f8301126150cd57600080fd5b813560206150dd614e6d83615098565b82815260059290921b840181019181810190868411156150fc57600080fd5b8286015b848110156151205780356151138161500a565b8352918301918301615100565b509695505050505050565b600082601f83011261513c57600080fd5b8135602061514c614e6d83615098565b82815260059290921b8401810191818101908684111561516b57600080fd5b8286015b84811015615120578035835291830191830161516f565b600082601f83011261519757600080fd5b813560206151a7614e6d83615098565b82815260059290921b840181019181810190868411156151c657600080fd5b8286015b8481101561512057803567ffffffffffffffff8111156151ea5760008081fd5b6151f88986838b0101614e9d565b8452509183019183016151ca565b6000806000806080858703121561521c57600080fd5b843567ffffffffffffffff8082111561523457600080fd5b615240888389016150bc565b9550602087013591508082111561525657600080fd5b6152628883890161512b565b9450604087013591508082111561527857600080fd5b5061528587828801615186565b949793965093946060013593505050565b600080600080600060a086880312156152ae57600080fd5b853594506152be60208701614d41565b93506152cc60408701614d41565b94979396509394606081013594506080013592915050565b7f4e487b7100000000000000000000000000000000000000000000000000000000600052602160045260246000fd5b602081016008831061534e577f4e487b7100000000000000000000000000000000000000000000000000000000600052602160045260246000fd5b91905290565b6000806040838503121561536757600080fd5b8235915060208301356153798161500a565b809150509250929050565b6000806040838503121561539757600080fd5b823591506153a760208401614d41565b90509250929050565b6000806000806000608086880312156153c857600080fd5b853594506153d860208701614d41565b9350604086013567ffffffffffffffff808211156153f557600080fd5b61540189838a01614d52565b9095509350606088013591508082111561541a57600080fd5b5061542788828901614e9d565b9150509295509295909350565b60006020828403121561544657600080fd5b813561194e8161500a565b6000806000806060858703121561546757600080fd5b8435935061547760208601614d41565b9250604085013567ffffffffffffffff81111561549357600080fd5b61549f87828801614d52565b95989497509550505050565b600080600080608085870312156154c157600080fd5b843567ffffffffffffffff808211156154d957600080fd5b6154e5888389016150bc565b955060208701359150808211156154fb57600080fd5b6155078883890161512b565b9450604087013591508082111561551d57600080fd5b61552988838901615186565b9350606087013591508082111561553f57600080fd5b508501601f8101871361555157600080fd5b61508c87823560208401614e5f565b600081518084526020808501945080840160005b8381101561559057815187529582019590820190600101615574565b509495945050505050565b7fff000000000000000000000000000000000000000000000000000000000000008816815260e0602082015260006155d660e0830189614fad565b82810360408401526155e88189614fad565b905086606084015273ffffffffffffffffffffffffffffffffffffffff861660808401528460a084015282810360c0840152610d5d8185615560565b60008060006060848603121561563957600080fd5b83356156448161500a565b925060208401359150604084013567ffffffffffffffff81111561566757600080fd5b61567386828701614e9d565b9150509250925092565b600080600080600060a0868803121561569557600080fd5b85356156a08161500a565b945060208601356156b08161500a565b9350604086013567ffffffffffffffff808211156156cd57600080fd5b6156d989838a0161512b565b945060608801359150808211156156ef57600080fd5b6156fb89838a0161512b565b9350608088013591508082111561541a57600080fd5b6000806000806060858703121561572757600080fd5b84356157328161500a565b935060208501359250604085013567ffffffffffffffff81111561549357600080fd5b6000806040838503121561576857600080fd5b82356157738161500a565b946020939093013593505050565b600080600080600060a0868803121561579957600080fd5b85356157a48161500a565b945060208601356157b48161500a565b93506040860135925060608601359150608086013567ffffffffffffffff8111156157de57600080fd5b61542788828901614e9d565b8183823760009101908152919050565b600181811c9082168061580e57607f821691505b60208210811415615848577f4e487b7100000000000000000000000000000000000000000000000000000000600052602260045260246000fd5b50919050565b60006020828403121561586057600080fd5b815167ffffffffffffffff81111561587757600080fd5b8201601f8101841361588857600080fd5b8051615896614e6d82614e19565b8181528560208385010111156158ab57600080fd5b610f59826020830160208601614f7d565b7f4e487b7100000000000000000000000000000000000000000000000000000000600052601160045260246000fd5b6000828210156158fd576158fd6158bc565b500390565b7f4e487b7100000000000000000000000000000000000000000000000000000000600052603260045260246000fd5b60006020828403121561594357600080fd5b815165ffffffffffff8116811461194e57600080fd5b60006020828403121561596b57600080fd5b5051919050565b600081518084526020808501945080840160005b8381101561559057815173ffffffffffffffffffffffffffffffffffffffff1687529582019590820190600101615986565b600081518084526020808501808196508360051b8101915082860160005b85811015615a005782840389526159ee848351614fad565b988501989350908401906001016159d6565b5091979650505050505050565b608081526000615a206080830187615972565b8281036020840152615a328187615560565b90508281036040840152615a4681866159b8565b91505082606083015295945050505050565b60008219821115615a6b57615a6b6158bc565b500190565b60a081526000615a8360a0830188615972565b8281036020840152615a958188615560565b90508281036040840152615aa981876159b8565b60608401959095525050608001529392505050565b60c081526000615ad160c0830189615972565b8281036020840152615ae38189615560565b90508281036040840152615af781886159b8565b60608401969096525050608081019290925260a0909101529392505050565b60007fffffffffffffffffffffffffffffffffffffffffffffffffffffffffffffffff821415615b4857615b486158bc565b5060010190565b600060208284031215615b6157600080fd5b8151801515811461194e57600080fd5b60006101208b8352602073ffffffffffffffffffffffffffffffffffffffff8c1681850152816040850152615ba88285018c615972565b91508382036060850152615bbc828b615560565b915083820360808501528189518084528284019150828160051b850101838c0160005b83811015615c2b577fffffffffffffffffffffffffffffffffffffffffffffffffffffffffffffffe0878403018552615c19838351614fad565b94860194925090850190600101615bdf565b505086810360a0880152615c3f818c6159b8565b9450505050508560c08401528460e0840152828103610100840152615c648185614fad565b9c9b505050505050505050505050565b6000817fffffffffffffffffffffffffffffffffffffffffffffffffffffffffffffffff0483118215151615615cac57615cac6158bc565b500290565b7f4e487b7100000000000000000000000000000000000000000000000000000000600052601260045260246000fd5b600082615d16577f4e487b7100000000000000000000000000000000000000000000000000000000600052601260045260246000fd5b500490565b80516020808301519190811015615848577fffffffffffffffffffffffffffffffffffffffffffffffffffffffffffffffff60209190910360031b1b16919050565b84815260ff841660208201528260408201526080606082015260006112956080830184614fad565b85815260ff8516602082015283604082015260a060608201526000615dad60a0830185614fad565b8281036080840152615dbf8185614fad565b9897505050505050505056fe476f7665726e6f723a2072656c617920726576657274656420776974686f7574206d657373616765a2646970667358221220e4ed0b3f5590b2b523fb847ef2a1de4f85ae041408064e9cfe46ab6302a5700f64736f6c63430008090033",
  "devdoc": {
    "errors": {
      "Empty()": [
        {
          "details": "An operation (e.g. {front}) couldn't be completed due to the queue being empty."
        }
      ]
    },
    "kind": "dev",
    "methods": {
      "CLOCK_MODE()": {
        "details": "Machine-readable description of the clock as specified in EIP-6372."
      },
      "COUNTING_MODE()": {
        "details": "See {IGovernor-COUNTING_MODE}."
      },
      "cancel(address[],uint256[],bytes[],bytes32)": {
        "details": "See {IGovernor-cancel}."
      },
      "castVote(uint256,uint8)": {
        "details": "See {IGovernor-castVote}."
      },
      "castVoteBySig(uint256,uint8,uint8,bytes32,bytes32)": {
        "details": "See {IGovernor-castVoteBySig}."
      },
      "castVoteWithReason(uint256,uint8,string)": {
        "details": "See {IGovernor-castVoteWithReason}."
      },
      "castVoteWithReasonAndParams(uint256,uint8,string,bytes)": {
        "details": "See {IGovernor-castVoteWithReasonAndParams}."
      },
      "castVoteWithReasonAndParamsBySig(uint256,uint8,string,bytes,uint8,bytes32,bytes32)": {
        "details": "See {IGovernor-castVoteWithReasonAndParamsBySig}."
      },
      "clock()": {
        "details": "Clock (as specified in EIP-6372) is set to match the token's clock. Fallback to block numbers if the token does not implement EIP-6372."
      },
      "eip712Domain()": {
        "details": "See {EIP-5267}. _Available since v4.9._"
      },
      "execute(address[],uint256[],bytes[],bytes32)": {
        "details": "See {IGovernor-execute}."
      },
      "getVotesWithParams(address,uint256,bytes)": {
        "details": "See {IGovernor-getVotesWithParams}."
      },
      "hasVoted(uint256,address)": {
        "details": "See {IGovernor-hasVoted}."
      },
      "hashProposal(address[],uint256[],bytes[],bytes32)": {
        "details": "See {IGovernor-hashProposal}. The proposal id is produced by hashing the ABI encoded `targets` array, the `values` array, the `calldatas` array and the descriptionHash (bytes32 which itself is the keccak256 hash of the description string). This proposal id can be produced from the proposal data which is part of the {ProposalCreated} event. It can even be computed in advance, before the proposal is submitted. Note that the chainId and the governor address are not part of the proposal id computation. Consequently, the same proposal (with same operation and same description) will have the same id if submitted on multiple governors across multiple networks. This also means that in order to execute the same operation twice (on the same governor) the proposer will have to change the description in order to avoid proposal id conflicts."
      },
      "name()": {
        "details": "See {IGovernor-name}."
      },
      "onERC1155BatchReceived(address,address,uint256[],uint256[],bytes)": {
        "details": "See {IERC1155Receiver-onERC1155BatchReceived}."
      },
      "onERC1155Received(address,address,uint256,uint256,bytes)": {
        "details": "See {IERC1155Receiver-onERC1155Received}."
      },
      "onERC721Received(address,address,uint256,bytes)": {
        "details": "See {IERC721Receiver-onERC721Received}."
      },
      "proposalDeadline(uint256)": {
        "details": "See {IGovernor-proposalDeadline}."
      },
      "proposalEta(uint256)": {
        "details": "Public accessor to check the eta of a queued proposal"
      },
      "proposalProposer(uint256)": {
        "details": "Returns the account that created a given proposal."
      },
      "proposalSnapshot(uint256)": {
        "details": "See {IGovernor-proposalSnapshot}."
      },
      "proposalVotes(uint256)": {
        "details": "Accessor to the internal vote counts."
      },
      "queue(address[],uint256[],bytes[],bytes32)": {
        "details": "Function to queue a proposal to the timelock."
      },
      "quorumDenominator()": {
        "details": "Returns the quorum denominator. Defaults to 100, but may be overridden."
      },
      "quorumNumerator()": {
        "details": "Returns the current quorum numerator. See {quorumDenominator}."
      },
      "quorumNumerator(uint256)": {
        "details": "Returns the quorum numerator at a specific timepoint. See {quorumDenominator}."
      },
      "relay(address,uint256,bytes)": {
        "details": "Relays a transaction or function call to an arbitrary target. In cases where the governance executor is some contract other than the governor itself, like when using a timelock, this function can be invoked in a governance proposal to recover tokens or Ether that was sent to the governor contract by mistake. Note that if the executor is simply the governor itself, use of `relay` is redundant."
      },
      "setProposalThreshold(uint256)": {
        "details": "Update the proposal threshold. This operation can only be performed through a governance proposal. Emits a {ProposalThresholdSet} event."
      },
      "setVotingDelay(uint256)": {
        "details": "Update the voting delay. This operation can only be performed through a governance proposal. Emits a {VotingDelaySet} event."
      },
      "setVotingPeriod(uint256)": {
        "details": "Update the voting period. This operation can only be performed through a governance proposal. Emits a {VotingPeriodSet} event."
      },
      "timelock()": {
        "details": "Public accessor to check the address of the timelock"
      },
      "updateQuorumNumerator(uint256)": {
        "details": "Changes the quorum numerator. Emits a {QuorumNumeratorUpdated} event. Requirements: - Must be called through a governance proposal. - New numerator must be smaller or equal to the denominator."
      },
      "updateTimelock(address)": {
        "details": "Public endpoint to update the underlying timelock instance. Restricted to the timelock itself, so updates must be proposed, scheduled, and executed through governance proposals. CAUTION: It is not recommended to change the timelock while there are other queued governance proposals."
      },
      "version()": {
        "details": "See {IGovernor-version}."
      }
    },
    "version": 1
  },
  "userdoc": {
    "kind": "user",
    "methods": {},
    "version": 1
  },
  "storageLayout": {
    "storage": [
      {
        "astId": 11470,
        "contract": "contracts/governance_standard/GovernorContract.sol:GovernorContract",
        "label": "_nameFallback",
        "offset": 0,
        "slot": "0",
        "type": "t_string_storage"
      },
      {
        "astId": 11472,
        "contract": "contracts/governance_standard/GovernorContract.sol:GovernorContract",
        "label": "_versionFallback",
        "offset": 0,
        "slot": "1",
        "type": "t_string_storage"
      },
      {
        "astId": 557,
        "contract": "contracts/governance_standard/GovernorContract.sol:GovernorContract",
        "label": "_name",
        "offset": 0,
        "slot": "2",
        "type": "t_string_storage"
      },
      {
        "astId": 563,
        "contract": "contracts/governance_standard/GovernorContract.sol:GovernorContract",
        "label": "_proposals",
        "offset": 0,
        "slot": "3",
        "type": "t_mapping(t_uint256,t_struct(ProposalCore)555_storage)"
      },
      {
        "astId": 566,
        "contract": "contracts/governance_standard/GovernorContract.sol:GovernorContract",
        "label": "_governanceCall",
        "offset": 0,
        "slot": "4",
        "type": "t_struct(Bytes32Deque)14211_storage"
      },
      {
        "astId": 3602,
        "contract": "contracts/governance_standard/GovernorContract.sol:GovernorContract",
        "label": "_votingDelay",
        "offset": 0,
        "slot": "6",
        "type": "t_uint256"
      },
      {
        "astId": 3604,
        "contract": "contracts/governance_standard/GovernorContract.sol:GovernorContract",
        "label": "_votingPeriod",
        "offset": 0,
        "slot": "7",
        "type": "t_uint256"
      },
      {
        "astId": 3606,
        "contract": "contracts/governance_standard/GovernorContract.sol:GovernorContract",
        "label": "_proposalThreshold",
        "offset": 0,
        "slot": "8",
        "type": "t_uint256"
      },
      {
        "astId": 3394,
        "contract": "contracts/governance_standard/GovernorContract.sol:GovernorContract",
        "label": "_proposalVotes",
        "offset": 0,
        "slot": "9",
        "type": "t_mapping(t_uint256,t_struct(ProposalVote)3389_storage)"
      },
      {
        "astId": 4260,
        "contract": "contracts/governance_standard/GovernorContract.sol:GovernorContract",
        "label": "_quorumNumerator",
        "offset": 0,
        "slot": "10",
        "type": "t_uint256"
      },
      {
        "astId": 4264,
        "contract": "contracts/governance_standard/GovernorContract.sol:GovernorContract",
        "label": "_quorumNumeratorHistory",
        "offset": 0,
        "slot": "11",
        "type": "t_struct(Trace224)9420_storage"
      },
      {
        "astId": 3785,
        "contract": "contracts/governance_standard/GovernorContract.sol:GovernorContract",
        "label": "_timelock",
        "offset": 0,
        "slot": "12",
        "type": "t_contract(TimelockController)3368"
      },
      {
        "astId": 3789,
        "contract": "contracts/governance_standard/GovernorContract.sol:GovernorContract",
        "label": "_timelockIds",
        "offset": 0,
        "slot": "13",
        "type": "t_mapping(t_uint256,t_bytes32)"
      },
      {
        "astId": 14694,
        "contract": "contracts/governance_standard/GovernorContract.sol:GovernorContract",
        "label": "s_admin",
        "offset": 0,
        "slot": "14",
        "type": "t_address"
      },
      {
        "astId": 14696,
        "contract": "contracts/governance_standard/GovernorContract.sol:GovernorContract",
        "label": "s_lastProposal",
        "offset": 0,
        "slot": "15",
        "type": "t_uint256"
      },
      {
        "astId": 14700,
        "contract": "contracts/governance_standard/GovernorContract.sol:GovernorContract",
        "label": "userVotes",
        "offset": 0,
        "slot": "16",
        "type": "t_mapping(t_address,t_uint256)"
      }
    ],
    "types": {
      "t_address": {
        "encoding": "inplace",
        "label": "address",
        "numberOfBytes": "20"
      },
      "t_array(t_struct(Checkpoint224)9425_storage)dyn_storage": {
        "base": "t_struct(Checkpoint224)9425_storage",
        "encoding": "dynamic_array",
        "label": "struct Checkpoints.Checkpoint224[]",
        "numberOfBytes": "32"
      },
      "t_bool": {
        "encoding": "inplace",
        "label": "bool",
        "numberOfBytes": "1"
      },
      "t_bytes24": {
        "encoding": "inplace",
        "label": "bytes24",
        "numberOfBytes": "24"
      },
      "t_bytes32": {
        "encoding": "inplace",
        "label": "bytes32",
        "numberOfBytes": "32"
      },
      "t_bytes4": {
        "encoding": "inplace",
        "label": "bytes4",
        "numberOfBytes": "4"
      },
      "t_contract(TimelockController)3368": {
        "encoding": "inplace",
        "label": "contract TimelockController",
        "numberOfBytes": "20"
      },
      "t_int128": {
        "encoding": "inplace",
        "label": "int128",
        "numberOfBytes": "16"
      },
      "t_mapping(t_address,t_bool)": {
        "encoding": "mapping",
        "key": "t_address",
        "label": "mapping(address => bool)",
        "numberOfBytes": "32",
        "value": "t_bool"
      },
      "t_mapping(t_address,t_uint256)": {
        "encoding": "mapping",
        "key": "t_address",
        "label": "mapping(address => uint256)",
        "numberOfBytes": "32",
        "value": "t_uint256"
      },
      "t_mapping(t_int128,t_bytes32)": {
        "encoding": "mapping",
        "key": "t_int128",
        "label": "mapping(int128 => bytes32)",
        "numberOfBytes": "32",
        "value": "t_bytes32"
      },
      "t_mapping(t_uint256,t_bytes32)": {
        "encoding": "mapping",
        "key": "t_uint256",
        "label": "mapping(uint256 => bytes32)",
        "numberOfBytes": "32",
        "value": "t_bytes32"
      },
      "t_mapping(t_uint256,t_struct(ProposalCore)555_storage)": {
        "encoding": "mapping",
        "key": "t_uint256",
        "label": "mapping(uint256 => struct Governor.ProposalCore)",
        "numberOfBytes": "32",
        "value": "t_struct(ProposalCore)555_storage"
      },
      "t_mapping(t_uint256,t_struct(ProposalVote)3389_storage)": {
        "encoding": "mapping",
        "key": "t_uint256",
        "label": "mapping(uint256 => struct GovernorCountingSimple.ProposalVote)",
        "numberOfBytes": "32",
        "value": "t_struct(ProposalVote)3389_storage"
      },
      "t_string_storage": {
        "encoding": "bytes",
        "label": "string",
        "numberOfBytes": "32"
      },
      "t_struct(Bytes32Deque)14211_storage": {
        "encoding": "inplace",
        "label": "struct DoubleEndedQueue.Bytes32Deque",
        "members": [
          {
            "astId": 14204,
            "contract": "contracts/governance_standard/GovernorContract.sol:GovernorContract",
            "label": "_begin",
            "offset": 0,
            "slot": "0",
            "type": "t_int128"
          },
          {
            "astId": 14206,
            "contract": "contracts/governance_standard/GovernorContract.sol:GovernorContract",
            "label": "_end",
            "offset": 16,
            "slot": "0",
            "type": "t_int128"
          },
          {
            "astId": 14210,
            "contract": "contracts/governance_standard/GovernorContract.sol:GovernorContract",
            "label": "_data",
            "offset": 0,
            "slot": "1",
            "type": "t_mapping(t_int128,t_bytes32)"
          }
        ],
        "numberOfBytes": "64"
      },
      "t_struct(Checkpoint224)9425_storage": {
        "encoding": "inplace",
        "label": "struct Checkpoints.Checkpoint224",
        "members": [
          {
            "astId": 9422,
            "contract": "contracts/governance_standard/GovernorContract.sol:GovernorContract",
            "label": "_key",
            "offset": 0,
            "slot": "0",
            "type": "t_uint32"
          },
          {
            "astId": 9424,
            "contract": "contracts/governance_standard/GovernorContract.sol:GovernorContract",
            "label": "_value",
            "offset": 4,
            "slot": "0",
            "type": "t_uint224"
          }
        ],
        "numberOfBytes": "32"
      },
      "t_struct(ProposalCore)555_storage": {
        "encoding": "inplace",
        "label": "struct Governor.ProposalCore",
        "members": [
          {
            "astId": 542,
            "contract": "contracts/governance_standard/GovernorContract.sol:GovernorContract",
            "label": "voteStart",
            "offset": 0,
            "slot": "0",
            "type": "t_uint64"
          },
          {
            "astId": 544,
            "contract": "contracts/governance_standard/GovernorContract.sol:GovernorContract",
            "label": "proposer",
            "offset": 8,
            "slot": "0",
            "type": "t_address"
          },
          {
            "astId": 546,
            "contract": "contracts/governance_standard/GovernorContract.sol:GovernorContract",
            "label": "__gap_unused0",
            "offset": 28,
            "slot": "0",
            "type": "t_bytes4"
          },
          {
            "astId": 548,
            "contract": "contracts/governance_standard/GovernorContract.sol:GovernorContract",
            "label": "voteEnd",
            "offset": 0,
            "slot": "1",
            "type": "t_uint64"
          },
          {
            "astId": 550,
            "contract": "contracts/governance_standard/GovernorContract.sol:GovernorContract",
            "label": "__gap_unused1",
            "offset": 8,
            "slot": "1",
            "type": "t_bytes24"
          },
          {
            "astId": 552,
            "contract": "contracts/governance_standard/GovernorContract.sol:GovernorContract",
            "label": "executed",
            "offset": 0,
            "slot": "2",
            "type": "t_bool"
          },
          {
            "astId": 554,
            "contract": "contracts/governance_standard/GovernorContract.sol:GovernorContract",
            "label": "canceled",
            "offset": 1,
            "slot": "2",
            "type": "t_bool"
          }
        ],
        "numberOfBytes": "96"
      },
      "t_struct(ProposalVote)3389_storage": {
        "encoding": "inplace",
        "label": "struct GovernorCountingSimple.ProposalVote",
        "members": [
          {
            "astId": 3380,
            "contract": "contracts/governance_standard/GovernorContract.sol:GovernorContract",
            "label": "againstVotes",
            "offset": 0,
            "slot": "0",
            "type": "t_uint256"
          },
          {
            "astId": 3382,
            "contract": "contracts/governance_standard/GovernorContract.sol:GovernorContract",
            "label": "forVotes",
            "offset": 0,
            "slot": "1",
            "type": "t_uint256"
          },
          {
            "astId": 3384,
            "contract": "contracts/governance_standard/GovernorContract.sol:GovernorContract",
            "label": "abstainVotes",
            "offset": 0,
            "slot": "2",
            "type": "t_uint256"
          },
          {
            "astId": 3388,
            "contract": "contracts/governance_standard/GovernorContract.sol:GovernorContract",
            "label": "hasVoted",
            "offset": 0,
            "slot": "3",
            "type": "t_mapping(t_address,t_bool)"
          }
        ],
        "numberOfBytes": "128"
      },
      "t_struct(Trace224)9420_storage": {
        "encoding": "inplace",
        "label": "struct Checkpoints.Trace224",
        "members": [
          {
            "astId": 9419,
            "contract": "contracts/governance_standard/GovernorContract.sol:GovernorContract",
            "label": "_checkpoints",
            "offset": 0,
            "slot": "0",
            "type": "t_array(t_struct(Checkpoint224)9425_storage)dyn_storage"
          }
        ],
        "numberOfBytes": "32"
      },
      "t_uint224": {
        "encoding": "inplace",
        "label": "uint224",
        "numberOfBytes": "28"
      },
      "t_uint256": {
        "encoding": "inplace",
        "label": "uint256",
        "numberOfBytes": "32"
      },
      "t_uint32": {
        "encoding": "inplace",
        "label": "uint32",
        "numberOfBytes": "4"
      },
      "t_uint64": {
        "encoding": "inplace",
        "label": "uint64",
        "numberOfBytes": "8"
      }
    }
  }
}