{
  "address": "0x97c08B91EC1457Aa9979b2CcFedB3f80B2baCfE6",
  "abi": [
    {
      "inputs": [
        {
          "internalType": "string",
          "name": "_tokenName",
          "type": "string"
        },
        {
          "internalType": "string",
          "name": "_tokenSymbol",
          "type": "string"
        },
        {
          "internalType": "string",
          "name": "_daoName",
          "type": "string"
        }
      ],
      "stateMutability": "nonpayable",
      "type": "constructor"
    },
    {
      "inputs": [],
      "name": "ApprovalCallerNotOwnerNorApproved",
      "type": "error"
    },
    {
      "inputs": [],
      "name": "ApprovalQueryForNonexistentToken",
      "type": "error"
    },
    {
      "inputs": [],
      "name": "BalanceQueryForZeroAddress",
      "type": "error"
    },
    {
      "inputs": [],
      "name": "InvalidShortString",
      "type": "error"
    },
    {
      "inputs": [],
      "name": "MintERC2309QuantityExceedsLimit",
      "type": "error"
    },
    {
      "inputs": [],
      "name": "MintToZeroAddress",
      "type": "error"
    },
    {
      "inputs": [],
      "name": "MintZeroQuantity",
      "type": "error"
    },
    {
      "inputs": [],
      "name": "OwnerQueryForNonexistentToken",
      "type": "error"
    },
    {
      "inputs": [],
      "name": "OwnershipNotInitializedForExtraData",
      "type": "error"
    },
    {
      "inputs": [
        {
          "internalType": "string",
          "name": "str",
          "type": "string"
        }
      ],
      "name": "StringTooLong",
      "type": "error"
    },
    {
      "inputs": [],
      "name": "TransferCallerNotOwnerNorApproved",
      "type": "error"
    },
    {
      "inputs": [],
      "name": "TransferFromIncorrectOwner",
      "type": "error"
    },
    {
      "inputs": [],
      "name": "TransferToNonERC721ReceiverImplementer",
      "type": "error"
    },
    {
      "inputs": [],
      "name": "TransferToZeroAddress",
      "type": "error"
    },
    {
      "inputs": [],
      "name": "URIQueryForNonexistentToken",
      "type": "error"
    },
    {
      "anonymous": false,
      "inputs": [
        {
          "indexed": true,
          "internalType": "address",
          "name": "owner",
          "type": "address"
        },
        {
          "indexed": true,
          "internalType": "address",
          "name": "approved",
          "type": "address"
        },
        {
          "indexed": true,
          "internalType": "uint256",
          "name": "tokenId",
          "type": "uint256"
        }
      ],
      "name": "Approval",
      "type": "event"
    },
    {
      "anonymous": false,
      "inputs": [
        {
          "indexed": true,
          "internalType": "address",
          "name": "owner",
          "type": "address"
        },
        {
          "indexed": true,
          "internalType": "address",
          "name": "operator",
          "type": "address"
        },
        {
          "indexed": false,
          "internalType": "bool",
          "name": "approved",
          "type": "bool"
        }
      ],
      "name": "ApprovalForAll",
      "type": "event"
    },
    {
      "anonymous": false,
      "inputs": [
        {
          "indexed": true,
          "internalType": "uint256",
          "name": "fromTokenId",
          "type": "uint256"
        },
        {
          "indexed": false,
          "internalType": "uint256",
          "name": "toTokenId",
          "type": "uint256"
        },
        {
          "indexed": true,
          "internalType": "address",
          "name": "from",
          "type": "address"
        },
        {
          "indexed": true,
          "internalType": "address",
          "name": "to",
          "type": "address"
        }
      ],
      "name": "ConsecutiveTransfer",
      "type": "event"
    },
    {
      "anonymous": false,
      "inputs": [
        {
          "indexed": true,
          "internalType": "address",
          "name": "delegator",
          "type": "address"
        },
        {
          "indexed": true,
          "internalType": "address",
          "name": "fromDelegate",
          "type": "address"
        },
        {
          "indexed": true,
          "internalType": "address",
          "name": "toDelegate",
          "type": "address"
        }
      ],
      "name": "DelegateChanged",
      "type": "event"
    },
    {
      "anonymous": false,
      "inputs": [
        {
          "indexed": true,
          "internalType": "address",
          "name": "delegate",
          "type": "address"
        },
        {
          "indexed": false,
          "internalType": "uint256",
          "name": "previousBalance",
          "type": "uint256"
        },
        {
          "indexed": false,
          "internalType": "uint256",
          "name": "newBalance",
          "type": "uint256"
        }
      ],
      "name": "DelegateVotesChanged",
      "type": "event"
    },
    {
      "anonymous": false,
      "inputs": [],
      "name": "EIP712DomainChanged",
      "type": "event"
    },
    {
      "anonymous": false,
      "inputs": [
        {
          "indexed": true,
          "internalType": "address",
          "name": "previousOwner",
          "type": "address"
        },
        {
          "indexed": true,
          "internalType": "address",
          "name": "newOwner",
          "type": "address"
        }
      ],
      "name": "OwnershipTransferred",
      "type": "event"
    },
    {
      "anonymous": false,
      "inputs": [
        {
          "indexed": true,
          "internalType": "address",
          "name": "from",
          "type": "address"
        },
        {
          "indexed": true,
          "internalType": "address",
          "name": "to",
          "type": "address"
        },
        {
          "indexed": true,
          "internalType": "uint256",
          "name": "tokenId",
          "type": "uint256"
        }
      ],
      "name": "Transfer",
      "type": "event"
    },
    {
      "inputs": [],
      "name": "CLOCK_MODE",
      "outputs": [
        {
          "internalType": "string",
          "name": "",
          "type": "string"
        }
      ],
      "stateMutability": "view",
      "type": "function"
    },
    {
      "inputs": [],
      "name": "DOMAIN_SEPARATOR",
      "outputs": [
        {
          "internalType": "bytes32",
          "name": "",
          "type": "bytes32"
        }
      ],
      "stateMutability": "view",
      "type": "function"
    },
    {
      "inputs": [
        {
          "internalType": "address",
          "name": "to",
          "type": "address"
        },
        {
          "internalType": "uint256",
          "name": "tokenId",
          "type": "uint256"
        }
      ],
      "name": "approve",
      "outputs": [],
      "stateMutability": "payable",
      "type": "function"
    },
    {
      "inputs": [
        {
          "internalType": "address",
          "name": "owner",
          "type": "address"
        }
      ],
      "name": "balanceOf",
      "outputs": [
        {
          "internalType": "uint256",
          "name": "",
          "type": "uint256"
        }
      ],
      "stateMutability": "view",
      "type": "function"
    },
    {
      "inputs": [],
      "name": "clock",
      "outputs": [
        {
          "internalType": "uint48",
          "name": "",
          "type": "uint48"
        }
      ],
      "stateMutability": "view",
      "type": "function"
    },
    {
      "inputs": [
        {
          "internalType": "address",
          "name": "delegatee",
          "type": "address"
        }
      ],
      "name": "delegate",
      "outputs": [],
      "stateMutability": "nonpayable",
      "type": "function"
    },
    {
      "inputs": [
        {
          "internalType": "address",
          "name": "delegatee",
          "type": "address"
        },
        {
          "internalType": "uint256",
          "name": "nonce",
          "type": "uint256"
        },
        {
          "internalType": "uint256",
          "name": "expiry",
          "type": "uint256"
        },
        {
          "internalType": "uint8",
          "name": "v",
          "type": "uint8"
        },
        {
          "internalType": "bytes32",
          "name": "r",
          "type": "bytes32"
        },
        {
          "internalType": "bytes32",
          "name": "s",
          "type": "bytes32"
        }
      ],
      "name": "delegateBySig",
      "outputs": [],
      "stateMutability": "nonpayable",
      "type": "function"
    },
    {
      "inputs": [
        {
          "internalType": "address",
          "name": "account",
          "type": "address"
        }
      ],
      "name": "delegates",
      "outputs": [
        {
          "internalType": "address",
          "name": "",
          "type": "address"
        }
      ],
      "stateMutability": "view",
      "type": "function"
    },
    {
      "inputs": [],
      "name": "eip712Domain",
      "outputs": [
        {
          "internalType": "bytes1",
          "name": "fields",
          "type": "bytes1"
        },
        {
          "internalType": "string",
          "name": "name",
          "type": "string"
        },
        {
          "internalType": "string",
          "name": "version",
          "type": "string"
        },
        {
          "internalType": "uint256",
          "name": "chainId",
          "type": "uint256"
        },
        {
          "internalType": "address",
          "name": "verifyingContract",
          "type": "address"
        },
        {
          "internalType": "bytes32",
          "name": "salt",
          "type": "bytes32"
        },
        {
          "internalType": "uint256[]",
          "name": "extensions",
          "type": "uint256[]"
        }
      ],
      "stateMutability": "view",
      "type": "function"
    },
    {
      "inputs": [
        {
          "internalType": "uint256",
          "name": "tokenId",
          "type": "uint256"
        }
      ],
      "name": "getApproved",
      "outputs": [
        {
          "internalType": "address",
          "name": "",
          "type": "address"
        }
      ],
      "stateMutability": "view",
      "type": "function"
    },
    {
      "inputs": [
        {
          "internalType": "uint256",
          "name": "timepoint",
          "type": "uint256"
        }
      ],
      "name": "getPastTotalSupply",
      "outputs": [
        {
          "internalType": "uint256",
          "name": "",
          "type": "uint256"
        }
      ],
      "stateMutability": "view",
      "type": "function"
    },
    {
      "inputs": [
        {
          "internalType": "address",
          "name": "account",
          "type": "address"
        },
        {
          "internalType": "uint256",
          "name": "timepoint",
          "type": "uint256"
        }
      ],
      "name": "getPastVotes",
      "outputs": [
        {
          "internalType": "uint256",
          "name": "",
          "type": "uint256"
        }
      ],
      "stateMutability": "view",
      "type": "function"
    },
    {
      "inputs": [
        {
          "internalType": "address",
          "name": "account",
          "type": "address"
        }
      ],
      "name": "getVotes",
      "outputs": [
        {
          "internalType": "uint256",
          "name": "",
          "type": "uint256"
        }
      ],
      "stateMutability": "view",
      "type": "function"
    },
    {
      "inputs": [
        {
          "internalType": "address",
          "name": "owner",
          "type": "address"
        },
        {
          "internalType": "address",
          "name": "operator",
          "type": "address"
        }
      ],
      "name": "isApprovedForAll",
      "outputs": [
        {
          "internalType": "bool",
          "name": "",
          "type": "bool"
        }
      ],
      "stateMutability": "view",
      "type": "function"
    },
    {
      "inputs": [
        {
          "internalType": "address",
          "name": "_to",
          "type": "address"
        },
        {
          "internalType": "uint256",
          "name": "quantity",
          "type": "uint256"
        },
        {
          "internalType": "string",
          "name": "_tokenURI",
          "type": "string"
        }
      ],
      "name": "mintWithURI",
      "outputs": [],
      "stateMutability": "nonpayable",
      "type": "function"
    },
    {
      "inputs": [],
      "name": "name",
      "outputs": [
        {
          "internalType": "string",
          "name": "",
          "type": "string"
        }
      ],
      "stateMutability": "view",
      "type": "function"
    },
    {
      "inputs": [
        {
          "internalType": "address",
          "name": "owner",
          "type": "address"
        }
      ],
      "name": "nonces",
      "outputs": [
        {
          "internalType": "uint256",
          "name": "",
          "type": "uint256"
        }
      ],
      "stateMutability": "view",
      "type": "function"
    },
    {
      "inputs": [],
      "name": "owner",
      "outputs": [
        {
          "internalType": "address",
          "name": "",
          "type": "address"
        }
      ],
      "stateMutability": "view",
      "type": "function"
    },
    {
      "inputs": [
        {
          "internalType": "uint256",
          "name": "tokenId",
          "type": "uint256"
        }
      ],
      "name": "ownerOf",
      "outputs": [
        {
          "internalType": "address",
          "name": "",
          "type": "address"
        }
      ],
      "stateMutability": "view",
      "type": "function"
    },
    {
      "inputs": [],
      "name": "renounceOwnership",
      "outputs": [],
      "stateMutability": "nonpayable",
      "type": "function"
    },
    {
      "inputs": [
        {
          "internalType": "address",
          "name": "to",
          "type": "address"
        },
        {
          "internalType": "uint256",
          "name": "quantity",
          "type": "uint256"
        }
      ],
      "name": "safeMint",
      "outputs": [],
      "stateMutability": "nonpayable",
      "type": "function"
    },
    {
      "inputs": [
        {
          "internalType": "address",
          "name": "from",
          "type": "address"
        },
        {
          "internalType": "address",
          "name": "to",
          "type": "address"
        },
        {
          "internalType": "uint256",
          "name": "tokenId",
          "type": "uint256"
        }
      ],
      "name": "safeTransferFrom",
      "outputs": [],
      "stateMutability": "payable",
      "type": "function"
    },
    {
      "inputs": [
        {
          "internalType": "address",
          "name": "from",
          "type": "address"
        },
        {
          "internalType": "address",
          "name": "to",
          "type": "address"
        },
        {
          "internalType": "uint256",
          "name": "tokenId",
          "type": "uint256"
        },
        {
          "internalType": "bytes",
          "name": "_data",
          "type": "bytes"
        }
      ],
      "name": "safeTransferFrom",
      "outputs": [],
      "stateMutability": "payable",
      "type": "function"
    },
    {
      "inputs": [
        {
          "internalType": "address",
          "name": "operator",
          "type": "address"
        },
        {
          "internalType": "bool",
          "name": "approved",
          "type": "bool"
        }
      ],
      "name": "setApprovalForAll",
      "outputs": [],
      "stateMutability": "nonpayable",
      "type": "function"
    },
    {
      "inputs": [
        {
          "internalType": "string",
          "name": "_newBaseURI",
          "type": "string"
        }
      ],
      "name": "setBaseURI",
      "outputs": [],
      "stateMutability": "nonpayable",
      "type": "function"
    },
    {
      "inputs": [
        {
          "internalType": "bytes4",
          "name": "interfaceId",
          "type": "bytes4"
        }
      ],
      "name": "supportsInterface",
      "outputs": [
        {
          "internalType": "bool",
          "name": "",
          "type": "bool"
        }
      ],
      "stateMutability": "view",
      "type": "function"
    },
    {
      "inputs": [],
      "name": "symbol",
      "outputs": [
        {
          "internalType": "string",
          "name": "",
          "type": "string"
        }
      ],
      "stateMutability": "view",
      "type": "function"
    },
    {
      "inputs": [
        {
          "internalType": "uint256",
          "name": "tokenId",
          "type": "uint256"
        }
      ],
      "name": "tokenURI",
      "outputs": [
        {
          "internalType": "string",
          "name": "",
          "type": "string"
        }
      ],
      "stateMutability": "view",
      "type": "function"
    },
    {
      "inputs": [],
      "name": "totalSupply",
      "outputs": [
        {
          "internalType": "uint256",
          "name": "",
          "type": "uint256"
        }
      ],
      "stateMutability": "view",
      "type": "function"
    },
    {
      "inputs": [
        {
          "internalType": "address",
          "name": "from",
          "type": "address"
        },
        {
          "internalType": "address",
          "name": "to",
          "type": "address"
        },
        {
          "internalType": "uint256",
          "name": "tokenId",
          "type": "uint256"
        }
      ],
      "name": "transferFrom",
      "outputs": [],
      "stateMutability": "payable",
      "type": "function"
    },
    {
      "inputs": [
        {
          "internalType": "address",
          "name": "newOwner",
          "type": "address"
        }
      ],
      "name": "transferOwnership",
      "outputs": [],
      "stateMutability": "nonpayable",
      "type": "function"
    }
  ],
  "transactionHash": "0x130886d2f012c03490656d0ed33b33db0454dc59d3ffe93e6ed0fecad2fee92f",
  "args": [
    "HKW_CAN_DAO_NFT_Collection",
    "HKW_CAN_DAO_NFT",
    "HKW_CAN_DAO"
  ],
  "numDeployments": 10,
  "solcInputHash": "ccf551590eb977e546752609ee4e6323",
  "bytecode": "0x610180604081905260006101608190526200001d9160109162000279565b503480156200002b57600080fd5b506040516200370d3803806200370d8339810160408190526200004e91620003f9565b80604051806040016040528060018152602001603160f81b815250848481600290805190602001906200008392919062000279565b5080516200009990600390602084019062000279565b50506000805550620000ab3362000184565b620000c6600983620001d660201b6200142d1790919060201c565b61012052620000e381600a620001d6602090811b6200142d17901c565b61014052815160208084019190912060e052815190820120610100524660a0526200017160e05161010051604080517f8b73c3c69bb8fe3d512ecc4cf759cc79239f7b179b0ffacaa9a75d522b39400f60208201529081019290925260608201524660808201523060a082015260009060c00160405160208183030381529060405280519060200120905090565b60805250503060c052506200051e915050565b600880546001600160a01b038381166001600160a01b0319831681179093556040519116919082907f8be0079c531659141344cd1fd0a4f28419497f9722a3daafe3b4186f6b6457e090600090a35050565b6000602083511015620001f657620001ee836200022a565b905062000224565b826200020d836200027660201b620014641760201c565b81516200021e926020019062000279565b5060ff90505b92915050565b600080829050601f8151111562000261578260405163305a27a960e01b81526004016200025891906200048a565b60405180910390fd5b80516200026e82620004bf565b179392505050565b90565b8280546200028790620004e7565b90600052602060002090601f016020900481019282620002ab5760008555620002f6565b82601f10620002c657805160ff1916838001178555620002f6565b82800160010185558215620002f6579182015b82811115620002f6578251825591602001919060010190620002d9565b506200030492915062000308565b5090565b5b8082111562000304576000815560010162000309565b634e487b7160e01b600052604160045260246000fd5b60005b838110156200035257818101518382015260200162000338565b8381111562000362576000848401525b50505050565b600082601f8301126200037a57600080fd5b81516001600160401b03808211156200039757620003976200031f565b604051601f8301601f19908116603f01168101908282118183101715620003c257620003c26200031f565b81604052838152866020858801011115620003dc57600080fd5b620003ef84602083016020890162000335565b9695505050505050565b6000806000606084860312156200040f57600080fd5b83516001600160401b03808211156200042757600080fd5b620004358783880162000368565b945060208601519150808211156200044c57600080fd5b6200045a8783880162000368565b935060408601519150808211156200047157600080fd5b50620004808682870162000368565b9150509250925092565b6020815260008251806020840152620004ab81604085016020870162000335565b601f01601f19169190910160400192915050565b80516020808301519190811015620004e1576000198160200360031b1b821691505b50919050565b600181811c90821680620004fc57607f821691505b60208210811415620004e157634e487b7160e01b600052602260045260246000fd5b60805160a05160c05160e051610100516101205161014051613194620005796000396000610e8301526000610e58015260006116460152600061161e01526000611579015260006115a3015260006115cd01526131946000f3fe6080604052600436106101d85760003560e01c806370a08231116101025780639ab24eb011610095578063c3cda52011610064578063c3cda52014610563578063c87b56dd14610583578063e985e9c5146105a3578063f2fde38b146105f957600080fd5b80639ab24eb0146104f0578063a144819414610510578063a22cb46514610530578063b88d4fde1461055057600080fd5b80638da5cb5b116100d15780638da5cb5b146104645780638e539e8c1461048f57806391ddadf4146104af57806395d89b41146104db57600080fd5b806370a08231146103e7578063715018a6146104075780637ecebe001461041c57806384b0196e1461043c57600080fd5b80633a46b1a81161017a57806355f804b31161014957806355f804b314610341578063587cde1e146103615780635c19a95c146103a75780636352211e146103c757600080fd5b80633a46b1a8146102d957806342842e0e146102f95780634a99950b1461030c5780634bf5d7e91461032c57600080fd5b8063095ea7b3116101b6578063095ea7b31461027957806318160ddd1461028e57806323b872dd146102b15780633644e515146102c457600080fd5b806301ffc9a7146101dd57806306fdde0314610212578063081812fc14610234575b600080fd5b3480156101e957600080fd5b506101fd6101f8366004612a1d565b610619565b60405190151581526020015b60405180910390f35b34801561021e57600080fd5b506102276106fe565b6040516102099190612aa5565b34801561024057600080fd5b5061025461024f366004612ab8565b610790565b60405173ffffffffffffffffffffffffffffffffffffffff9091168152602001610209565b61028c610287366004612afa565b6107fa565b005b34801561029a57600080fd5b50600154600054035b604051908152602001610209565b61028c6102bf366004612b24565b6108e5565b3480156102d057600080fd5b506102a3610b6d565b3480156102e557600080fd5b506102a36102f4366004612afa565b610b7c565b61028c610307366004612b24565b610c57565b34801561031857600080fd5b5061028c610327366004612c43565b610c77565b34801561033857600080fd5b50610227610ca2565b34801561034d57600080fd5b5061028c61035c366004612c9a565b610d54565b34801561036d57600080fd5b5061025461037c366004612ccf565b73ffffffffffffffffffffffffffffffffffffffff9081166000908152600b60205260409020541690565b3480156103b357600080fd5b5061028c6103c2366004612ccf565b610d73565b3480156103d357600080fd5b506102546103e2366004612ab8565b610d7e565b3480156103f357600080fd5b506102a3610402366004612ccf565b610d89565b34801561041357600080fd5b5061028c610e0b565b34801561042857600080fd5b506102a3610437366004612ccf565b610e1f565b34801561044857600080fd5b50610451610e4a565b6040516102099796959493929190612cea565b34801561047057600080fd5b5060085473ffffffffffffffffffffffffffffffffffffffff16610254565b34801561049b57600080fd5b506102a36104aa366004612ab8565b610eef565b3480156104bb57600080fd5b506104c4610fa1565b60405165ffffffffffff9091168152602001610209565b3480156104e757600080fd5b50610227610fac565b3480156104fc57600080fd5b506102a361050b366004612ccf565b610fbb565b34801561051c57600080fd5b5061028c61052b366004612afa565b610fe9565b34801561053c57600080fd5b5061028c61054b366004612da9565b610ffb565b61028c61055e366004612de5565b611092565b34801561056f57600080fd5b5061028c61057e366004612e61565b6110fc565b34801561058f57600080fd5b5061022761059e366004612ab8565b611273565b3480156105af57600080fd5b506101fd6105be366004612ec1565b73ffffffffffffffffffffffffffffffffffffffff918216600090815260076020908152604080832093909416825291909152205460ff1690565b34801561060557600080fd5b5061028c610614366004612ccf565b611376565b60007f01ffc9a7000000000000000000000000000000000000000000000000000000007fffffffff00000000000000000000000000000000000000000000000000000000831614806106ac57507f80ac58cd000000000000000000000000000000000000000000000000000000007fffffffff000000000000000000000000000000000000000000000000000000008316145b806106f857507f5b5e139f000000000000000000000000000000000000000000000000000000007fffffffff000000000000000000000000000000000000000000000000000000008316145b92915050565b60606002805461070d90612ef4565b80601f016020809104026020016040519081016040528092919081815260200182805461073990612ef4565b80156107865780601f1061075b57610100808354040283529160200191610786565b820191906000526020600020905b81548152906001019060200180831161076957829003601f168201915b5050505050905090565b600061079b82611467565b6107d1576040517fcf4700e400000000000000000000000000000000000000000000000000000000815260040160405180910390fd5b5060009081526006602052604090205473ffffffffffffffffffffffffffffffffffffffff1690565b600061080582610d7e565b90503373ffffffffffffffffffffffffffffffffffffffff8216146108645761082e81336105be565b610864576040517fcfb3b94200000000000000000000000000000000000000000000000000000000815260040160405180910390fd5b60008281526006602052604080822080547fffffffffffffffffffffffff00000000000000000000000000000000000000001673ffffffffffffffffffffffffffffffffffffffff87811691821790925591518593918516917f8c5be1e5ebec7d5bd14f71427d1e84f3dd0314c0f7b2291e5b200ac8c7c3b92591a4505050565b60006108f0826114a7565b90508373ffffffffffffffffffffffffffffffffffffffff168173ffffffffffffffffffffffffffffffffffffffff1614610957576040517fa114810000000000000000000000000000000000000000000000000000000000815260040160405180910390fd5b600082815260066020526040902080543380821473ffffffffffffffffffffffffffffffffffffffff8816909114176109ca5761099486336105be565b6109ca576040517f59c896be00000000000000000000000000000000000000000000000000000000815260040160405180910390fd5b73ffffffffffffffffffffffffffffffffffffffff8516610a17576040517fea553b3400000000000000000000000000000000000000000000000000000000815260040160405180910390fd5b8015610a2257600082555b73ffffffffffffffffffffffffffffffffffffffff86811660009081526005602052604080822080547fffffffffffffffffffffffffffffffffffffffffffffffffffffffffffffffff019055918716808252919020805460010190554260a01b177c0200000000000000000000000000000000000000000000000000000000176000858152600460205260409020557c02000000000000000000000000000000000000000000000000000000008316610b0a5760018401600081815260046020526040902054610b08576000548114610b085760008181526004602052604090208490555b505b838573ffffffffffffffffffffffffffffffffffffffff168773ffffffffffffffffffffffffffffffffffffffff167fddf252ad1be2c89b69c2b068fc378daa952ba7f163c4a11628f55a4df523b3ef60405160405180910390a4505050505050565b6000610b7761155f565b905090565b6000610b86610fa1565b65ffffffffffff168210610bfb576040517f08c379a000000000000000000000000000000000000000000000000000000000815260206004820152601460248201527f566f7465733a20667574757265206c6f6f6b757000000000000000000000000060448201526064015b60405180910390fd5b610c32610c0783611697565b73ffffffffffffffffffffffffffffffffffffffff85166000908152600c6020526040902090611731565b7bffffffffffffffffffffffffffffffffffffffffffffffffffffffff169392505050565b610c7283838360405180602001604052806000815250611092565b505050565b610c7f6117fb565b610c89838361187c565b8051610c9c90601090602084019061295f565b50505050565b606043610cad610fa1565b65ffffffffffff1614610d1c576040517f08c379a000000000000000000000000000000000000000000000000000000000815260206004820152601860248201527f566f7465733a2062726f6b656e20636c6f636b206d6f646500000000000000006044820152606401610bf2565b5060408051808201909152601d81527f6d6f64653d626c6f636b6e756d6265722666726f6d3d64656661756c74000000602082015290565b610d5c6117fb565b8051610d6f90601090602084019061295f565b5050565b33610d6f81836119b3565b60006106f8826114a7565b600073ffffffffffffffffffffffffffffffffffffffff8216610dd8576040517f8f4eb60400000000000000000000000000000000000000000000000000000000815260040160405180910390fd5b5073ffffffffffffffffffffffffffffffffffffffff1660009081526005602052604090205467ffffffffffffffff1690565b610e136117fb565b610e1d6000611a4a565b565b73ffffffffffffffffffffffffffffffffffffffff81166000908152600e60205260408120546106f8565b600060608082808083610e7e7f00000000000000000000000000000000000000000000000000000000000000006009611ac1565b610ea97f0000000000000000000000000000000000000000000000000000000000000000600a611ac1565b604080516000808252602082019092527f0f000000000000000000000000000000000000000000000000000000000000009b939a50919850469750309650945092509050565b6000610ef9610fa1565b65ffffffffffff168210610f69576040517f08c379a000000000000000000000000000000000000000000000000000000000815260206004820152601460248201527f566f7465733a20667574757265206c6f6f6b75700000000000000000000000006044820152606401610bf2565b610f7d610f7583611697565b600d90611731565b7bffffffffffffffffffffffffffffffffffffffffffffffffffffffff1692915050565b6000610b7743611b65565b60606003805461070d90612ef4565b73ffffffffffffffffffffffffffffffffffffffff81166000908152600c60205260408120610f7d90611bfd565b610ff16117fb565b610d6f828261187c565b33600081815260076020908152604080832073ffffffffffffffffffffffffffffffffffffffff87168085529083529281902080547fffffffffffffffffffffffffffffffffffffffffffffffffffffffffffffff001686151590811790915590519081529192917f17307eab39ab6107e8899845ad3d59bd9653f200f220920489ca2b5937696c31910160405180910390a35050565b61109d8484846108e5565b73ffffffffffffffffffffffffffffffffffffffff83163b15610c9c576110c684848484611c4c565b610c9c576040517fd1a57ed600000000000000000000000000000000000000000000000000000000815260040160405180910390fd5b83421115611166576040517f08c379a000000000000000000000000000000000000000000000000000000000815260206004820152601860248201527f566f7465733a207369676e6174757265206578706972656400000000000000006044820152606401610bf2565b604080517fe48329057bfd03d55e49b547132e39cffd9c1820ad7b9d4c5307691425d15adf602082015273ffffffffffffffffffffffffffffffffffffffff88169181019190915260608101869052608081018590526000906111ed906111e59060a00160405160208183030381529060405280519060200120611dd2565b858585611e1a565b90506111f881611e42565b8614611260576040517f08c379a000000000000000000000000000000000000000000000000000000000815260206004820152601460248201527f566f7465733a20696e76616c6964206e6f6e63650000000000000000000000006044820152606401610bf2565b61126a81886119b3565b50505050505050565b606061127e82611467565b6112e4576040517f08c379a000000000000000000000000000000000000000000000000000000000815260206004820152601760248201527f546f6b656e20494420446f65736e2774206578697374730000000000000000006044820152606401610bf2565b601080546112f190612ef4565b80601f016020809104026020016040519081016040528092919081815260200182805461131d90612ef4565b801561136a5780601f1061133f5761010080835404028352916020019161136a565b820191906000526020600020905b81548152906001019060200180831161134d57829003601f168201915b50505050509050919050565b61137e6117fb565b73ffffffffffffffffffffffffffffffffffffffff8116611421576040517f08c379a000000000000000000000000000000000000000000000000000000000815260206004820152602660248201527f4f776e61626c653a206e6577206f776e657220697320746865207a65726f206160448201527f64647265737300000000000000000000000000000000000000000000000000006064820152608401610bf2565b61142a81611a4a565b50565b60006020835110156114495761144283611e77565b90506106f8565b8282815161145a926020019061295f565b5060ff90506106f8565b90565b60008054821080156106f85750506000908152600460205260409020547c0100000000000000000000000000000000000000000000000000000000161590565b60008160005481101561152d576000818152600460205260409020547c0100000000000000000000000000000000000000000000000000000000811661152b575b8061152457507fffffffffffffffffffffffffffffffffffffffffffffffffffffffffffffffff016000818152600460205260409020546114e8565b9392505050565b505b6040517fdf2d9b4200000000000000000000000000000000000000000000000000000000815260040160405180910390fd5b60003073ffffffffffffffffffffffffffffffffffffffff7f0000000000000000000000000000000000000000000000000000000000000000161480156115c557507f000000000000000000000000000000000000000000000000000000000000000046145b156115ef57507f000000000000000000000000000000000000000000000000000000000000000090565b610b77604080517f8b73c3c69bb8fe3d512ecc4cf759cc79239f7b179b0ffacaa9a75d522b39400f60208201527f0000000000000000000000000000000000000000000000000000000000000000918101919091527f000000000000000000000000000000000000000000000000000000000000000060608201524660808201523060a082015260009060c00160405160208183030381529060405280519060200120905090565b600063ffffffff82111561172d576040517f08c379a000000000000000000000000000000000000000000000000000000000815260206004820152602660248201527f53616665436173743a2076616c756520646f65736e27742066697420696e203360448201527f32206269747300000000000000000000000000000000000000000000000000006064820152608401610bf2565b5090565b81546000908181600581111561178e57600061174c84611ece565b6117569085612f71565b60008881526020902090915081015463ffffffff908116908716101561177e5780915061178c565b611789816001612f88565b92505b505b600061179c87878585611fb3565b905080156117ed576117c1876117b3600184612f71565b600091825260209091200190565b5464010000000090047bffffffffffffffffffffffffffffffffffffffffffffffffffffffff166117f0565b60005b979650505050505050565b60085473ffffffffffffffffffffffffffffffffffffffff163314610e1d576040517f08c379a000000000000000000000000000000000000000000000000000000000815260206004820181905260248201527f4f776e61626c653a2063616c6c6572206973206e6f7420746865206f776e65726044820152606401610bf2565b600054816118b6576040517fb562e8dd00000000000000000000000000000000000000000000000000000000815260040160405180910390fd5b73ffffffffffffffffffffffffffffffffffffffff831660008181526005602090815260408083208054680100000000000000018802019055848352600490915281206001851460e11b4260a01b178317905582840190839083907fddf252ad1be2c89b69c2b068fc378daa952ba7f163c4a11628f55a4df523b3ef8180a4600183015b81811461197257808360007fddf252ad1be2c89b69c2b068fc378daa952ba7f163c4a11628f55a4df523b3ef600080a460010161193a565b50816119aa576040517f2e07630000000000000000000000000000000000000000000000000000000000815260040160405180910390fd5b60005550505050565b73ffffffffffffffffffffffffffffffffffffffff8281166000818152600b602052604080822080548686167fffffffffffffffffffffffff0000000000000000000000000000000000000000821681179092559151919094169392849290917f3134e8a2e6d97e929a7e54011ea5485d7d196dd5f0ba4d4ef95803e8e3fc257f9190a4610c728183611a4586612011565b61201c565b6008805473ffffffffffffffffffffffffffffffffffffffff8381167fffffffffffffffffffffffff0000000000000000000000000000000000000000831681179093556040519116919082907f8be0079c531659141344cd1fd0a4f28419497f9722a3daafe3b4186f6b6457e090600090a35050565b606060ff8314611ad45761144283612244565b818054611ae090612ef4565b80601f0160208091040260200160405190810160405280929190818152602001828054611b0c90612ef4565b8015611b595780601f10611b2e57610100808354040283529160200191611b59565b820191906000526020600020905b815481529060010190602001808311611b3c57829003601f168201915b505050505090506106f8565b600065ffffffffffff82111561172d576040517f08c379a000000000000000000000000000000000000000000000000000000000815260206004820152602660248201527f53616665436173743a2076616c756520646f65736e27742066697420696e203460448201527f38206269747300000000000000000000000000000000000000000000000000006064820152608401610bf2565b80546000908015611c4357611c17836117b3600184612f71565b5464010000000090047bffffffffffffffffffffffffffffffffffffffffffffffffffffffff16611524565b60009392505050565b6040517f150b7a0200000000000000000000000000000000000000000000000000000000815260009073ffffffffffffffffffffffffffffffffffffffff85169063150b7a0290611ca7903390899088908890600401612fa0565b602060405180830381600087803b158015611cc157600080fd5b505af1925050508015611d0f575060408051601f3d9081017fffffffffffffffffffffffffffffffffffffffffffffffffffffffffffffffe0168201909252611d0c91810190612fe9565b60015b611d83573d808015611d3d576040519150601f19603f3d011682016040523d82523d6000602084013e611d42565b606091505b508051611d7b576040517fd1a57ed600000000000000000000000000000000000000000000000000000000815260040160405180910390fd5b805181602001fd5b7fffffffff00000000000000000000000000000000000000000000000000000000167f150b7a02000000000000000000000000000000000000000000000000000000001490505b949350505050565b60006106f8611ddf61155f565b836040517f19010000000000000000000000000000000000000000000000000000000000008152600281019290925260228201526042902090565b6000806000611e2b87878787612283565b91509150611e3881612372565b5095945050505050565b73ffffffffffffffffffffffffffffffffffffffff81166000908152600e602052604090208054600181018255905b50919050565b600080829050601f81511115611ebb57826040517f305a27a9000000000000000000000000000000000000000000000000000000008152600401610bf29190612aa5565b8051611ec682613006565b179392505050565b600081611edd57506000919050565b60006001611eea84612529565b901c6001901b90506001818481611f0357611f03613048565b048201901c90506001818481611f1b57611f1b613048565b048201901c90506001818481611f3357611f33613048565b048201901c90506001818481611f4b57611f4b613048565b048201901c90506001818481611f6357611f63613048565b048201901c90506001818481611f7b57611f7b613048565b048201901c90506001818481611f9357611f93613048565b048201901c905061152481828581611fad57611fad613048565b046125bd565b60005b81831015612009576000611fca84846125d3565b60008781526020902090915063ffffffff86169082015463ffffffff161115611ff557809250612003565b612000816001612f88565b93505b50611fb6565b509392505050565b60006106f882610d89565b8173ffffffffffffffffffffffffffffffffffffffff168373ffffffffffffffffffffffffffffffffffffffff16141580156120585750600081115b15610c725773ffffffffffffffffffffffffffffffffffffffff8316156121515773ffffffffffffffffffffffffffffffffffffffff83166000908152600c6020526040812081906120b5906125ee6120b0866125fa565b6126a8565b7bffffffffffffffffffffffffffffffffffffffffffffffffffffffff1691507bffffffffffffffffffffffffffffffffffffffffffffffffffffffff1691508473ffffffffffffffffffffffffffffffffffffffff167fdec2bacdd2f05b59de34da9b523dff8be42e5e38e818c82fdb0bae774387a7248383604051612146929190918252602082015260400190565b60405180910390a250505b73ffffffffffffffffffffffffffffffffffffffff821615610c725773ffffffffffffffffffffffffffffffffffffffff82166000908152600c6020526040812081906121a4906126f16120b0866125fa565b7bffffffffffffffffffffffffffffffffffffffffffffffffffffffff1691507bffffffffffffffffffffffffffffffffffffffffffffffffffffffff1691508373ffffffffffffffffffffffffffffffffffffffff167fdec2bacdd2f05b59de34da9b523dff8be42e5e38e818c82fdb0bae774387a7248383604051612235929190918252602082015260400190565b60405180910390a25050505050565b60606000612251836126fd565b604080516020808252818301909252919250600091906020820181803683375050509182525060208101929092525090565b6000807f7fffffffffffffffffffffffffffffff5d576e7357a4501ddfe92f46681b20a08311156122ba5750600090506003612369565b6040805160008082526020820180845289905260ff881692820192909252606081018690526080810185905260019060a0016020604051602081039080840390855afa15801561230e573d6000803e3d6000fd5b50506040517fffffffffffffffffffffffffffffffffffffffffffffffffffffffffffffffe0015191505073ffffffffffffffffffffffffffffffffffffffff811661236257600060019250925050612369565b9150600090505b94509492505050565b600081600481111561238657612386613077565b141561238f5750565b60018160048111156123a3576123a3613077565b141561240b576040517f08c379a000000000000000000000000000000000000000000000000000000000815260206004820152601860248201527f45434453413a20696e76616c6964207369676e617475726500000000000000006044820152606401610bf2565b600281600481111561241f5761241f613077565b1415612487576040517f08c379a000000000000000000000000000000000000000000000000000000000815260206004820152601f60248201527f45434453413a20696e76616c6964207369676e6174757265206c656e677468006044820152606401610bf2565b600381600481111561249b5761249b613077565b141561142a576040517f08c379a000000000000000000000000000000000000000000000000000000000815260206004820152602260248201527f45434453413a20696e76616c6964207369676e6174757265202773272076616c60448201527f75650000000000000000000000000000000000000000000000000000000000006064820152608401610bf2565b600080608083901c1561253e57608092831c92015b604083901c1561255057604092831c92015b602083901c1561256257602092831c92015b601083901c1561257457601092831c92015b600883901c1561258657600892831c92015b600483901c1561259857600492831c92015b600283901c156125aa57600292831c92015b600183901c156106f85760010192915050565b60008183106125cc5781611524565b5090919050565b60006125e260028484186130a6565b61152490848416612f88565b600061152482846130e1565b60007bffffffffffffffffffffffffffffffffffffffffffffffffffffffff82111561172d576040517f08c379a000000000000000000000000000000000000000000000000000000000815260206004820152602760248201527f53616665436173743a2076616c756520646f65736e27742066697420696e203260448201527f32342062697473000000000000000000000000000000000000000000000000006064820152608401610bf2565b6000806126e46126c66126b9610fa1565b65ffffffffffff16611697565b6126dc6126d288611bfd565b868863ffffffff16565b87919061273e565b915091505b935093915050565b6000611524828461311e565b600060ff8216601f8111156106f8576040517fb3512b0c00000000000000000000000000000000000000000000000000000000815260040160405180910390fd5b6000806126e48585858254600090819080156128f0576000612765876117b3600185612f71565b60408051808201909152905463ffffffff8082168084526401000000009092047bffffffffffffffffffffffffffffffffffffffffffffffffffffffff1660208401529192509087161015612816576040517f08c379a000000000000000000000000000000000000000000000000000000000815260206004820152601b60248201527f436865636b706f696e743a2064656372656173696e67206b65797300000000006044820152606401610bf2565b8563ffffffff16816000015163ffffffff16141561287b578461283e886117b3600186612f71565b80547bffffffffffffffffffffffffffffffffffffffffffffffffffffffff929092166401000000000263ffffffff9092169190911790556128e0565b6040805180820190915263ffffffff80881682527bffffffffffffffffffffffffffffffffffffffffffffffffffffffff80881660208085019182528b54600181018d5560008d81529190912094519151909216640100000000029216919091179101555b6020015192508391506126e99050565b50506040805180820190915263ffffffff80851682527bffffffffffffffffffffffffffffffffffffffffffffffffffffffff80851660208085019182528854600181018a5560008a8152918220955192519093166401000000000291909316179201919091559050816126e9565b82805461296b90612ef4565b90600052602060002090601f01602090048101928261298d57600085556129d3565b82601f106129a657805160ff19168380011785556129d3565b828001600101855582156129d3579182015b828111156129d35782518255916020019190600101906129b8565b5061172d9291505b8082111561172d57600081556001016129db565b7fffffffff000000000000000000000000000000000000000000000000000000008116811461142a57600080fd5b600060208284031215612a2f57600080fd5b8135611524816129ef565b6000815180845260005b81811015612a6057602081850181015186830182015201612a44565b81811115612a72576000602083870101525b50601f017fffffffffffffffffffffffffffffffffffffffffffffffffffffffffffffffe0169290920160200192915050565b6020815260006115246020830184612a3a565b600060208284031215612aca57600080fd5b5035919050565b803573ffffffffffffffffffffffffffffffffffffffff81168114612af557600080fd5b919050565b60008060408385031215612b0d57600080fd5b612b1683612ad1565b946020939093013593505050565b600080600060608486031215612b3957600080fd5b612b4284612ad1565b9250612b5060208501612ad1565b9150604084013590509250925092565b7f4e487b7100000000000000000000000000000000000000000000000000000000600052604160045260246000fd5b600067ffffffffffffffff80841115612baa57612baa612b60565b604051601f85017fffffffffffffffffffffffffffffffffffffffffffffffffffffffffffffffe0908116603f01168101908282118183101715612bf057612bf0612b60565b81604052809350858152868686011115612c0957600080fd5b858560208301376000602087830101525050509392505050565b600082601f830112612c3457600080fd5b61152483833560208501612b8f565b600080600060608486031215612c5857600080fd5b612c6184612ad1565b925060208401359150604084013567ffffffffffffffff811115612c8457600080fd5b612c9086828701612c23565b9150509250925092565b600060208284031215612cac57600080fd5b813567ffffffffffffffff811115612cc357600080fd5b611dca84828501612c23565b600060208284031215612ce157600080fd5b61152482612ad1565b7fff00000000000000000000000000000000000000000000000000000000000000881681526000602060e081840152612d2660e084018a612a3a565b8381036040850152612d38818a612a3a565b6060850189905273ffffffffffffffffffffffffffffffffffffffff8816608086015260a0850187905284810360c0860152855180825283870192509083019060005b81811015612d9757835183529284019291840191600101612d7b565b50909c9b505050505050505050505050565b60008060408385031215612dbc57600080fd5b612dc583612ad1565b915060208301358015158114612dda57600080fd5b809150509250929050565b60008060008060808587031215612dfb57600080fd5b612e0485612ad1565b9350612e1260208601612ad1565b925060408501359150606085013567ffffffffffffffff811115612e3557600080fd5b8501601f81018713612e4657600080fd5b612e5587823560208401612b8f565b91505092959194509250565b60008060008060008060c08789031215612e7a57600080fd5b612e8387612ad1565b95506020870135945060408701359350606087013560ff81168114612ea757600080fd5b9598949750929560808101359460a0909101359350915050565b60008060408385031215612ed457600080fd5b612edd83612ad1565b9150612eeb60208401612ad1565b90509250929050565b600181811c90821680612f0857607f821691505b60208210811415611e71577f4e487b7100000000000000000000000000000000000000000000000000000000600052602260045260246000fd5b7f4e487b7100000000000000000000000000000000000000000000000000000000600052601160045260246000fd5b600082821015612f8357612f83612f42565b500390565b60008219821115612f9b57612f9b612f42565b500190565b600073ffffffffffffffffffffffffffffffffffffffff808716835280861660208401525083604083015260806060830152612fdf6080830184612a3a565b9695505050505050565b600060208284031215612ffb57600080fd5b8151611524816129ef565b80516020808301519190811015611e71577fffffffffffffffffffffffffffffffffffffffffffffffffffffffffffffffff60209190910360031b1b16919050565b7f4e487b7100000000000000000000000000000000000000000000000000000000600052601260045260246000fd5b7f4e487b7100000000000000000000000000000000000000000000000000000000600052602160045260246000fd5b6000826130dc577f4e487b7100000000000000000000000000000000000000000000000000000000600052601260045260246000fd5b500490565b60007bffffffffffffffffffffffffffffffffffffffffffffffffffffffff8381169083168181101561311657613116612f42565b039392505050565b60007bffffffffffffffffffffffffffffffffffffffffffffffffffffffff80831681851680830382111561315557613155612f42565b0194935050505056fea2646970667358221220bba632bb3c4ba057d2943b2fbf5ae47c9691e26328f2693d37cdfb1ee0e358e164736f6c63430008090033",
  "devdoc": {
    "kind": "dev",
    "methods": {
      "CLOCK_MODE()": {
        "details": "Machine-readable description of the clock as specified in EIP-6372."
      },
      "DOMAIN_SEPARATOR()": {
        "details": "Returns the contract's {EIP712} domain separator."
      },
      "approve(address,uint256)": {
        "details": "Gives permission to `to` to transfer `tokenId` token to another account. The approval is cleared when the token is transferred. Only a single account can be approved at a time, so approving the zero address clears previous approvals. Requirements: - The caller must own the token or be an approved operator. - `tokenId` must exist. Emits an {Approval} event."
      },
      "balanceOf(address)": {
        "details": "Returns the number of tokens in `owner`'s account."
      },
      "clock()": {
        "details": "Clock used for flagging checkpoints. Can be overridden to implement timestamp based checkpoints (and voting), in which case {CLOCK_MODE} should be overridden as well to match."
      },
      "delegate(address)": {
        "details": "Delegates votes from the sender to `delegatee`."
      },
      "delegateBySig(address,uint256,uint256,uint8,bytes32,bytes32)": {
        "details": "Delegates votes from signer to `delegatee`."
      },
      "delegates(address)": {
        "details": "Returns the delegate that `account` has chosen."
      },
      "eip712Domain()": {
        "details": "See {EIP-5267}. _Available since v4.9._"
      },
      "getApproved(uint256)": {
        "details": "Returns the account approved for `tokenId` token. Requirements: - `tokenId` must exist."
      },
      "getPastTotalSupply(uint256)": {
        "details": "Returns the total supply of votes available at a specific moment in the past. If the `clock()` is configured to use block numbers, this will return the value at the end of the corresponding block. NOTE: This value is the sum of all available votes, which is not necessarily the sum of all delegated votes. Votes that have not been delegated are still part of total supply, even though they would not participate in a vote. Requirements: - `timepoint` must be in the past. If operating using block numbers, the block must be already mined."
      },
      "getPastVotes(address,uint256)": {
        "details": "Returns the amount of votes that `account` had at a specific moment in the past. If the `clock()` is configured to use block numbers, this will return the value at the end of the corresponding block. Requirements: - `timepoint` must be in the past. If operating using block numbers, the block must be already mined."
      },
      "getVotes(address)": {
        "details": "Returns the current amount of votes that `account` has."
      },
      "isApprovedForAll(address,address)": {
        "details": "Returns if the `operator` is allowed to manage all of the assets of `owner`. See {setApprovalForAll}."
      },
      "name()": {
        "details": "Returns the token collection name."
      },
      "nonces(address)": {
        "details": "Returns an address nonce."
      },
      "owner()": {
        "details": "Returns the address of the current owner."
      },
      "ownerOf(uint256)": {
        "details": "Returns the owner of the `tokenId` token. Requirements: - `tokenId` must exist."
      },
      "renounceOwnership()": {
        "details": "Leaves the contract without owner. It will not be possible to call `onlyOwner` functions. Can only be called by the current owner. NOTE: Renouncing ownership will leave the contract without an owner, thereby disabling any functionality that is only available to the owner."
      },
      "safeTransferFrom(address,address,uint256)": {
        "details": "Equivalent to `safeTransferFrom(from, to, tokenId, '')`."
      },
      "safeTransferFrom(address,address,uint256,bytes)": {
        "details": "Safely transfers `tokenId` token from `from` to `to`. Requirements: - `from` cannot be the zero address. - `to` cannot be the zero address. - `tokenId` token must exist and be owned by `from`. - If the caller is not `from`, it must be approved to move this token by either {approve} or {setApprovalForAll}. - If `to` refers to a smart contract, it must implement {IERC721Receiver-onERC721Received}, which is called upon a safe transfer. Emits a {Transfer} event."
      },
      "setApprovalForAll(address,bool)": {
        "details": "Approve or remove `operator` as an operator for the caller. Operators can call {transferFrom} or {safeTransferFrom} for any token owned by the caller. Requirements: - The `operator` cannot be the caller. Emits an {ApprovalForAll} event."
      },
      "supportsInterface(bytes4)": {
        "details": "Returns true if this contract implements the interface defined by `interfaceId`. See the corresponding [EIP section](https://eips.ethereum.org/EIPS/eip-165#how-interfaces-are-identified) to learn more about how these ids are created. This function call must use less than 30000 gas."
      },
      "symbol()": {
        "details": "Returns the token collection symbol."
      },
      "tokenURI(uint256)": {
        "details": "Returns the Uniform Resource Identifier (URI) for `tokenId` token."
      },
      "totalSupply()": {
        "details": "Returns the total number of tokens in existence. Burned tokens will reduce the count. To get the total number of tokens minted, please see {_totalMinted}."
      },
      "transferFrom(address,address,uint256)": {
        "details": "Transfers `tokenId` from `from` to `to`. Requirements: - `from` cannot be the zero address. - `to` cannot be the zero address. - `tokenId` token must be owned by `from`. - If the caller is not `from`, it must be approved to move this token by either {approve} or {setApprovalForAll}. Emits a {Transfer} event."
      },
      "transferOwnership(address)": {
        "details": "Transfers ownership of the contract to a new account (`newOwner`). Can only be called by the current owner."
      }
    },
    "version": 1
  },
  "userdoc": {
    "errors": {
      "ApprovalCallerNotOwnerNorApproved()": [
        {
          "notice": "The caller must own the token or be an approved operator."
        }
      ],
      "ApprovalQueryForNonexistentToken()": [
        {
          "notice": "The token does not exist."
        }
      ],
      "BalanceQueryForZeroAddress()": [
        {
          "notice": "Cannot query the balance for the zero address."
        }
      ],
      "MintERC2309QuantityExceedsLimit()": [
        {
          "notice": "The `quantity` minted with ERC2309 exceeds the safety limit."
        }
      ],
      "MintToZeroAddress()": [
        {
          "notice": "Cannot mint to the zero address."
        }
      ],
      "MintZeroQuantity()": [
        {
          "notice": "The quantity of tokens minted must be more than zero."
        }
      ],
      "OwnerQueryForNonexistentToken()": [
        {
          "notice": "The token does not exist."
        }
      ],
      "OwnershipNotInitializedForExtraData()": [
        {
          "notice": "The `extraData` cannot be set on an unintialized ownership slot."
        }
      ],
      "TransferCallerNotOwnerNorApproved()": [
        {
          "notice": "The caller must own the token or be an approved operator."
        }
      ],
      "TransferFromIncorrectOwner()": [
        {
          "notice": "The token must be owned by `from`."
        }
      ],
      "TransferToNonERC721ReceiverImplementer()": [
        {
          "notice": "Cannot safely transfer to a contract that does not implement the ERC721Receiver interface."
        }
      ],
      "TransferToZeroAddress()": [
        {
          "notice": "Cannot transfer to the zero address."
        }
      ],
      "URIQueryForNonexistentToken()": [
        {
          "notice": "The token does not exist."
        }
      ]
    },
    "kind": "user",
    "methods": {},
    "version": 1
  },
  "storageLayout": {
    "storage": [
      {
        "astId": 15519,
        "contract": "contracts/GovernanceToken.sol:GovernanceToken",
        "label": "_currentIndex",
        "offset": 0,
        "slot": "0",
        "type": "t_uint256"
      },
      {
        "astId": 15521,
        "contract": "contracts/GovernanceToken.sol:GovernanceToken",
        "label": "_burnCounter",
        "offset": 0,
        "slot": "1",
        "type": "t_uint256"
      },
      {
        "astId": 15523,
        "contract": "contracts/GovernanceToken.sol:GovernanceToken",
        "label": "_name",
        "offset": 0,
        "slot": "2",
        "type": "t_string_storage"
      },
      {
        "astId": 15525,
        "contract": "contracts/GovernanceToken.sol:GovernanceToken",
        "label": "_symbol",
        "offset": 0,
        "slot": "3",
        "type": "t_string_storage"
      },
      {
        "astId": 15529,
        "contract": "contracts/GovernanceToken.sol:GovernanceToken",
        "label": "_packedOwnerships",
        "offset": 0,
        "slot": "4",
        "type": "t_mapping(t_uint256,t_uint256)"
      },
      {
        "astId": 15533,
        "contract": "contracts/GovernanceToken.sol:GovernanceToken",
        "label": "_packedAddressData",
        "offset": 0,
        "slot": "5",
        "type": "t_mapping(t_address,t_uint256)"
      },
      {
        "astId": 15538,
        "contract": "contracts/GovernanceToken.sol:GovernanceToken",
        "label": "_tokenApprovals",
        "offset": 0,
        "slot": "6",
        "type": "t_mapping(t_uint256,t_struct(TokenApprovalRef)15451_storage)"
      },
      {
        "astId": 15544,
        "contract": "contracts/GovernanceToken.sol:GovernanceToken",
        "label": "_operatorApprovals",
        "offset": 0,
        "slot": "7",
        "type": "t_mapping(t_address,t_mapping(t_address,t_bool))"
      },
      {
        "astId": 396,
        "contract": "contracts/GovernanceToken.sol:GovernanceToken",
        "label": "_owner",
        "offset": 0,
        "slot": "8",
        "type": "t_address"
      },
      {
        "astId": 11470,
        "contract": "contracts/GovernanceToken.sol:GovernanceToken",
        "label": "_nameFallback",
        "offset": 0,
        "slot": "9",
        "type": "t_string_storage"
      },
      {
        "astId": 11472,
        "contract": "contracts/GovernanceToken.sol:GovernanceToken",
        "label": "_versionFallback",
        "offset": 0,
        "slot": "10",
        "type": "t_string_storage"
      },
      {
        "astId": 4611,
        "contract": "contracts/GovernanceToken.sol:GovernanceToken",
        "label": "_delegation",
        "offset": 0,
        "slot": "11",
        "type": "t_mapping(t_address,t_address)"
      },
      {
        "astId": 4617,
        "contract": "contracts/GovernanceToken.sol:GovernanceToken",
        "label": "_delegateCheckpoints",
        "offset": 0,
        "slot": "12",
        "type": "t_mapping(t_address,t_struct(Trace224)9420_storage)"
      },
      {
        "astId": 4621,
        "contract": "contracts/GovernanceToken.sol:GovernanceToken",
        "label": "_totalCheckpoints",
        "offset": 0,
        "slot": "13",
        "type": "t_struct(Trace224)9420_storage"
      },
      {
        "astId": 4626,
        "contract": "contracts/GovernanceToken.sol:GovernanceToken",
        "label": "_nonces",
        "offset": 0,
        "slot": "14",
        "type": "t_mapping(t_address,t_struct(Counter)10448_storage)"
      },
      {
        "astId": 14555,
        "contract": "contracts/GovernanceToken.sol:GovernanceToken",
        "label": "_tokenIdCounter",
        "offset": 0,
        "slot": "15",
        "type": "t_struct(Counter)10448_storage"
      },
      {
        "astId": 14558,
        "contract": "contracts/GovernanceToken.sol:GovernanceToken",
        "label": "_baseTokenURI",
        "offset": 0,
        "slot": "16",
        "type": "t_string_storage"
      }
    ],
    "types": {
      "t_address": {
        "encoding": "inplace",
        "label": "address",
        "numberOfBytes": "20"
      },
      "t_array(t_struct(Checkpoint224)9425_storage)dyn_storage": {
        "base": "t_struct(Checkpoint224)9425_storage",
        "encoding": "dynamic_array",
        "label": "struct Checkpoints.Checkpoint224[]",
        "numberOfBytes": "32"
      },
      "t_bool": {
        "encoding": "inplace",
        "label": "bool",
        "numberOfBytes": "1"
      },
      "t_mapping(t_address,t_address)": {
        "encoding": "mapping",
        "key": "t_address",
        "label": "mapping(address => address)",
        "numberOfBytes": "32",
        "value": "t_address"
      },
      "t_mapping(t_address,t_bool)": {
        "encoding": "mapping",
        "key": "t_address",
        "label": "mapping(address => bool)",
        "numberOfBytes": "32",
        "value": "t_bool"
      },
      "t_mapping(t_address,t_mapping(t_address,t_bool))": {
        "encoding": "mapping",
        "key": "t_address",
        "label": "mapping(address => mapping(address => bool))",
        "numberOfBytes": "32",
        "value": "t_mapping(t_address,t_bool)"
      },
      "t_mapping(t_address,t_struct(Counter)10448_storage)": {
        "encoding": "mapping",
        "key": "t_address",
        "label": "mapping(address => struct Counters.Counter)",
        "numberOfBytes": "32",
        "value": "t_struct(Counter)10448_storage"
      },
      "t_mapping(t_address,t_struct(Trace224)9420_storage)": {
        "encoding": "mapping",
        "key": "t_address",
        "label": "mapping(address => struct Checkpoints.Trace224)",
        "numberOfBytes": "32",
        "value": "t_struct(Trace224)9420_storage"
      },
      "t_mapping(t_address,t_uint256)": {
        "encoding": "mapping",
        "key": "t_address",
        "label": "mapping(address => uint256)",
        "numberOfBytes": "32",
        "value": "t_uint256"
      },
      "t_mapping(t_uint256,t_struct(TokenApprovalRef)15451_storage)": {
        "encoding": "mapping",
        "key": "t_uint256",
        "label": "mapping(uint256 => struct ERC721A.TokenApprovalRef)",
        "numberOfBytes": "32",
        "value": "t_struct(TokenApprovalRef)15451_storage"
      },
      "t_mapping(t_uint256,t_uint256)": {
        "encoding": "mapping",
        "key": "t_uint256",
        "label": "mapping(uint256 => uint256)",
        "numberOfBytes": "32",
        "value": "t_uint256"
      },
      "t_string_storage": {
        "encoding": "bytes",
        "label": "string",
        "numberOfBytes": "32"
      },
      "t_struct(Checkpoint224)9425_storage": {
        "encoding": "inplace",
        "label": "struct Checkpoints.Checkpoint224",
        "members": [
          {
            "astId": 9422,
            "contract": "contracts/GovernanceToken.sol:GovernanceToken",
            "label": "_key",
            "offset": 0,
            "slot": "0",
            "type": "t_uint32"
          },
          {
            "astId": 9424,
            "contract": "contracts/GovernanceToken.sol:GovernanceToken",
            "label": "_value",
            "offset": 4,
            "slot": "0",
            "type": "t_uint224"
          }
        ],
        "numberOfBytes": "32"
      },
      "t_struct(Counter)10448_storage": {
        "encoding": "inplace",
        "label": "struct Counters.Counter",
        "members": [
          {
            "astId": 10447,
            "contract": "contracts/GovernanceToken.sol:GovernanceToken",
            "label": "_value",
            "offset": 0,
            "slot": "0",
            "type": "t_uint256"
          }
        ],
        "numberOfBytes": "32"
      },
      "t_struct(TokenApprovalRef)15451_storage": {
        "encoding": "inplace",
        "label": "struct ERC721A.TokenApprovalRef",
        "members": [
          {
            "astId": 15450,
            "contract": "contracts/GovernanceToken.sol:GovernanceToken",
            "label": "value",
            "offset": 0,
            "slot": "0",
            "type": "t_address"
          }
        ],
        "numberOfBytes": "32"
      },
      "t_struct(Trace224)9420_storage": {
        "encoding": "inplace",
        "label": "struct Checkpoints.Trace224",
        "members": [
          {
            "astId": 9419,
            "contract": "contracts/GovernanceToken.sol:GovernanceToken",
            "label": "_checkpoints",
            "offset": 0,
            "slot": "0",
            "type": "t_array(t_struct(Checkpoint224)9425_storage)dyn_storage"
          }
        ],
        "numberOfBytes": "32"
      },
      "t_uint224": {
        "encoding": "inplace",
        "label": "uint224",
        "numberOfBytes": "28"
      },
      "t_uint256": {
        "encoding": "inplace",
        "label": "uint256",
        "numberOfBytes": "32"
      },
      "t_uint32": {
        "encoding": "inplace",
        "label": "uint32",
        "numberOfBytes": "4"
      }
    }
  }
}