{
  "address": "0x74dC83cd7d735d9Ca306A7f8cd967af2d1452160",
  "abi": [
    {
      "inputs": [
        {
          "internalType": "uint256",
          "name": "minDelay",
          "type": "uint256"
        },
        {
          "internalType": "address[]",
          "name": "proposers",
          "type": "address[]"
        },
        {
          "internalType": "address[]",
          "name": "executors",
          "type": "address[]"
        },
        {
          "internalType": "address",
          "name": "_admin",
          "type": "address"
        },
        {
          "internalType": "string",
          "name": "_name",
          "type": "string"
        }
      ],
      "stateMutability": "nonpayable",
      "type": "constructor"
    },
    {
      "anonymous": false,
      "inputs": [
        {
          "indexed": true,
          "internalType": "bytes32",
          "name": "id",
          "type": "bytes32"
        },
        {
          "indexed": true,
          "internalType": "uint256",
          "name": "index",
          "type": "uint256"
        },
        {
          "indexed": false,
          "internalType": "address",
          "name": "target",
          "type": "address"
        },
        {
          "indexed": false,
          "internalType": "uint256",
          "name": "value",
          "type": "uint256"
        },
        {
          "indexed": false,
          "internalType": "bytes",
          "name": "data",
          "type": "bytes"
        }
      ],
      "name": "CallExecuted",
      "type": "event"
    },
    {
      "anonymous": false,
      "inputs": [
        {
          "indexed": true,
          "internalType": "bytes32",
          "name": "id",
          "type": "bytes32"
        },
        {
          "indexed": false,
          "internalType": "bytes32",
          "name": "salt",
          "type": "bytes32"
        }
      ],
      "name": "CallSalt",
      "type": "event"
    },
    {
      "anonymous": false,
      "inputs": [
        {
          "indexed": true,
          "internalType": "bytes32",
          "name": "id",
          "type": "bytes32"
        },
        {
          "indexed": true,
          "internalType": "uint256",
          "name": "index",
          "type": "uint256"
        },
        {
          "indexed": false,
          "internalType": "address",
          "name": "target",
          "type": "address"
        },
        {
          "indexed": false,
          "internalType": "uint256",
          "name": "value",
          "type": "uint256"
        },
        {
          "indexed": false,
          "internalType": "bytes",
          "name": "data",
          "type": "bytes"
        },
        {
          "indexed": false,
          "internalType": "bytes32",
          "name": "predecessor",
          "type": "bytes32"
        },
        {
          "indexed": false,
          "internalType": "uint256",
          "name": "delay",
          "type": "uint256"
        }
      ],
      "name": "CallScheduled",
      "type": "event"
    },
    {
      "anonymous": false,
      "inputs": [
        {
          "indexed": true,
          "internalType": "bytes32",
          "name": "id",
          "type": "bytes32"
        }
      ],
      "name": "Cancelled",
      "type": "event"
    },
    {
      "anonymous": false,
      "inputs": [
        {
          "indexed": false,
          "internalType": "uint256",
          "name": "oldDuration",
          "type": "uint256"
        },
        {
          "indexed": false,
          "internalType": "uint256",
          "name": "newDuration",
          "type": "uint256"
        }
      ],
      "name": "MinDelayChange",
      "type": "event"
    },
    {
      "anonymous": false,
      "inputs": [
        {
          "indexed": true,
          "internalType": "bytes32",
          "name": "role",
          "type": "bytes32"
        },
        {
          "indexed": true,
          "internalType": "bytes32",
          "name": "previousAdminRole",
          "type": "bytes32"
        },
        {
          "indexed": true,
          "internalType": "bytes32",
          "name": "newAdminRole",
          "type": "bytes32"
        }
      ],
      "name": "RoleAdminChanged",
      "type": "event"
    },
    {
      "anonymous": false,
      "inputs": [
        {
          "indexed": true,
          "internalType": "bytes32",
          "name": "role",
          "type": "bytes32"
        },
        {
          "indexed": true,
          "internalType": "address",
          "name": "account",
          "type": "address"
        },
        {
          "indexed": true,
          "internalType": "address",
          "name": "sender",
          "type": "address"
        }
      ],
      "name": "RoleGranted",
      "type": "event"
    },
    {
      "anonymous": false,
      "inputs": [
        {
          "indexed": true,
          "internalType": "bytes32",
          "name": "role",
          "type": "bytes32"
        },
        {
          "indexed": true,
          "internalType": "address",
          "name": "account",
          "type": "address"
        },
        {
          "indexed": true,
          "internalType": "address",
          "name": "sender",
          "type": "address"
        }
      ],
      "name": "RoleRevoked",
      "type": "event"
    },
    {
      "inputs": [],
      "name": "CANCELLER_ROLE",
      "outputs": [
        {
          "internalType": "bytes32",
          "name": "",
          "type": "bytes32"
        }
      ],
      "stateMutability": "view",
      "type": "function"
    },
    {
      "inputs": [],
      "name": "DEFAULT_ADMIN_ROLE",
      "outputs": [
        {
          "internalType": "bytes32",
          "name": "",
          "type": "bytes32"
        }
      ],
      "stateMutability": "view",
      "type": "function"
    },
    {
      "inputs": [],
      "name": "EXECUTOR_ROLE",
      "outputs": [
        {
          "internalType": "bytes32",
          "name": "",
          "type": "bytes32"
        }
      ],
      "stateMutability": "view",
      "type": "function"
    },
    {
      "inputs": [],
      "name": "PROPOSER_ROLE",
      "outputs": [
        {
          "internalType": "bytes32",
          "name": "",
          "type": "bytes32"
        }
      ],
      "stateMutability": "view",
      "type": "function"
    },
    {
      "inputs": [],
      "name": "TIMELOCK_ADMIN_ROLE",
      "outputs": [
        {
          "internalType": "bytes32",
          "name": "",
          "type": "bytes32"
        }
      ],
      "stateMutability": "view",
      "type": "function"
    },
    {
      "inputs": [
        {
          "internalType": "bytes32",
          "name": "id",
          "type": "bytes32"
        }
      ],
      "name": "cancel",
      "outputs": [],
      "stateMutability": "nonpayable",
      "type": "function"
    },
    {
      "inputs": [
        {
          "internalType": "address",
          "name": "target",
          "type": "address"
        },
        {
          "internalType": "uint256",
          "name": "value",
          "type": "uint256"
        },
        {
          "internalType": "bytes",
          "name": "payload",
          "type": "bytes"
        },
        {
          "internalType": "bytes32",
          "name": "predecessor",
          "type": "bytes32"
        },
        {
          "internalType": "bytes32",
          "name": "salt",
          "type": "bytes32"
        }
      ],
      "name": "execute",
      "outputs": [],
      "stateMutability": "payable",
      "type": "function"
    },
    {
      "inputs": [
        {
          "internalType": "address[]",
          "name": "targets",
          "type": "address[]"
        },
        {
          "internalType": "uint256[]",
          "name": "values",
          "type": "uint256[]"
        },
        {
          "internalType": "bytes[]",
          "name": "payloads",
          "type": "bytes[]"
        },
        {
          "internalType": "bytes32",
          "name": "predecessor",
          "type": "bytes32"
        },
        {
          "internalType": "bytes32",
          "name": "salt",
          "type": "bytes32"
        }
      ],
      "name": "executeBatch",
      "outputs": [],
      "stateMutability": "payable",
      "type": "function"
    },
    {
      "inputs": [],
      "name": "getMinDelay",
      "outputs": [
        {
          "internalType": "uint256",
          "name": "",
          "type": "uint256"
        }
      ],
      "stateMutability": "view",
      "type": "function"
    },
    {
      "inputs": [
        {
          "internalType": "bytes32",
          "name": "role",
          "type": "bytes32"
        }
      ],
      "name": "getRoleAdmin",
      "outputs": [
        {
          "internalType": "bytes32",
          "name": "",
          "type": "bytes32"
        }
      ],
      "stateMutability": "view",
      "type": "function"
    },
    {
      "inputs": [
        {
          "internalType": "bytes32",
          "name": "id",
          "type": "bytes32"
        }
      ],
      "name": "getTimestamp",
      "outputs": [
        {
          "internalType": "uint256",
          "name": "",
          "type": "uint256"
        }
      ],
      "stateMutability": "view",
      "type": "function"
    },
    {
      "inputs": [
        {
          "internalType": "bytes32",
          "name": "role",
          "type": "bytes32"
        },
        {
          "internalType": "address",
          "name": "account",
          "type": "address"
        }
      ],
      "name": "grantRole",
      "outputs": [],
      "stateMutability": "nonpayable",
      "type": "function"
    },
    {
      "inputs": [
        {
          "internalType": "bytes32",
          "name": "role",
          "type": "bytes32"
        },
        {
          "internalType": "address",
          "name": "account",
          "type": "address"
        }
      ],
      "name": "hasRole",
      "outputs": [
        {
          "internalType": "bool",
          "name": "",
          "type": "bool"
        }
      ],
      "stateMutability": "view",
      "type": "function"
    },
    {
      "inputs": [
        {
          "internalType": "address",
          "name": "target",
          "type": "address"
        },
        {
          "internalType": "uint256",
          "name": "value",
          "type": "uint256"
        },
        {
          "internalType": "bytes",
          "name": "data",
          "type": "bytes"
        },
        {
          "internalType": "bytes32",
          "name": "predecessor",
          "type": "bytes32"
        },
        {
          "internalType": "bytes32",
          "name": "salt",
          "type": "bytes32"
        }
      ],
      "name": "hashOperation",
      "outputs": [
        {
          "internalType": "bytes32",
          "name": "",
          "type": "bytes32"
        }
      ],
      "stateMutability": "pure",
      "type": "function"
    },
    {
      "inputs": [
        {
          "internalType": "address[]",
          "name": "targets",
          "type": "address[]"
        },
        {
          "internalType": "uint256[]",
          "name": "values",
          "type": "uint256[]"
        },
        {
          "internalType": "bytes[]",
          "name": "payloads",
          "type": "bytes[]"
        },
        {
          "internalType": "bytes32",
          "name": "predecessor",
          "type": "bytes32"
        },
        {
          "internalType": "bytes32",
          "name": "salt",
          "type": "bytes32"
        }
      ],
      "name": "hashOperationBatch",
      "outputs": [
        {
          "internalType": "bytes32",
          "name": "",
          "type": "bytes32"
        }
      ],
      "stateMutability": "pure",
      "type": "function"
    },
    {
      "inputs": [
        {
          "internalType": "bytes32",
          "name": "id",
          "type": "bytes32"
        }
      ],
      "name": "isOperation",
      "outputs": [
        {
          "internalType": "bool",
          "name": "",
          "type": "bool"
        }
      ],
      "stateMutability": "view",
      "type": "function"
    },
    {
      "inputs": [
        {
          "internalType": "bytes32",
          "name": "id",
          "type": "bytes32"
        }
      ],
      "name": "isOperationDone",
      "outputs": [
        {
          "internalType": "bool",
          "name": "",
          "type": "bool"
        }
      ],
      "stateMutability": "view",
      "type": "function"
    },
    {
      "inputs": [
        {
          "internalType": "bytes32",
          "name": "id",
          "type": "bytes32"
        }
      ],
      "name": "isOperationPending",
      "outputs": [
        {
          "internalType": "bool",
          "name": "",
          "type": "bool"
        }
      ],
      "stateMutability": "view",
      "type": "function"
    },
    {
      "inputs": [
        {
          "internalType": "bytes32",
          "name": "id",
          "type": "bytes32"
        }
      ],
      "name": "isOperationReady",
      "outputs": [
        {
          "internalType": "bool",
          "name": "",
          "type": "bool"
        }
      ],
      "stateMutability": "view",
      "type": "function"
    },
    {
      "inputs": [],
      "name": "name",
      "outputs": [
        {
          "internalType": "string",
          "name": "",
          "type": "string"
        }
      ],
      "stateMutability": "view",
      "type": "function"
    },
    {
      "inputs": [
        {
          "internalType": "address",
          "name": "",
          "type": "address"
        },
        {
          "internalType": "address",
          "name": "",
          "type": "address"
        },
        {
          "internalType": "uint256[]",
          "name": "",
          "type": "uint256[]"
        },
        {
          "internalType": "uint256[]",
          "name": "",
          "type": "uint256[]"
        },
        {
          "internalType": "bytes",
          "name": "",
          "type": "bytes"
        }
      ],
      "name": "onERC1155BatchReceived",
      "outputs": [
        {
          "internalType": "bytes4",
          "name": "",
          "type": "bytes4"
        }
      ],
      "stateMutability": "nonpayable",
      "type": "function"
    },
    {
      "inputs": [
        {
          "internalType": "address",
          "name": "",
          "type": "address"
        },
        {
          "internalType": "address",
          "name": "",
          "type": "address"
        },
        {
          "internalType": "uint256",
          "name": "",
          "type": "uint256"
        },
        {
          "internalType": "uint256",
          "name": "",
          "type": "uint256"
        },
        {
          "internalType": "bytes",
          "name": "",
          "type": "bytes"
        }
      ],
      "name": "onERC1155Received",
      "outputs": [
        {
          "internalType": "bytes4",
          "name": "",
          "type": "bytes4"
        }
      ],
      "stateMutability": "nonpayable",
      "type": "function"
    },
    {
      "inputs": [
        {
          "internalType": "address",
          "name": "",
          "type": "address"
        },
        {
          "internalType": "address",
          "name": "",
          "type": "address"
        },
        {
          "internalType": "uint256",
          "name": "",
          "type": "uint256"
        },
        {
          "internalType": "bytes",
          "name": "",
          "type": "bytes"
        }
      ],
      "name": "onERC721Received",
      "outputs": [
        {
          "internalType": "bytes4",
          "name": "",
          "type": "bytes4"
        }
      ],
      "stateMutability": "nonpayable",
      "type": "function"
    },
    {
      "inputs": [
        {
          "internalType": "bytes32",
          "name": "role",
          "type": "bytes32"
        },
        {
          "internalType": "address",
          "name": "account",
          "type": "address"
        }
      ],
      "name": "renounceRole",
      "outputs": [],
      "stateMutability": "nonpayable",
      "type": "function"
    },
    {
      "inputs": [
        {
          "internalType": "bytes32",
          "name": "role",
          "type": "bytes32"
        },
        {
          "internalType": "address",
          "name": "account",
          "type": "address"
        }
      ],
      "name": "revokeRole",
      "outputs": [],
      "stateMutability": "nonpayable",
      "type": "function"
    },
    {
      "inputs": [
        {
          "internalType": "address",
          "name": "target",
          "type": "address"
        },
        {
          "internalType": "uint256",
          "name": "value",
          "type": "uint256"
        },
        {
          "internalType": "bytes",
          "name": "data",
          "type": "bytes"
        },
        {
          "internalType": "bytes32",
          "name": "predecessor",
          "type": "bytes32"
        },
        {
          "internalType": "bytes32",
          "name": "salt",
          "type": "bytes32"
        },
        {
          "internalType": "uint256",
          "name": "delay",
          "type": "uint256"
        }
      ],
      "name": "schedule",
      "outputs": [],
      "stateMutability": "nonpayable",
      "type": "function"
    },
    {
      "inputs": [
        {
          "internalType": "address[]",
          "name": "targets",
          "type": "address[]"
        },
        {
          "internalType": "uint256[]",
          "name": "values",
          "type": "uint256[]"
        },
        {
          "internalType": "bytes[]",
          "name": "payloads",
          "type": "bytes[]"
        },
        {
          "internalType": "bytes32",
          "name": "predecessor",
          "type": "bytes32"
        },
        {
          "internalType": "bytes32",
          "name": "salt",
          "type": "bytes32"
        },
        {
          "internalType": "uint256",
          "name": "delay",
          "type": "uint256"
        }
      ],
      "name": "scheduleBatch",
      "outputs": [],
      "stateMutability": "nonpayable",
      "type": "function"
    },
    {
      "inputs": [
        {
          "internalType": "bytes4",
          "name": "interfaceId",
          "type": "bytes4"
        }
      ],
      "name": "supportsInterface",
      "outputs": [
        {
          "internalType": "bool",
          "name": "",
          "type": "bool"
        }
      ],
      "stateMutability": "view",
      "type": "function"
    },
    {
      "inputs": [
        {
          "internalType": "uint256",
          "name": "newDelay",
          "type": "uint256"
        }
      ],
      "name": "updateDelay",
      "outputs": [],
      "stateMutability": "nonpayable",
      "type": "function"
    },
    {
      "stateMutability": "payable",
      "type": "receive"
    }
  ],
  "transactionHash": "0x174879c6e72362fd8b2dd97cbe7f52076777e29ae8b3a218fb719041aefba3ad",
  "args": [
    43200,
    [],
    [],
    "0x7057466420B99F697340cCD551E3c510181558C5",
    "HKW_CAN_DAO"
  ],
  "numDeployments": 5,
  "solcInputHash": "ccf551590eb977e546752609ee4e6323",
  "bytecode": "0x60806040523480156200001157600080fd5b5060405162002efe38038062002efe8339810160408190526200003491620004e4565b848484846200005360008051602062002e7e833981519152806200024c565b6200007d60008051602062002e9e83398151915260008051602062002e7e8339815191526200024c565b620000a760008051602062002ebe83398151915260008051602062002e7e8339815191526200024c565b620000d160008051602062002ede83398151915260008051602062002e7e8339815191526200024c565b620000ec60008051602062002e7e8339815191523062000297565b6001600160a01b0381161562000117576200011760008051602062002e7e8339815191528262000297565b60005b83518110156200019d576200016160008051602062002e9e8339815191528583815181106200014d576200014d62000612565b60200260200101516200029760201b60201c565b6200018a60008051602062002ede8339815191528583815181106200014d576200014d62000612565b620001958162000628565b90506200011a565b5060005b8251811015620001e757620001d460008051602062002ebe8339815191528483815181106200014d576200014d62000612565b620001df8162000628565b9050620001a1565b5060028490556040805160008152602081018690527f11c24f4ead16507c69ac467fbd5e4eed5fb5c699626d2cc6d66421df253886d5910160405180910390a15050825162000240925060039150602084019062000347565b5050505050506200068f565b600082815260208190526040808220600101805490849055905190918391839186917fbd79b86ffe0ab8e8776151514217cd7cacd52c909f66475c3af44e129f0b00ff9190a4505050565b620002a38282620002a7565b5050565b6000828152602081815260408083206001600160a01b038516845290915290205460ff16620002a3576000828152602081815260408083206001600160a01b03851684529091529020805460ff19166001179055620003033390565b6001600160a01b0316816001600160a01b0316837f2f8788117e7eff1d82e926ec794901d17c78024a50270940304540a733656f0d60405160405180910390a45050565b828054620003559062000652565b90600052602060002090601f016020900481019282620003795760008555620003c4565b82601f106200039457805160ff1916838001178555620003c4565b82800160010185558215620003c4579182015b82811115620003c4578251825591602001919060010190620003a7565b50620003d2929150620003d6565b5090565b5b80821115620003d25760008155600101620003d7565b634e487b7160e01b600052604160045260246000fd5b604051601f8201601f191681016001600160401b03811182821017156200042e576200042e620003ed565b604052919050565b80516001600160a01b03811681146200044e57600080fd5b919050565b600082601f8301126200046557600080fd5b815160206001600160401b03821115620004835762000483620003ed565b8160051b6200049482820162000403565b9283528481018201928281019087851115620004af57600080fd5b83870192505b84831015620004d957620004c98362000436565b82529183019190830190620004b5565b979650505050505050565b600080600080600060a08688031215620004fd57600080fd5b8551602080880151919650906001600160401b03808211156200051f57600080fd5b6200052d8a838b0162000453565b965060408901519150808211156200054457600080fd5b620005528a838b0162000453565b95506200056260608a0162000436565b945060808901519150808211156200057957600080fd5b818901915089601f8301126200058e57600080fd5b815181811115620005a357620005a3620003ed565b620005b7601f8201601f1916850162000403565b91508082528a84828501011115620005ce57600080fd5b60005b81811015620005ee578381018501518382018601528401620005d1565b81811115620006005760008583850101525b50508093505050509295509295909350565b634e487b7160e01b600052603260045260246000fd5b60006000198214156200064b57634e487b7160e01b600052601160045260246000fd5b5060010190565b600181811c908216806200066757607f821691505b602082108114156200068957634e487b7160e01b600052602260045260246000fd5b50919050565b6127df806200069f6000396000f3fe6080604052600436106101c65760003560e01c806364d62353116100f7578063b1c5f42711610095578063d547741f11610064578063d547741f1461062a578063e38335e51461064a578063f23a6e611461065d578063f27a0c92146106a257600080fd5b8063b1c5f42714610578578063bc197c8114610598578063c4d252f5146105dd578063d45c4435146105fd57600080fd5b80638f61f4f5116100d15780638f61f4f5146104aa57806391d14854146104de578063a217fddf1461052f578063b08e51c01461054457600080fd5b806364d623531461044a5780638065657f1461046a5780638f2a0bb01461048a57600080fd5b8063150b7a02116101645780632f2ff15d1161013e5780632f2ff15d146103ca57806331d50750146103ea57806336568abe1461040a578063584b153e1461042a57600080fd5b8063150b7a02146102f4578063248a9ca3146103695780632ab0f5291461039957600080fd5b806307bd0265116101a057806307bd02651461024b5780630d3cf6fc1461028d578063134008d3146102c157806313bc9f20146102d457600080fd5b806301d5062a146101d257806301ffc9a7146101f457806306fdde031461022957600080fd5b366101cd57005b600080fd5b3480156101de57600080fd5b506101f26101ed366004611c43565b6106b7565b005b34801561020057600080fd5b5061021461020f366004611cb8565b61078d565b60405190151581526020015b60405180910390f35b34801561023557600080fd5b5061023e6107e9565b6040516102209190611d2a565b34801561025757600080fd5b5061027f7fd8aa0f3194971a2a116679f7c2090f6939c8d4e01a2a8d7e41d55e5351469e6381565b604051908152602001610220565b34801561029957600080fd5b5061027f7f5f58e3a2316349923ce3780f8d587db2d72378aed66a8261c916544fa6846ca581565b6101f26102cf366004611d7b565b610877565b3480156102e057600080fd5b506102146102ef366004611de7565b61096f565b34801561030057600080fd5b5061033861030f366004611f0c565b7f150b7a0200000000000000000000000000000000000000000000000000000000949350505050565b6040517fffffffff000000000000000000000000000000000000000000000000000000009091168152602001610220565b34801561037557600080fd5b5061027f610384366004611de7565b60009081526020819052604090206001015490565b3480156103a557600080fd5b506102146103b4366004611de7565b6000908152600160208190526040909120541490565b3480156103d657600080fd5b506101f26103e5366004611f74565b610995565b3480156103f657600080fd5b50610214610405366004611de7565b6109bf565b34801561041657600080fd5b506101f2610425366004611f74565b6109d8565b34801561043657600080fd5b50610214610445366004611de7565b610a90565b34801561045657600080fd5b506101f2610465366004611de7565b610aa6565b34801561047657600080fd5b5061027f610485366004611d7b565b610b76565b34801561049657600080fd5b506101f26104a5366004611fe5565b610bb5565b3480156104b657600080fd5b5061027f7fb09aa5aeb3702cfd50b6b62bc4532604938f21248a27a1d5ca736082b6819cc181565b3480156104ea57600080fd5b506102146104f9366004611f74565b60009182526020828152604080842073ffffffffffffffffffffffffffffffffffffffff93909316845291905290205460ff1690565b34801561053b57600080fd5b5061027f600081565b34801561055057600080fd5b5061027f7ffd643c72710c63c0180259aba6b2d05451e3591a24e58b62239378085726f78381565b34801561058457600080fd5b5061027f610593366004612097565b610e28565b3480156105a457600080fd5b506103386105b33660046121c0565b7fbc197c810000000000000000000000000000000000000000000000000000000095945050505050565b3480156105e957600080fd5b506101f26105f8366004611de7565b610e6d565b34801561060957600080fd5b5061027f610618366004611de7565b60009081526001602052604090205490565b34801561063657600080fd5b506101f2610645366004611f74565b610f68565b6101f2610658366004612097565b610f8d565b34801561066957600080fd5b5061033861067836600461226a565b7ff23a6e610000000000000000000000000000000000000000000000000000000095945050505050565b3480156106ae57600080fd5b5060025461027f565b7fb09aa5aeb3702cfd50b6b62bc4532604938f21248a27a1d5ca736082b6819cc16106e18161123a565b60006106f1898989898989610b76565b90506106fd8184611247565b6000817f4cf4410cc57040e44862ef0f45f3dd5a5e02db8eb8add648d4b0e236f1d07dca8b8b8b8b8b8a60405161073996959493929190612318565b60405180910390a3831561078257807f20fda5fd27a1ea7bf5b9567f143ac5470bb059374a27e8f67cb44f946f6d03878560405161077991815260200190565b60405180910390a25b505050505050505050565b60007fffffffff0000000000000000000000000000000000000000000000000000000082167f4e2312e00000000000000000000000000000000000000000000000000000000014806107e357506107e38261138f565b92915050565b600380546107f690612363565b80601f016020809104026020016040519081016040528092919081815260200182805461082290612363565b801561086f5780601f106108445761010080835404028352916020019161086f565b820191906000526020600020905b81548152906001019060200180831161085257829003601f168201915b505050505081565b600080527fdae2aa361dfd1ca020a396615627d436107c35eff9fe7738a3512819782d70696020527f5ba6852781629bcdcd4bdaa6de76d786f1c64b16acdac474e55bebc0ea157951547fd8aa0f3194971a2a116679f7c2090f6939c8d4e01a2a8d7e41d55e5351469e639060ff166108f4576108f48133611426565b6000610904888888888888610b76565b905061091081856114de565b61091c8888888861161b565b6000817fc2617efa69bab66782fa219543714338489c4e9e178271560a91b82c3f612b588a8a8a8a60405161095494939291906123b7565b60405180910390a36109658161171f565b5050505050505050565b60008181526001602052604081205460018111801561098e5750428111155b9392505050565b6000828152602081905260409020600101546109b08161123a565b6109ba83836117c8565b505050565b60008181526001602052604081205481905b1192915050565b73ffffffffffffffffffffffffffffffffffffffff81163314610a82576040517f08c379a000000000000000000000000000000000000000000000000000000000815260206004820152602f60248201527f416363657373436f6e74726f6c3a2063616e206f6e6c792072656e6f756e636560448201527f20726f6c657320666f722073656c66000000000000000000000000000000000060648201526084015b60405180910390fd5b610a8c82826118b8565b5050565b60008181526001602081905260408220546109d1565b333014610b35576040517f08c379a000000000000000000000000000000000000000000000000000000000815260206004820152602b60248201527f54696d656c6f636b436f6e74726f6c6c65723a2063616c6c6572206d7573742060448201527f62652074696d656c6f636b0000000000000000000000000000000000000000006064820152608401610a79565b60025460408051918252602082018390527f11c24f4ead16507c69ac467fbd5e4eed5fb5c699626d2cc6d66421df253886d5910160405180910390a1600255565b6000868686868686604051602001610b9396959493929190612318565b6040516020818303038152906040528051906020012090509695505050505050565b7fb09aa5aeb3702cfd50b6b62bc4532604938f21248a27a1d5ca736082b6819cc1610bdf8161123a565b888714610c6e576040517f08c379a000000000000000000000000000000000000000000000000000000000815260206004820152602360248201527f54696d656c6f636b436f6e74726f6c6c65723a206c656e677468206d69736d6160448201527f74636800000000000000000000000000000000000000000000000000000000006064820152608401610a79565b888514610cfd576040517f08c379a000000000000000000000000000000000000000000000000000000000815260206004820152602360248201527f54696d656c6f636b436f6e74726f6c6c65723a206c656e677468206d69736d6160448201527f74636800000000000000000000000000000000000000000000000000000000006064820152608401610a79565b6000610d0f8b8b8b8b8b8b8b8b610e28565b9050610d1b8184611247565b60005b8a811015610dd95780827f4cf4410cc57040e44862ef0f45f3dd5a5e02db8eb8add648d4b0e236f1d07dca8e8e85818110610d5b57610d5b6123f7565b9050602002016020810190610d709190612426565b8d8d86818110610d8257610d826123f7565b905060200201358c8c87818110610d9b57610d9b6123f7565b9050602002810190610dad9190612441565b8c8b604051610dc196959493929190612318565b60405180910390a3610dd2816124d5565b9050610d1e565b508315610e1b57807f20fda5fd27a1ea7bf5b9567f143ac5470bb059374a27e8f67cb44f946f6d038785604051610e1291815260200190565b60405180910390a25b5050505050505050505050565b60008888888888888888604051602001610e499897969594939291906125bd565b60405160208183030381529060405280519060200120905098975050505050505050565b7ffd643c72710c63c0180259aba6b2d05451e3591a24e58b62239378085726f783610e978161123a565b610ea082610a90565b610f2c576040517f08c379a000000000000000000000000000000000000000000000000000000000815260206004820152603160248201527f54696d656c6f636b436f6e74726f6c6c65723a206f7065726174696f6e20636160448201527f6e6e6f742062652063616e63656c6c65640000000000000000000000000000006064820152608401610a79565b6000828152600160205260408082208290555183917fbaa1eb22f2a492ba1a5fea61b8df4d27c6c8b5f3971e63bb58fa14ff72eedb7091a25050565b600082815260208190526040902060010154610f838161123a565b6109ba83836118b8565b600080527fdae2aa361dfd1ca020a396615627d436107c35eff9fe7738a3512819782d70696020527f5ba6852781629bcdcd4bdaa6de76d786f1c64b16acdac474e55bebc0ea157951547fd8aa0f3194971a2a116679f7c2090f6939c8d4e01a2a8d7e41d55e5351469e639060ff1661100a5761100a8133611426565b878614611099576040517f08c379a000000000000000000000000000000000000000000000000000000000815260206004820152602360248201527f54696d656c6f636b436f6e74726f6c6c65723a206c656e677468206d69736d6160448201527f74636800000000000000000000000000000000000000000000000000000000006064820152608401610a79565b878414611128576040517f08c379a000000000000000000000000000000000000000000000000000000000815260206004820152602360248201527f54696d656c6f636b436f6e74726f6c6c65723a206c656e677468206d69736d6160448201527f74636800000000000000000000000000000000000000000000000000000000006064820152608401610a79565b600061113a8a8a8a8a8a8a8a8a610e28565b905061114681856114de565b60005b898110156112245760008b8b83818110611165576111656123f7565b905060200201602081019061117a9190612426565b905060008a8a84818110611190576111906123f7565b9050602002013590503660008a8a868181106111ae576111ae6123f7565b90506020028101906111c09190612441565b915091506111d08484848461161b565b84867fc2617efa69bab66782fa219543714338489c4e9e178271560a91b82c3f612b588686868660405161120794939291906123b7565b60405180910390a3505050508061121d906124d5565b9050611149565b5061122e8161171f565b50505050505050505050565b6112448133611426565b50565b611250826109bf565b156112dd576040517f08c379a000000000000000000000000000000000000000000000000000000000815260206004820152602f60248201527f54696d656c6f636b436f6e74726f6c6c65723a206f7065726174696f6e20616c60448201527f7265616479207363686564756c656400000000000000000000000000000000006064820152608401610a79565b60025481101561136f576040517f08c379a000000000000000000000000000000000000000000000000000000000815260206004820152602660248201527f54696d656c6f636b436f6e74726f6c6c65723a20696e73756666696369656e7460448201527f2064656c617900000000000000000000000000000000000000000000000000006064820152608401610a79565b611379814261268e565b6000928352600160205260409092209190915550565b60007fffffffff0000000000000000000000000000000000000000000000000000000082167f7965db0b0000000000000000000000000000000000000000000000000000000014806107e357507f01ffc9a7000000000000000000000000000000000000000000000000000000007fffffffff000000000000000000000000000000000000000000000000000000008316146107e3565b60008281526020818152604080832073ffffffffffffffffffffffffffffffffffffffff8516845290915290205460ff16610a8c576114648161196f565b61146f83602061198e565b6040516020016114809291906126a6565b604080517fffffffffffffffffffffffffffffffffffffffffffffffffffffffffffffffe0818403018152908290527f08c379a0000000000000000000000000000000000000000000000000000000008252610a7991600401611d2a565b6114e78261096f565b611573576040517f08c379a000000000000000000000000000000000000000000000000000000000815260206004820152602a60248201527f54696d656c6f636b436f6e74726f6c6c65723a206f7065726174696f6e20697360448201527f206e6f74207265616479000000000000000000000000000000000000000000006064820152608401610a79565b80158061158f5750600081815260016020819052604090912054145b610a8c576040517f08c379a000000000000000000000000000000000000000000000000000000000815260206004820152602660248201527f54696d656c6f636b436f6e74726f6c6c65723a206d697373696e67206465706560448201527f6e64656e637900000000000000000000000000000000000000000000000000006064820152608401610a79565b60008473ffffffffffffffffffffffffffffffffffffffff16848484604051611645929190612727565b60006040518083038185875af1925050503d8060008114611682576040519150601f19603f3d011682016040523d82523d6000602084013e611687565b606091505b5050905080611718576040517f08c379a000000000000000000000000000000000000000000000000000000000815260206004820152603360248201527f54696d656c6f636b436f6e74726f6c6c65723a20756e6465726c79696e67207460448201527f72616e73616374696f6e207265766572746564000000000000000000000000006064820152608401610a79565b5050505050565b6117288161096f565b6117b4576040517f08c379a000000000000000000000000000000000000000000000000000000000815260206004820152602a60248201527f54696d656c6f636b436f6e74726f6c6c65723a206f7065726174696f6e20697360448201527f206e6f74207265616479000000000000000000000000000000000000000000006064820152608401610a79565b600090815260016020819052604090912055565b60008281526020818152604080832073ffffffffffffffffffffffffffffffffffffffff8516845290915290205460ff16610a8c5760008281526020818152604080832073ffffffffffffffffffffffffffffffffffffffff85168452909152902080547fffffffffffffffffffffffffffffffffffffffffffffffffffffffffffffff0016600117905561185a3390565b73ffffffffffffffffffffffffffffffffffffffff168173ffffffffffffffffffffffffffffffffffffffff16837f2f8788117e7eff1d82e926ec794901d17c78024a50270940304540a733656f0d60405160405180910390a45050565b60008281526020818152604080832073ffffffffffffffffffffffffffffffffffffffff8516845290915290205460ff1615610a8c5760008281526020818152604080832073ffffffffffffffffffffffffffffffffffffffff8516808552925280832080547fffffffffffffffffffffffffffffffffffffffffffffffffffffffffffffff0016905551339285917ff6391f5c32d9c69d2a47ea670b442974b53935d1edc7fd64eb21e047a839171b9190a45050565b60606107e373ffffffffffffffffffffffffffffffffffffffff831660145b6060600061199d836002612737565b6119a890600261268e565b67ffffffffffffffff8111156119c0576119c0611e00565b6040519080825280601f01601f1916602001820160405280156119ea576020820181803683370190505b5090507f300000000000000000000000000000000000000000000000000000000000000081600081518110611a2157611a216123f7565b60200101907effffffffffffffffffffffffffffffffffffffffffffffffffffffffffffff1916908160001a9053507f780000000000000000000000000000000000000000000000000000000000000081600181518110611a8457611a846123f7565b60200101907effffffffffffffffffffffffffffffffffffffffffffffffffffffffffffff1916908160001a9053506000611ac0846002612737565b611acb90600161268e565b90505b6001811115611b68577f303132333435363738396162636465660000000000000000000000000000000085600f1660108110611b0c57611b0c6123f7565b1a60f81b828281518110611b2257611b226123f7565b60200101907effffffffffffffffffffffffffffffffffffffffffffffffffffffffffffff1916908160001a90535060049490941c93611b6181612774565b9050611ace565b50831561098e576040517f08c379a000000000000000000000000000000000000000000000000000000000815260206004820181905260248201527f537472696e67733a20686578206c656e67746820696e73756666696369656e746044820152606401610a79565b803573ffffffffffffffffffffffffffffffffffffffff81168114611bf557600080fd5b919050565b60008083601f840112611c0c57600080fd5b50813567ffffffffffffffff811115611c2457600080fd5b602083019150836020828501011115611c3c57600080fd5b9250929050565b600080600080600080600060c0888a031215611c5e57600080fd5b611c6788611bd1565b965060208801359550604088013567ffffffffffffffff811115611c8a57600080fd5b611c968a828b01611bfa565b989b979a50986060810135976080820135975060a09091013595509350505050565b600060208284031215611cca57600080fd5b81357fffffffff000000000000000000000000000000000000000000000000000000008116811461098e57600080fd5b60005b83811015611d15578181015183820152602001611cfd565b83811115611d24576000848401525b50505050565b6020815260008251806020840152611d49816040850160208701611cfa565b601f017fffffffffffffffffffffffffffffffffffffffffffffffffffffffffffffffe0169190910160400192915050565b60008060008060008060a08789031215611d9457600080fd5b611d9d87611bd1565b955060208701359450604087013567ffffffffffffffff811115611dc057600080fd5b611dcc89828a01611bfa565b979a9699509760608101359660809091013595509350505050565b600060208284031215611df957600080fd5b5035919050565b7f4e487b7100000000000000000000000000000000000000000000000000000000600052604160045260246000fd5b604051601f82017fffffffffffffffffffffffffffffffffffffffffffffffffffffffffffffffe016810167ffffffffffffffff81118282101715611e7657611e76611e00565b604052919050565b600082601f830112611e8f57600080fd5b813567ffffffffffffffff811115611ea957611ea9611e00565b611eda60207fffffffffffffffffffffffffffffffffffffffffffffffffffffffffffffffe0601f84011601611e2f565b818152846020838601011115611eef57600080fd5b816020850160208301376000918101602001919091529392505050565b60008060008060808587031215611f2257600080fd5b611f2b85611bd1565b9350611f3960208601611bd1565b925060408501359150606085013567ffffffffffffffff811115611f5c57600080fd5b611f6887828801611e7e565b91505092959194509250565b60008060408385031215611f8757600080fd5b82359150611f9760208401611bd1565b90509250929050565b60008083601f840112611fb257600080fd5b50813567ffffffffffffffff811115611fca57600080fd5b6020830191508360208260051b8501011115611c3c57600080fd5b600080600080600080600080600060c08a8c03121561200357600080fd5b893567ffffffffffffffff8082111561201b57600080fd5b6120278d838e01611fa0565b909b50995060208c013591508082111561204057600080fd5b61204c8d838e01611fa0565b909950975060408c013591508082111561206557600080fd5b506120728c828d01611fa0565b9a9d999c50979a969997986060880135976080810135975060a0013595509350505050565b60008060008060008060008060a0898b0312156120b357600080fd5b883567ffffffffffffffff808211156120cb57600080fd5b6120d78c838d01611fa0565b909a50985060208b01359150808211156120f057600080fd5b6120fc8c838d01611fa0565b909850965060408b013591508082111561211557600080fd5b506121228b828c01611fa0565b999c989b509699959896976060870135966080013595509350505050565b600082601f83011261215157600080fd5b8135602067ffffffffffffffff82111561216d5761216d611e00565b8160051b61217c828201611e2f565b928352848101820192828101908785111561219657600080fd5b83870192505b848310156121b55782358252918301919083019061219c565b979650505050505050565b600080600080600060a086880312156121d857600080fd5b6121e186611bd1565b94506121ef60208701611bd1565b9350604086013567ffffffffffffffff8082111561220c57600080fd5b61221889838a01612140565b9450606088013591508082111561222e57600080fd5b61223a89838a01612140565b9350608088013591508082111561225057600080fd5b5061225d88828901611e7e565b9150509295509295909350565b600080600080600060a0868803121561228257600080fd5b61228b86611bd1565b945061229960208701611bd1565b93506040860135925060608601359150608086013567ffffffffffffffff8111156122c357600080fd5b61225d88828901611e7e565b8183528181602085013750600060208284010152600060207fffffffffffffffffffffffffffffffffffffffffffffffffffffffffffffffe0601f840116840101905092915050565b73ffffffffffffffffffffffffffffffffffffffff8716815285602082015260a06040820152600061234e60a0830186886122cf565b60608301949094525060800152949350505050565b600181811c9082168061237757607f821691505b602082108114156123b1577f4e487b7100000000000000000000000000000000000000000000000000000000600052602260045260246000fd5b50919050565b73ffffffffffffffffffffffffffffffffffffffff851681528360208201526060604082015260006123ed6060830184866122cf565b9695505050505050565b7f4e487b7100000000000000000000000000000000000000000000000000000000600052603260045260246000fd5b60006020828403121561243857600080fd5b61098e82611bd1565b60008083357fffffffffffffffffffffffffffffffffffffffffffffffffffffffffffffffe184360301811261247657600080fd5b83018035915067ffffffffffffffff82111561249157600080fd5b602001915036819003821315611c3c57600080fd5b7f4e487b7100000000000000000000000000000000000000000000000000000000600052601160045260246000fd5b60007fffffffffffffffffffffffffffffffffffffffffffffffffffffffffffffffff821415612507576125076124a6565b5060010190565b81835260006020808501808196508560051b810191508460005b878110156125b057828403895281357fffffffffffffffffffffffffffffffffffffffffffffffffffffffffffffffe188360301811261256757600080fd5b8701803567ffffffffffffffff81111561258057600080fd5b80360389131561258f57600080fd5b61259c86828985016122cf565b9a87019a9550505090840190600101612528565b5091979650505050505050565b60a0808252810188905260008960c08301825b8b81101561260b5773ffffffffffffffffffffffffffffffffffffffff6125f684611bd1565b168252602092830192909101906001016125d0565b5083810360208501528881527f07ffffffffffffffffffffffffffffffffffffffffffffffffffffffffffffff89111561264457600080fd5b8860051b9150818a60208301378181019150506020810160008152602084830301604085015261267581888a61250e565b6060850196909652505050608001529695505050505050565b600082198211156126a1576126a16124a6565b500190565b7f416363657373436f6e74726f6c3a206163636f756e74200000000000000000008152600083516126de816017850160208801611cfa565b7f206973206d697373696e6720726f6c6520000000000000000000000000000000601791840191820152835161271b816028840160208801611cfa565b01602801949350505050565b8183823760009101908152919050565b6000817fffffffffffffffffffffffffffffffffffffffffffffffffffffffffffffffff048311821515161561276f5761276f6124a6565b500290565b600081612783576127836124a6565b507fffffffffffffffffffffffffffffffffffffffffffffffffffffffffffffffff019056fea2646970667358221220f89e8e7024095cb586499d8d4c91039271621f5d466d4a3fe135117af2bb766564736f6c634300080900335f58e3a2316349923ce3780f8d587db2d72378aed66a8261c916544fa6846ca5b09aa5aeb3702cfd50b6b62bc4532604938f21248a27a1d5ca736082b6819cc1d8aa0f3194971a2a116679f7c2090f6939c8d4e01a2a8d7e41d55e5351469e63fd643c72710c63c0180259aba6b2d05451e3591a24e58b62239378085726f783",
  "devdoc": {
    "kind": "dev",
    "methods": {
      "cancel(bytes32)": {
        "details": "Cancel an operation. Requirements: - the caller must have the 'canceller' role."
      },
      "execute(address,uint256,bytes,bytes32,bytes32)": {
        "details": "Execute an (ready) operation containing a single transaction. Emits a {CallExecuted} event. Requirements: - the caller must have the 'executor' role."
      },
      "executeBatch(address[],uint256[],bytes[],bytes32,bytes32)": {
        "details": "Execute an (ready) operation containing a batch of transactions. Emits one {CallExecuted} event per transaction in the batch. Requirements: - the caller must have the 'executor' role."
      },
      "getMinDelay()": {
        "details": "Returns the minimum delay for an operation to become valid. This value can be changed by executing an operation that calls `updateDelay`."
      },
      "getRoleAdmin(bytes32)": {
        "details": "Returns the admin role that controls `role`. See {grantRole} and {revokeRole}. To change a role's admin, use {_setRoleAdmin}."
      },
      "getTimestamp(bytes32)": {
        "details": "Returns the timestamp at which an operation becomes ready (0 for unset operations, 1 for done operations)."
      },
      "grantRole(bytes32,address)": {
        "details": "Grants `role` to `account`. If `account` had not been already granted `role`, emits a {RoleGranted} event. Requirements: - the caller must have ``role``'s admin role. May emit a {RoleGranted} event."
      },
      "hasRole(bytes32,address)": {
        "details": "Returns `true` if `account` has been granted `role`."
      },
      "hashOperation(address,uint256,bytes,bytes32,bytes32)": {
        "details": "Returns the identifier of an operation containing a single transaction."
      },
      "hashOperationBatch(address[],uint256[],bytes[],bytes32,bytes32)": {
        "details": "Returns the identifier of an operation containing a batch of transactions."
      },
      "isOperation(bytes32)": {
        "details": "Returns whether an id correspond to a registered operation. This includes both Pending, Ready and Done operations."
      },
      "isOperationDone(bytes32)": {
        "details": "Returns whether an operation is done or not."
      },
      "isOperationPending(bytes32)": {
        "details": "Returns whether an operation is pending or not. Note that a \"pending\" operation may also be \"ready\"."
      },
      "isOperationReady(bytes32)": {
        "details": "Returns whether an operation is ready for execution. Note that a \"ready\" operation is also \"pending\"."
      },
      "onERC1155BatchReceived(address,address,uint256[],uint256[],bytes)": {
        "details": "See {IERC1155Receiver-onERC1155BatchReceived}."
      },
      "onERC1155Received(address,address,uint256,uint256,bytes)": {
        "details": "See {IERC1155Receiver-onERC1155Received}."
      },
      "onERC721Received(address,address,uint256,bytes)": {
        "details": "See {IERC721Receiver-onERC721Received}."
      },
      "renounceRole(bytes32,address)": {
        "details": "Revokes `role` from the calling account. Roles are often managed via {grantRole} and {revokeRole}: this function's purpose is to provide a mechanism for accounts to lose their privileges if they are compromised (such as when a trusted device is misplaced). If the calling account had been revoked `role`, emits a {RoleRevoked} event. Requirements: - the caller must be `account`. May emit a {RoleRevoked} event."
      },
      "revokeRole(bytes32,address)": {
        "details": "Revokes `role` from `account`. If `account` had been granted `role`, emits a {RoleRevoked} event. Requirements: - the caller must have ``role``'s admin role. May emit a {RoleRevoked} event."
      },
      "schedule(address,uint256,bytes,bytes32,bytes32,uint256)": {
        "details": "Schedule an operation containing a single transaction. Emits {CallSalt} if salt is nonzero, and {CallScheduled}. Requirements: - the caller must have the 'proposer' role."
      },
      "scheduleBatch(address[],uint256[],bytes[],bytes32,bytes32,uint256)": {
        "details": "Schedule an operation containing a batch of transactions. Emits {CallSalt} if salt is nonzero, and one {CallScheduled} event per transaction in the batch. Requirements: - the caller must have the 'proposer' role."
      },
      "supportsInterface(bytes4)": {
        "details": "See {IERC165-supportsInterface}."
      },
      "updateDelay(uint256)": {
        "details": "Changes the minimum timelock duration for future operations. Emits a {MinDelayChange} event. Requirements: - the caller must be the timelock itself. This can only be achieved by scheduling and later executing an operation where the timelock is the target and the data is the ABI-encoded call to this function."
      }
    },
    "version": 1
  },
  "userdoc": {
    "kind": "user",
    "methods": {
      "name()": {
        "notice": "IMPORTANT: The optional admin can aid with initial configuration of roles after deployment without being subject to delay, but this role should be subsequently renounced in favor of administration through timelocked proposals. Previous versions of this contract would assign this admin to the deployer automatically and should be renounced as well."
      }
    },
    "version": 1
  },
  "storageLayout": {
    "storage": [
      {
        "astId": 24,
        "contract": "contracts/governance_standard/TimeLock.sol:TimeLock",
        "label": "_roles",
        "offset": 0,
        "slot": "0",
        "type": "t_mapping(t_bytes32,t_struct(RoleData)19_storage)"
      },
      {
        "astId": 2464,
        "contract": "contracts/governance_standard/TimeLock.sol:TimeLock",
        "label": "_timestamps",
        "offset": 0,
        "slot": "1",
        "type": "t_mapping(t_bytes32,t_uint256)"
      },
      {
        "astId": 2466,
        "contract": "contracts/governance_standard/TimeLock.sol:TimeLock",
        "label": "_minDelay",
        "offset": 0,
        "slot": "2",
        "type": "t_uint256"
      },
      {
        "astId": 15047,
        "contract": "contracts/governance_standard/TimeLock.sol:TimeLock",
        "label": "name",
        "offset": 0,
        "slot": "3",
        "type": "t_string_storage"
      }
    ],
    "types": {
      "t_address": {
        "encoding": "inplace",
        "label": "address",
        "numberOfBytes": "20"
      },
      "t_bool": {
        "encoding": "inplace",
        "label": "bool",
        "numberOfBytes": "1"
      },
      "t_bytes32": {
        "encoding": "inplace",
        "label": "bytes32",
        "numberOfBytes": "32"
      },
      "t_mapping(t_address,t_bool)": {
        "encoding": "mapping",
        "key": "t_address",
        "label": "mapping(address => bool)",
        "numberOfBytes": "32",
        "value": "t_bool"
      },
      "t_mapping(t_bytes32,t_struct(RoleData)19_storage)": {
        "encoding": "mapping",
        "key": "t_bytes32",
        "label": "mapping(bytes32 => struct AccessControl.RoleData)",
        "numberOfBytes": "32",
        "value": "t_struct(RoleData)19_storage"
      },
      "t_mapping(t_bytes32,t_uint256)": {
        "encoding": "mapping",
        "key": "t_bytes32",
        "label": "mapping(bytes32 => uint256)",
        "numberOfBytes": "32",
        "value": "t_uint256"
      },
      "t_string_storage": {
        "encoding": "bytes",
        "label": "string",
        "numberOfBytes": "32"
      },
      "t_struct(RoleData)19_storage": {
        "encoding": "inplace",
        "label": "struct AccessControl.RoleData",
        "members": [
          {
            "astId": 16,
            "contract": "contracts/governance_standard/TimeLock.sol:TimeLock",
            "label": "members",
            "offset": 0,
            "slot": "0",
            "type": "t_mapping(t_address,t_bool)"
          },
          {
            "astId": 18,
            "contract": "contracts/governance_standard/TimeLock.sol:TimeLock",
            "label": "adminRole",
            "offset": 0,
            "slot": "1",
            "type": "t_bytes32"
          }
        ],
        "numberOfBytes": "64"
      },
      "t_uint256": {
        "encoding": "inplace",
        "label": "uint256",
        "numberOfBytes": "32"
      }
    }
  }
}