{
  "address": "0x1DaAB82c6D147D781d9370cb24c6414A94cf55Da",
  "abi": [
    {
      "inputs": [
        {
          "internalType": "address",
          "name": "_owner",
          "type": "address"
        }
      ],
      "stateMutability": "nonpayable",
      "type": "constructor"
    },
    {
      "anonymous": false,
      "inputs": [
        {
          "indexed": false,
          "internalType": "uint64",
          "name": "newDTI",
          "type": "uint64"
        },
        {
          "indexed": false,
          "internalType": "uint64",
          "name": "oldDTI",
          "type": "uint64"
        }
      ],
      "name": "DTIChanged",
      "type": "event"
    },
    {
      "anonymous": false,
      "inputs": [
        {
          "indexed": true,
          "internalType": "address",
          "name": "previousDeployer",
          "type": "address"
        },
        {
          "indexed": true,
          "internalType": "address",
          "name": "newDeployer",
          "type": "address"
        }
      ],
      "name": "DeployerChanged",
      "type": "event"
    },
    {
      "anonymous": false,
      "inputs": [
        {
          "indexed": false,
          "internalType": "uint32",
          "name": "newLTI",
          "type": "uint32"
        },
        {
          "indexed": false,
          "internalType": "uint32",
          "name": "oldLTI",
          "type": "uint32"
        }
      ],
      "name": "LTVChanged",
      "type": "event"
    },
    {
      "anonymous": false,
      "inputs": [
        {
          "indexed": true,
          "internalType": "address",
          "name": "previousOwner",
          "type": "address"
        },
        {
          "indexed": true,
          "internalType": "address",
          "name": "newOwner",
          "type": "address"
        }
      ],
      "name": "OwnershipTransferred",
      "type": "event"
    },
    {
      "anonymous": false,
      "inputs": [
        {
          "indexed": false,
          "internalType": "uint32",
          "name": "_newrateOfInterest",
          "type": "uint32"
        },
        {
          "indexed": false,
          "internalType": "uint32",
          "name": "oldrateOfInterest",
          "type": "uint32"
        }
      ],
      "name": "RateChanged",
      "type": "event"
    },
    {
      "inputs": [],
      "name": "DTI",
      "outputs": [
        {
          "internalType": "uint64",
          "name": "",
          "type": "uint64"
        }
      ],
      "stateMutability": "view",
      "type": "function"
    },
    {
      "inputs": [
        {
          "internalType": "address",
          "name": "_newDeployer",
          "type": "address"
        }
      ],
      "name": "changeDeployer",
      "outputs": [],
      "stateMutability": "nonpayable",
      "type": "function"
    },
    {
      "inputs": [],
      "name": "deployer",
      "outputs": [
        {
          "internalType": "address",
          "name": "",
          "type": "address"
        }
      ],
      "stateMutability": "view",
      "type": "function"
    },
    {
      "inputs": [],
      "name": "owner",
      "outputs": [
        {
          "internalType": "address",
          "name": "",
          "type": "address"
        }
      ],
      "stateMutability": "view",
      "type": "function"
    },
    {
      "inputs": [],
      "name": "rateOfInterest",
      "outputs": [
        {
          "internalType": "uint32",
          "name": "",
          "type": "uint32"
        }
      ],
      "stateMutability": "view",
      "type": "function"
    },
    {
      "inputs": [],
      "name": "renounceOwnership",
      "outputs": [],
      "stateMutability": "nonpayable",
      "type": "function"
    },
    {
      "inputs": [],
      "name": "retrieveDTI",
      "outputs": [
        {
          "internalType": "uint64",
          "name": "",
          "type": "uint64"
        }
      ],
      "stateMutability": "view",
      "type": "function"
    },
    {
      "inputs": [],
      "name": "retrieveLTV",
      "outputs": [
        {
          "internalType": "uint32",
          "name": "",
          "type": "uint32"
        }
      ],
      "stateMutability": "view",
      "type": "function"
    },
    {
      "inputs": [],
      "name": "retrieveRate",
      "outputs": [
        {
          "internalType": "uint32",
          "name": "",
          "type": "uint32"
        }
      ],
      "stateMutability": "view",
      "type": "function"
    },
    {
      "inputs": [],
      "name": "retrieveTotalAllowableFunds",
      "outputs": [
        {
          "internalType": "uint256",
          "name": "",
          "type": "uint256"
        }
      ],
      "stateMutability": "view",
      "type": "function"
    },
    {
      "inputs": [],
      "name": "retrieveTotalLoansDisbursed",
      "outputs": [
        {
          "internalType": "uint128",
          "name": "",
          "type": "uint128"
        }
      ],
      "stateMutability": "view",
      "type": "function"
    },
    {
      "inputs": [],
      "name": "retrieveTotalPreApprovedLoans",
      "outputs": [
        {
          "internalType": "uint128",
          "name": "",
          "type": "uint128"
        }
      ],
      "stateMutability": "view",
      "type": "function"
    },
    {
      "inputs": [],
      "name": "s_LTV",
      "outputs": [
        {
          "internalType": "uint32",
          "name": "",
          "type": "uint32"
        }
      ],
      "stateMutability": "view",
      "type": "function"
    },
    {
      "inputs": [],
      "name": "totalAllowableFunds",
      "outputs": [
        {
          "internalType": "uint256",
          "name": "",
          "type": "uint256"
        }
      ],
      "stateMutability": "view",
      "type": "function"
    },
    {
      "inputs": [],
      "name": "totalLoansDisbursed",
      "outputs": [
        {
          "internalType": "uint128",
          "name": "",
          "type": "uint128"
        }
      ],
      "stateMutability": "view",
      "type": "function"
    },
    {
      "inputs": [],
      "name": "totalPreApprovedLoans",
      "outputs": [
        {
          "internalType": "uint128",
          "name": "",
          "type": "uint128"
        }
      ],
      "stateMutability": "view",
      "type": "function"
    },
    {
      "inputs": [
        {
          "internalType": "address",
          "name": "newOwner",
          "type": "address"
        }
      ],
      "name": "transferOwnership",
      "outputs": [],
      "stateMutability": "nonpayable",
      "type": "function"
    },
    {
      "inputs": [
        {
          "internalType": "uint64",
          "name": "_newDTI",
          "type": "uint64"
        }
      ],
      "name": "updateDTI",
      "outputs": [],
      "stateMutability": "nonpayable",
      "type": "function"
    },
    {
      "inputs": [
        {
          "internalType": "uint32",
          "name": "_newLTV",
          "type": "uint32"
        }
      ],
      "name": "updateLTV",
      "outputs": [],
      "stateMutability": "nonpayable",
      "type": "function"
    },
    {
      "inputs": [
        {
          "internalType": "uint32",
          "name": "_newrateOfInterest",
          "type": "uint32"
        }
      ],
      "name": "updateRate",
      "outputs": [],
      "stateMutability": "nonpayable",
      "type": "function"
    },
    {
      "inputs": [
        {
          "internalType": "uint256",
          "name": "_newTotalAllowableFunds",
          "type": "uint256"
        }
      ],
      "name": "updateTotalAllowableFunds",
      "outputs": [],
      "stateMutability": "nonpayable",
      "type": "function"
    },
    {
      "inputs": [
        {
          "internalType": "uint128",
          "name": "_newTotalLoansDisbursed",
          "type": "uint128"
        }
      ],
      "name": "updateTotalLoansDisbursed",
      "outputs": [],
      "stateMutability": "nonpayable",
      "type": "function"
    },
    {
      "inputs": [
        {
          "internalType": "uint128",
          "name": "_newTotalPreApprovedLoans",
          "type": "uint128"
        }
      ],
      "name": "updateTotalPreApprovedLoans",
      "outputs": [],
      "stateMutability": "nonpayable",
      "type": "function"
    }
  ],
  "transactionHash": "0xd6579fdebb0e539c8e519162eba17fcd158e87ab898219d44ed07a47aadf11ff",
  "args": [
    "0x7057466420B99F697340cCD551E3c510181558C5"
  ],
  "numDeployments": 1,
  "solcInputHash": "b84c1e074d3ef19546b10869bc3405ba",
  "bytecode": "0x608060405234801561001057600080fd5b50604051610cc8380380610cc883398101604081905261002f916100ad565b6100383361005d565b600180546001600160a01b0319166001600160a01b03929092169190911790556100dd565b600080546001600160a01b038381166001600160a01b0319831681178455604051919092169283917f8be0079c531659141344cd1fd0a4f28419497f9722a3daafe3b4186f6b6457e09190a35050565b6000602082840312156100bf57600080fd5b81516001600160a01b03811681146100d657600080fd5b9392505050565b610bdc806100ec6000396000f3fe608060405234801561001057600080fd5b506004361061018d5760003560e01c80637963e50f116100e3578063b272839a1161008c578063dc881c4c11610066578063dc881c4c146103fe578063defdfae614610426578063f2fde38b1461043957600080fd5b8063b272839a146103a8578063b9e9c7bc146103c2578063d5f39488146103de57600080fd5b80638da5cb5b116100bd5780638da5cb5b1461034e5780639dcf82411461038d5780639ee9c1d1146103a057600080fd5b80637963e50f1461031657806381a3897914610329578063867dec1a1461033c57600080fd5b80633824e75c11610145578063619e6ccc1161011f578063619e6ccc146102b8578063715018a6146102fb57806375734cb51461030357600080fd5b80633824e75c146102795780633bfb8ee514610290578063491bb081146102a557600080fd5b80631fc2a361116101765780631fc2a361146101f657806324779e291461022257806325f5a8e01461024c57600080fd5b806304d2775514610192578063178d8ae3146101ce575b600080fd5b60015474010000000000000000000000000000000000000000900463ffffffff165b60405163ffffffff90911681526020015b60405180910390f35b6001546101b49074010000000000000000000000000000000000000000900463ffffffff1681565b6001546101b4907801000000000000000000000000000000000000000000000000900463ffffffff1681565b6001547801000000000000000000000000000000000000000000000000900463ffffffff166101b4565b6002546102609067ffffffffffffffff1681565b60405167ffffffffffffffff90911681526020016101c5565b61028260045481565b6040519081526020016101c5565b6102a361029e366004610ace565b61044c565b005b6102a36102b3366004610aff565b6104cf565b6002546801000000000000000090046fffffffffffffffffffffffffffffffff165b6040516fffffffffffffffffffffffffffffffff90911681526020016101c5565b6102a361055f565b6102a3610311366004610b25565b610573565b6102a3610324366004610b57565b610648565b6102a3610337366004610b25565b6106ce565b60025467ffffffffffffffff16610260565b60005473ffffffffffffffffffffffffffffffffffffffff165b60405173ffffffffffffffffffffffffffffffffffffffff90911681526020016101c5565b6102a361039b366004610aff565b610792565b600454610282565b6003546fffffffffffffffffffffffffffffffff166102da565b6003546102da906fffffffffffffffffffffffffffffffff1681565b6001546103689073ffffffffffffffffffffffffffffffffffffffff1681565b6002546102da906801000000000000000090046fffffffffffffffffffffffffffffffff1681565b6102a3610434366004610b70565b610829565b6102a3610447366004610b70565b610921565b6104546109d8565b6002805467ffffffffffffffff8381167fffffffffffffffffffffffffffffffffffffffffffffffff000000000000000083168117909355604080519190921680825260208201939093527f11b7e12bc7ba69838b4508dbaa630616d7d791f065b494e02002ad9b91c0b20e91015b60405180910390a15050565b6104d76109d8565b6001805463ffffffff838116740100000000000000000000000000000000000000008181027fffffffffffffffff00000000ffffffffffffffffffffffffffffffffffffffff85161790945560408051918252939092041660208201819052917f2597e6d1348e47ad5a08a8304cdd26bddeb8e697547f54397719be5e5637b0d691016104c3565b6105676109d8565b6105716000610a59565b565b60015473ffffffffffffffffffffffffffffffffffffffff1633146105f9576040517f08c379a000000000000000000000000000000000000000000000000000000000815260206004820152600b60248201527f4e6f7420416c6c6f77656400000000000000000000000000000000000000000060448201526064015b60405180910390fd5b600280546fffffffffffffffffffffffffffffffff90921668010000000000000000027fffffffffffffffff00000000000000000000000000000000ffffffffffffffff909216919091179055565b60015473ffffffffffffffffffffffffffffffffffffffff1633146106c9576040517f08c379a000000000000000000000000000000000000000000000000000000000815260206004820152600b60248201527f4e6f7420416c6c6f77656400000000000000000000000000000000000000000060448201526064016105f0565b600455565b60015473ffffffffffffffffffffffffffffffffffffffff16331461074f576040517f08c379a000000000000000000000000000000000000000000000000000000000815260206004820152600b60248201527f4e6f7420416c6c6f77656400000000000000000000000000000000000000000060448201526064016105f0565b600380547fffffffffffffffffffffffffffffffff00000000000000000000000000000000166fffffffffffffffffffffffffffffffff92909216919091179055565b61079a6109d8565b6001805463ffffffff83811678010000000000000000000000000000000000000000000000008181027fffffffff00000000ffffffffffffffffffffffffffffffffffffffffffffffff85161790945560408051949093049091168084526020840191909152917fae97aa11c94649dc81938b01ef9b5bc13a481058d2a3a637dde62fb7f16d9ae991016104c3565b60015473ffffffffffffffffffffffffffffffffffffffff1633146108aa576040517f08c379a000000000000000000000000000000000000000000000000000000000815260206004820152600b60248201527f4e6f7420416c6c6f77656400000000000000000000000000000000000000000060448201526064016105f0565b6001805473ffffffffffffffffffffffffffffffffffffffff8381167fffffffffffffffffffffffff0000000000000000000000000000000000000000831681179093556040519116919082907fb425bf30023a30c35ee17f3f416360da7ea96a46b589cfa6a14f39dc98a52bca90600090a35050565b6109296109d8565b73ffffffffffffffffffffffffffffffffffffffff81166109cc576040517f08c379a000000000000000000000000000000000000000000000000000000000815260206004820152602660248201527f4f776e61626c653a206e6577206f776e657220697320746865207a65726f206160448201527f646472657373000000000000000000000000000000000000000000000000000060648201526084016105f0565b6109d581610a59565b50565b60005473ffffffffffffffffffffffffffffffffffffffff163314610571576040517f08c379a000000000000000000000000000000000000000000000000000000000815260206004820181905260248201527f4f776e61626c653a2063616c6c6572206973206e6f7420746865206f776e657260448201526064016105f0565b6000805473ffffffffffffffffffffffffffffffffffffffff8381167fffffffffffffffffffffffff0000000000000000000000000000000000000000831681178455604051919092169283917f8be0079c531659141344cd1fd0a4f28419497f9722a3daafe3b4186f6b6457e09190a35050565b600060208284031215610ae057600080fd5b813567ffffffffffffffff81168114610af857600080fd5b9392505050565b600060208284031215610b1157600080fd5b813563ffffffff81168114610af857600080fd5b600060208284031215610b3757600080fd5b81356fffffffffffffffffffffffffffffffff81168114610af857600080fd5b600060208284031215610b6957600080fd5b5035919050565b600060208284031215610b8257600080fd5b813573ffffffffffffffffffffffffffffffffffffffff81168114610af857600080fdfea26469706673582212208837e04b0e69324b813e784b28fc6a4939f14041f10d877caf9ee15fcb03fcda64736f6c63430008090033",
  "devdoc": {
    "kind": "dev",
    "methods": {
      "owner()": {
        "details": "Returns the address of the current owner."
      },
      "renounceOwnership()": {
        "details": "Leaves the contract without owner. It will not be possible to call `onlyOwner` functions. Can only be called by the current owner. NOTE: Renouncing ownership will leave the contract without an owner, thereby disabling any functionality that is only available to the owner."
      },
      "transferOwnership(address)": {
        "details": "Transfers ownership of the contract to a new account (`newOwner`). Can only be called by the current owner."
      }
    },
    "version": 1
  },
  "userdoc": {
    "kind": "user",
    "methods": {},
    "version": 1
  },
  "storageLayout": {
    "storage": [
      {
        "astId": 396,
        "contract": "contracts/rate.sol:Rate",
        "label": "_owner",
        "offset": 0,
        "slot": "0",
        "type": "t_address"
      },
      {
        "astId": 15160,
        "contract": "contracts/rate.sol:Rate",
        "label": "deployer",
        "offset": 0,
        "slot": "1",
        "type": "t_address"
      },
      {
        "astId": 15162,
        "contract": "contracts/rate.sol:Rate",
        "label": "rateOfInterest",
        "offset": 20,
        "slot": "1",
        "type": "t_uint32"
      },
      {
        "astId": 15164,
        "contract": "contracts/rate.sol:Rate",
        "label": "s_LTV",
        "offset": 24,
        "slot": "1",
        "type": "t_uint32"
      },
      {
        "astId": 15166,
        "contract": "contracts/rate.sol:Rate",
        "label": "DTI",
        "offset": 0,
        "slot": "2",
        "type": "t_uint64"
      },
      {
        "astId": 15168,
        "contract": "contracts/rate.sol:Rate",
        "label": "totalPreApprovedLoans",
        "offset": 8,
        "slot": "2",
        "type": "t_uint128"
      },
      {
        "astId": 15170,
        "contract": "contracts/rate.sol:Rate",
        "label": "totalLoansDisbursed",
        "offset": 0,
        "slot": "3",
        "type": "t_uint128"
      },
      {
        "astId": 15172,
        "contract": "contracts/rate.sol:Rate",
        "label": "totalAllowableFunds",
        "offset": 0,
        "slot": "4",
        "type": "t_uint256"
      }
    ],
    "types": {
      "t_address": {
        "encoding": "inplace",
        "label": "address",
        "numberOfBytes": "20"
      },
      "t_uint128": {
        "encoding": "inplace",
        "label": "uint128",
        "numberOfBytes": "16"
      },
      "t_uint256": {
        "encoding": "inplace",
        "label": "uint256",
        "numberOfBytes": "32"
      },
      "t_uint32": {
        "encoding": "inplace",
        "label": "uint32",
        "numberOfBytes": "4"
      },
      "t_uint64": {
        "encoding": "inplace",
        "label": "uint64",
        "numberOfBytes": "8"
      }
    }
  }
}